:10000000000600201D050000450500004505000014
:1000100000000000000000000000000000000000E0
:100020000000000000000000000000004505000086
:10003000000000000000000045050000450500002C
:100040004505000045050000450500004505000088
:100050004505000045050000450500004505000078
:10006000D32F000045050000DD2F000045050000EE
:100070004505000045050000450500004505000058
:100080004505000045050000450500004505000048
:100090009D0E0000B50E000045050000450500005E
:1000A0004505000045050000450500004505000028
:1000B0004505000045050000450500004505000018
:10040000FFFFFFFFFFFFFFFFFFFFFFFFFE3DFFFFBF
:100410000448054B10B5834203D0044B002B00D099
:10042000984710BDACFFFF1FACFFFF1F000000008E
:1004300006480749091A8B10C90FC91810B5491089
:1004400003D0044B002B00D0984710BDACFFFF1F1A
:10045000ACFFFF1F0000000010B5074C2378002BF5
:1004600009D1FFF7D5FF054B002B02D0044800E06F
:1004700000BF0123237010BDACFFFF1F0000000070
:10048000886A0000054B10B5002B03D004490548CD
:1004900000E000BFFFF7CCFF10BDC0460000000029
:1004A000B0FFFF1F886A0000402292029A1A92460B
:1004B0007047C046154B002B00D1114B9D46FFF7EE
:1004C000F3FF00218B460F461148124A121A00F022
:1004D000FFF80C4B002B00D098470B4B002B00D0A3
:1004E00098470020002104000D000B4800F02EF872
:1004F00000F064F82000290001F098F900F034F8C9
:1005000000000800000000000000000000060020BD
:10051000ACFFFF1FD00200209505000072B6064810
:100520000649074A02600A6002F05EFD02F09EFD85
:1005300062B6FFF7BFFF000080E100E080E200E06C
:10054000FFFFFFFF004800474505000010B5010010
:1005500000230022002000F019FA10BD014B18689A
:100560007047C04600FEFF1F084B10B50400002B6B
:1005700002D0002100F078FA054B1868836A002B3E
:1005800000D09847200000F05BFCC046690A0000DC
:10059000D451000070B5074D074C641BA41005D062
:1005A000013CA300EB589847002CF9D106F072FAF1
:1005B00070BDC046AC6A0000B06A000070B50C4D5A
:1005C0000C4E761BB61005D0002408CD0134984798
:1005D000A642FAD106F058FA074D084E761BB6101F
:1005E00005D0002408CD01349847A642FAD170BD49
:1005F000A86A0000A86A0000A86A0000AC6A0000AF
:1006000010B5034B0100186800F00CF910BDC0468E
:1006100000FEFF1F10B5034B0100186800F0ACF896
:1006200010BDC04600FEFF1FF0B5C64600B50F2A3C
:1006300043D90B00032603431E400C000300002E89
:1006400040D11500103D2D09AC462D01A84680442F
:1006500000E03B00676825685F60E7681D60DF6059
:100660001F00A56810379D6010344345F1D16546E1
:100670000F230C2401352D0149191340451914424B
:1006800023D08C59AC5104369C1B032CF9D803247D
:10069000043B9B0801339B002240ED18C918561EED
:1006A000002A07D0002300E02300CA5C5C1CEA5447
:1006B0009E42F9D104BC9046F0BD0500561E002AAA
:1006C000F0D1F7E7561E0500ECE71A00F6E7C04642
:1006D000F0B5050083074AD0541E002A44D0CEB29C
:1006E0000300032202E00135013C3DD301332E70AB
:1006F0001342F8D1032C2FD9FF220A4015021543CB
:100700002A0415430F2C35D92700103F3F093E011D
:10071000B4461E001A001036664415605560956098
:10072000D5601032B242F8D10F260C2201373F01BA
:100730002640DB193700224217D03E1FB608B4000E
:10074000A4461A001C1D644420C2A242FCD103240A
:100750000136B6009B193C40002C05D0C9B21C19CB
:10076000197001339C42FBD1F0BD3400F4E7140052
:100770000300BFE72700E0E770B50500002915D0AA
:100780000C1F2368002B27DB280000F0CBF9244B3B
:100790001A68002A05D0A2420CD92168601882424A
:1007A00024D0626028001C6000F0BEF970BDA34236
:1007B00003D81A005368002BF9D111685018A042D1
:1007C0001BD027D821686018834207D0636054602B
:1007D000280000F0A9F9E9E7E418D5E718685B6894
:1007E00084466144216063605460F1E71068526898
:1007F0008446614421606260D4E72068091850187B
:1008000011608342E4D118685B68844661441160DA
:100810005360DDE70C2328002B6000F085F9C5E765
:10082000C8FFFF1FF8B50323CD1C9D430835060004
:100830000C2D2AD20C25A94229D8300000F072F9DB
:100840002A4F3A68002A0AD013685B1B04D441E09F
:1008500023685B1B1FD522005468002CF8D17B68ED
:10086000002B3DD02900300000F042F8431C2AD074
:100870000323C41C9C43A04205D0211A300000F081
:1008800037F8431C1FD0256010E0002DD3DA0C236D
:1008900000203360F8BD0B2B05D86368A2421DD041
:1008A000536003E014002360E4182560300000F07A
:1008B0003BF9200007220B30231D9043C21AE9D0D8
:1008C0001B1AA350E6E70C233000336000F02CF92C
:1008D0000020DFE70B2BE5D8140053683B60E5E709
:1008E0000021300000F004F87860BBE7C8FFFF1F6C
:1008F000002370B5064C05000800236000F0A2FA42
:10090000431C00D070BD2368002BFBD02B60F9E79F
:10091000CC02002003000A7801311A700133002A4A
:10092000F9D1704710B5830727D00378002B26D064
:100930000300032102E01A78002A1CD001330B4285
:10094000F9D119680F4A104C8A188A4322420FD1F4
:10095000043319680B4A8A188A43224208D10433A7
:100960001968084A8A188A432242F1D000E001330C
:100970001A78002AFBD1181A10BD0300E1E7002005
:10098000FAE7C046FFFEFEFE80808080F0B5464656
:100990004F46D646C0B51F002F4B82B01C680500DD
:1009A0000E009046002C2DD063681F2B50DC002DCC
:1009B0001CD08822A0589146002834D07832825822
:1009C00094469A0091468144424649460A60012174
:1009D000624699400A43944680228A466146520004
:1009E00081504946803A8F50022D16D000205A1C63
:1009F00002339B0062601E5102B01CBC90469946B7
:100A0000A246F0BD154C1C60154B002BCCD01B68CA
:100A100001938823019AE250C6E7554684328158F3
:100A20000D438550E2E70F4B002B11D0842040008E
:100A3000FFF7E6FD00280BD08022002352008350F0
:100A4000043283504B460022E05094466368B8E776
:100A500001204042D0E7C0465C000020D0FFFF1FCD
:100A60000000000001060000F0B5DE464E46454697
:100A700057462B4B88469B46E0B51E6883B00190D5
:100A8000002E45D088237568F7586C1E40D4013578
:100A9000AD00783375199A460AE0002F05D03B0067
:100AA000A20080339B58434505D0043D013C2FD321
:100AB0004346002BF1D173682A68013BA34222D040
:100AC00000232B60002AF0D073689946002F18D0BD
:100AD00001235146A3407958194212D08220400088
:100AE0003858A1007958009018420ED101989047CB
:100AF0005B4672681B684A4501D1B342D5D01E00DF
:100B0000BEE79047F4E77460DCE708009047EFE742
:100B100003B03CBC90469946A246AB46F0BDC046E9
:100B20005C0000207047C0467047C04602B4714662
:100B300049084900095C49008E4402BC7047C04620
:100B400003B47146490840004900095E49008E44DB
:100B500003BC7047002243088B4274D303098B42C5
:100B60005FD3030A8B4244D3030B8B4228D3030C7D
:100B70008B420DD3FF22090212BA030C8B4202D31F
:100B80001212090265D0030B8B4219D300E0090A47
:100B9000C30B8B4201D3CB03C01A5241830B8B4250
:100BA00001D38B03C01A5241430B8B4201D34B0339
:100BB000C01A5241030B8B4201D30B03C01A52419E
:100BC000C30A8B4201D3CB02C01A5241830A8B4223
:100BD00001D38B02C01A5241430A8B4201D34B020C
:100BE000C01A5241030A8B4201D30B02C01A524170
:100BF000CDD2C3098B4201D3CB01C01A5241830924
:100C00008B4201D38B01C01A524143098B4201D35D
:100C10004B01C01A524103098B4201D30B01C01A88
:100C20005241C3088B4201D3CB00C01A5241830802
:100C30008B4201D38B00C01A524143088B4201D32F
:100C40004B00C01A5241411A00D20146524110468F
:100C50007047FFE701B5002000F0F0F802BDC04684
:100C60000029F7D076E7704703460B437FD4002274
:100C700043088B4274D303098B425FD3030A8B4230
:100C800044D3030B8B4228D3030C8B420DD3FF229A
:100C9000090212BA030C8B4202D31212090265D068
:100CA000030B8B4219D300E0090AC30B8B4201D31B
:100CB000CB03C01A5241830B8B4201D38B03C01A62
:100CC0005241430B8B4201D34B03C01A5241030BD9
:100CD0008B4201D30B03C01A5241C30A8B4201D38A
:100CE000CB02C01A5241830A8B4201D38B02C01A35
:100CF0005241430A8B4201D34B02C01A5241030AAC
:100D00008B4201D30B02C01A5241CDD2C3098B4290
:100D100001D3CB01C01A524183098B4201D38B010D
:100D2000C01A524143098B4201D34B01C01A5241B0
:100D300003098B4201D30B01C01A5241C3088B42F5
:100D400001D3CB00C01A524183088B4201D38B00E0
:100D5000C01A524143088B4201D34B00C01A524182
:100D6000411A00D201465241104670475DE0CA0F59
:100D700000D04942031000D34042534000229C4619
:100D800003098B422DD3030A8B4212D3FC22890123
:100D900012BA030A8B420CD3890192118B4208D3F9
:100DA000890192118B4204D389013AD0921100E05B
:100DB0008909C3098B4201D3CB01C01A524183096F
:100DC0008B4201D38B01C01A524143098B4201D39C
:100DD0004B01C01A524103098B4201D30B01C01AC7
:100DE0005241C3088B4201D3CB00C01A5241830841
:100DF0008B4201D38B00C01A5241D9D243088B4297
:100E000001D34B00C01A5241411A00D20146634639
:100E100052415B10104601D34042002B00D549429D
:100E2000704763465B1000D3404201B5002000F0DC
:100E300005F802BD0029F8D016E770477047C04694
:100E4000FEE7C0460A4A0300116810B5002901D127
:100E50000849116010680849C3188B4206D9FFF78A
:100E60007DFB0C2303600120404210BD1360FCE7B2
:100E700060000020D0020020D002002083780220F1
:100E80009842804140427047437A0020013B012B49
:100E900003D90B78013001330B70704710B5002077
:100EA00003F0DEFD002803D00021080003F0CCFD94
:100EB00010BD0000024A1368013313607047C0463A
:100EC0008400002037B5002002F070FBC02300240E
:100ED0000D4A9B0013600D4A0D4D13600D4A200012
:100EE00013600D4B2C716C71AC711A68FA239B0066
:100EF00053430A492B6003F001FE2900200001AA98
:100F000003F062FE37BDC046189014541C90145470
:100F1000DC00002000A0145484FEFF1FAC00002061
:100F200010B58024002003F02BFE0A4B64001C60E7
:100F3000094B07201C60094B1C6002F0D1FD062004
:100F400002F0CEFD200002F0CBFD002002F033FBCA
:100F500010BDC046189014541C90145400A0145492
:100F600010B5002002F02CFB8023054A9B00136083
:100F7000044A00200449136002F08EFE10BDC046F2
:100F80000CA0145410A014548800002010B50020A8
:100F900002F0BEFE80238220074A5B001360074AEE
:100FA0004000136002F09CFD0420FF3002F098FD29
:100FB000002002F00AFB10BD0CA0145410A0145421
:100FC0000023364A70B51360354A01201360354A54
:100FD0000133FF331360344A34491360344A1360D9
:100FE000344A1360344A1360344A1360344A13603D
:100FF000344A14782500054004424DD00B60324934
:1010000032480B60002101603148016031490B60BA
:1010100031490B6031490B6031490B6031490B603C
:1010200031490B601378DB0703D50220FF3002F053
:1010300049FD092002F054FD0C2002F051FD05206D
:1010400002F04EFD082002F04BFD0620FF3002F0BA
:1010500047FD0E20FF3002F043FD8320400002F0E8
:101060003FFD0820FF3002F03BFD0C20FF3002F076
:1010700029FD8220400002F033FD0420FF3002F001
:101080002FFD072002F02CFD062002F029FD802014
:10109000400002F025FD70BD0D60B0E70C901454C7
:1010A00010901454149014541890145404A0145410
:1010B0001C901454209014542490145430901454C0
:1010C00000A0145480FEFF1F08A014540CA0145458
:1010D00010A0145414A0145418A014541CA0145498
:1010E00028A014542CA0145434A0145410B5092072
:1010F00002F0F6FC10BD10B50C2002F0F1FC10BDA2
:10110000384B10B598423DD027D8374B984253D032
:1011100015D8C83B984244D009D8C83B984231D032
:10112000324B984206D1052002F0CCFC2DE0304B2A
:1011300098423DD02F49002001F03FFF2CE096233C
:101140001B01984243D02C4B984247D02B4B9842DE
:10115000F0D1052002F0B6FC31E0294B98422BD0AB
:1011600007D8C83B98421CD0264B984220D0264B2B
:10117000D7E7C8231B01984229D0244B98422DD091
:10118000234BE4E7052002F0ABFC082002F0A8FCAA
:101190000620FF3002F0A4FC1E4B186802F025F870
:1011A00010BD052002F09CFC082002F08BFCEFE74C
:1011B000052002F087FCF7E7052002F091FC0820EB
:1011C00002F08EFC0620FF3002F07CFCE4E70520F4
:1011D00002F086FC082002F075FCF3E7052002F01F
:1011E00071FCF7E7280A0000980800006C0700006F
:1011F00034080000D8510000C4090000FC080000B9
:10120000B80B0000540B00008C0A0000E40C000036
:101210001C0C000088FEFF1F10B5FFF771FF0920AE
:1012200002F050FC0C2002F05BFC8320400002F036
:1012300057FC10BD10B5FFF763FF092002F050FC0A
:101240000C2002F03FFC8320400002F03BFC10BD6C
:10125000AF220C4B10B5C3189BB29200934202D838
:10126000FFF7DAFF10BD084BC3189BB2934202D8B8
:10127000FFF7E0FFF6E702000449002001F09DFEC1
:10128000F0E7C046F8F8FFFFD8F5FFFF0552000071
:1012900010B5FFF72BFFFFF72EFF8320400002F071
:1012A00011FC024B186801F0A0FF10BD88FEFF1F63
:1012B00010B50400002901D0FFF782FE00210220B2
:1012C00001F09CF82100042001F098F810BD10B541
:1012D000012420000021FFF7EBFF21003C20FFF755
:1012E000E7FFF6E7F0B59DB285B0039206002A004D
:1012F0000C000020012101F068FA290007001F48B6
:1013000001F01CF93F18002E18D01D4D286801F07F
:101310006CFF1C49002001F03DFC286801F065FFCE
:101320001949002001F036FC286801F05EFF00201A
:10133000164901F02FFC286801F057FF0026144DD4
:1013400014492B686A6800200092320001F035FED3
:10135000200001F081FA200001F026F92A6800201F
:101360006B680D49009701F028FE039B002B02DDFE
:10137000180001F03AFF0136E1E7C0469F3900004E
:101380007CFEFF1F3D5200005F5200003F620000E4
:1013900000D003408452000090520000F0B591B09C
:1013A000059218AA12780D910A921CAA12780EA919
:1013B0000E921DAA12881E00089221225218D27F76
:1013C00016AB09921FAA12881F780F9217AB20AA9A
:1013D00012781B7804000B92BB4203D30A9A9742FF
:1013E00000D91F00059B002E06D1002B06D15949BC
:1013F000002001F0E2FD01E0002BF8D10025089863
:10140000FFF726FF2100002001F0C4FB089C049593
:101410000695039500230793079B199A934200DCD6
:1014200095E00E9B002B04D001370A9BFFB2BB4214
:10143000F0D2039A069B944647496344002001F08A
:10144000BCFD322001F0D1FE099B049A4349009370
:101450000020039B01F0B1FD322001F0C6FE2A00FE
:101460003F49002001F0A9FD322001F0BEFE11B07D
:10147000F0BD029B3022FB180C936B469B1818782A
:1014800001210D9B9847002849D1039B0133039309
:10149000089B9C4204D9643CA4B22000FFF7D8FE0C
:1014A000002E26D0099AB37B9B1A5A425341049AC4
:1014B000D31804930B9B002B0BD0337B029A717BC8
:1014C000B07B0091019027490020DBB2BA1801F0EF
:1014D00074FD1B9B002B02DD180001F086FE029BB1
:1014E00001330293029B1A9A9342C2DB079B01339A
:1014F00091E7059B099A1B7A9B1A5A425341049A19
:10150000D31804930B9B002BE3D0059B029A1B7A04
:1015100030001549DBB2BA1801F04FFDD9E70228B7
:1015200010D100200C9A114901F047FD069B0133B0
:1015300006930F9B9C42CCD26434A4B22000FFF7E8
:1015400087FEC6E70338434258412D18C1E7002300
:10155000C7E7C046D8510000EA520000025300001D
:10156000335300009D520000C2520000D7520000C9
:10157000F0B591B00D9316AB0400100004CB0C91A4
:101580001F781AAB1B880E920F931BAB1E881CABE7
:101590001D78002C00D16AE0FFF7E2FC601E1328E2
:1015A0005FD8FFF7C3FA0A3D4244465E484A4C4EB4
:1015B00050525458565E5A5C5E260F9B0C9A079305
:1015C0000D9B00920693189B2B4A05930E9B2B496B
:1015D0000493199B2A4803933123029300230A970B
:1015E000099608950193FFF7D9FEFFF7CFFC11B0DC
:1015F000F0BD0F9B0C9A07930D9B00920693189BCE
:10160000204A05930E9B20490493199B1F4803937E
:101610000523029300230A97099608950193E2E7B0
:101620001B49002001F0B6FADFE71A49F9E71A4929
:10163000F7E71A49F5E71A49F3E71A49F1E71A49B2
:10164000EFE71A49EDE71A49EBE71A49E9E71A49C2
:10165000E7E71A49E5E71A49E3E71A49E1E71A49D2
:10166000DFE722001949002001F0A7FCBDE72000B8
:10167000174901F08FFABAE774000020E92700004B
:1016800048530000640000204D2500005653000020
:10169000625300008D530000BE530000EE53000063
:1016A0001E5400004B54000078540000A454000065
:1016B000D2540000FE5400002B5500005755000086
:1016C00083550000B0550000DC55000008560000AE
:1016D0005A56000003003038092805D91A00613A2B
:1016E000052A02D8573B180070471A00413A0020DB
:1016F000052AF9D8373BF6E770B501F066FA040021
:1017000001F063FAFF26050020003040FFF7E2FFFA
:10171000040028003040FFF7DDFF24012018C0B28C
:1017200070BD70B501F051FA060001F04EFA0500E7
:1017300001F04BFA040001F048FAFF22FA23642179
:1017400016401540303E14409B00303D4D437343DE
:101750005A39303C4C435B1910401B19303818186B
:1017600070BD000070B50C00160088B00CAA15788A
:1017700006A908800A4A05A805700A4D12682D6856
:101780004A6004AA1670019300902300002002957D
:1017900002F0E6FB002800D0022008B070BDC04671
:1017A00074FEFF1F78FEFF1FF7B56A46CB1DDB08EE
:1017B000DB00D31A02AF9D460C000500FFF782FB49
:1017C000FA2300219B0002AE0193009433002A000B
:1017D000080003F055FA0400FFF7A2FB002C00D02C
:1017E0000424BD462000F2BD10B50020014901F0DF
:1017F000D1F910BD8656000010B5094C002021001B
:1018000001F0C8F92100002001F0C4F905490020C9
:1018100001F0C0F90449002001F0BCF910BDC04638
:10182000B2560000E256000013570000F0B5B9B000
:1018300025AC072200212000FEF74AFFFA4A0127C3
:101840002C92032215AB2F9317AB309319AB329325
:101850001DAB34931FAB359321AB369323AB1BAE3B
:1018600011A9002037932CAB1A712E911493277075
:101870003396319401F092FE380001F08FFE802102
:10188000EA4B0902196001F0CFFC002300971A000F
:101890001900180001F0A0F9E549002001F07AF9DB
:1018A000C82001F0A2FCE349002001F073F9C82030
:1018B00001F09BFCE049002001F06CF9C82001F028
:1018C00094FC3B00DD4A0221DD4801F0D1FC3900E7
:1018D000380001F0D9FC002003F000F88C2100252D
:1018E000D84B2800299308AB5B181D80023108AB48
:1018F0005B1829A91D702A9703F01CF83A002900EB
:1019000011A8FEF7E5FE4820259B08A91993A28897
:1019100009180A80A279023008A909180A7003225E
:10192000063808A909180A701B93A28808A9B28072
:10193000A2790A38B271052232701593A288022664
:101940000A87A27909180A70342108AA5218167059
:101950001793A288063008A909180A80A27980196D
:1019600008A909180A700422063808A909180A707B
:101970001D93A2881C3008A909180A80A279801931
:1019800008A909180A700822063808A909180A7057
:101990001F93A2880C3008A909180A80A27980191F
:1019A00008A909180A700921063808AA1218117026
:1019B0002193A3880C3008AA12181380A3798019E8
:1019C00008AA121813700A23063808AA12181370EE
:1019D0006C2208AB9B181D7014AA3B002FA801F0C5
:1019E0003DFE2900300000F009FD9749974802F0BC
:1019F0004FF8FFF7E5FA0820FF3002F063F8C8203F
:101A000001F0F3FB0820FF3002F06AF8C82001F073
:101A1000ECFB0820FF3002F055F8C82001F0E5FB90
:101A20000820FF3002F05CF8C82001F0DEFB08203F
:101A3000FF3002F047F8C82001F0D7FB0820FF3044
:101A400002F04EF81D20824900F0BAFE4020814984
:101A500000F072FDFFF71CFC80231B0209932B0092
:101A60002F0008950B9503330A937B49002001F062
:101A700091F87A4C206801F0B8FB7949002001F018
:101A800089F8206801F0B1FB3B00089A75490020F5
:101A900001F093FA206801F0A8FB734D734E74496E
:101AA0002A680998336809680190009100207149FB
:101AB00001F083FA206801F098FB6F4B6F49704A80
:101AC0000020D2584B69096800916E4901F075FAFF
:101AD000206801F08AFB6C4900200A784B788979EC
:101AE000D2B2DBB20091694901F067FA206801F0D7
:101AF0007CFB654B66491A7A1B7E0978D2B2DBB251
:101B000000910020634901F058FA206801F06DFB54
:101B1000614B62491A785B780969D2B2DBB20091F5
:101B200000205F4901F049FA206801F05EFB5D4B3F
:101B300053489A7851495C4BD2B2C3584968002047
:101B400000915A4901F039FA206801F04EFB584BD8
:101B500058491A6811AB1B78002001F02EFA206852
:101B600001F043FB5449002001F014F8206801F013
:101B70003CFB5249002001F00DF8206801F035FBD4
:101B80004F49002001F006F8206801F02EFB4D4976
:101B9000002000F0FFFF206801F027FB4A490020E9
:101BA00000F0F8FF206801F020FB4849002000F019
:101BB000F1FF206801F019FB4549002000F0EAFF21
:101BC000206801F012FB4349002000F0E3FF206889
:101BD00001F00BFB4049002000F0DCFF206801F021
:101BE00004FB3E49002000F0D5FF206801F0FDFA1B
:101BF0003A000A9B3A49002001F0DFF9206801F021
:101C0000F4FA3849002000F0C5FF206801F0EDFA31
:101C10003549002000F0BEFF206801F0E6FA3349A4
:101C2000002000F0B7FF63E0890E0000C002002032
:101C300045570000605700006657000064FEFF1F14
:101C400094FFFF1FE0070100A4FEFF1F94FEFF1F8B
:101C500074000020640000206D5700007CFEFF1F10
:101C600091570000C357000074FEFF1F84FEFF1F42
:101C70008CFEFF1FF75700003C10000000D003400F
:101C8000007004402F5800000040064065580000D6
:101C9000005006409458000000E0074000ED00E0CE
:101CA000C458000000D0074034100000FE58000067
:101CB0008400002036590000645900006E5900006D
:101CC0008B590000A7590000C3590000E0590000DB
:101CD000075A0000265A0000455A0000705A0000BA
:101CE000935A0000C25A0000DE5A0000025B000056
:101CF000206801F07AFAD949002000F04BFF2068F3
:101D000001F073FAD649002000F044FF206801F08A
:101D10006CFAD449002000F03DFF206801F065FA1C
:101D2000D149002000F036FF206801F05EFACF496B
:101D3000002000F02FFF206801F057FACC49002066
:101D400000F028FF206801F050FACA49002000F096
:101D500021FF206801F049FAC749002000F01AFF6E
:101D6000206801F042FAC549002000F013FF206806
:101D700001F03BFAC249002000F00CFF206801F09E
:101D800034FAC049002000F005FF206801F02DFA68
:101D900000F01BFFFF2302000C901A407A2A07DC98
:101DA000602A0BDC0A2A00D1D1E22F2A00D1CAE234
:101DB000B549CAE0B54B0B93012355E610006138D5
:101DC0001928F5D8FEF7BCFE1A00B200C500D500F0
:101DD000E000EA002B0136013E01BE0118021E029E
:101DE0001E02600265026902F4FF6F02720251FE78
:101DF0007A02F4FFF4FF8802F4FF9502A449002060
:101E000000F0C8FEA349002000F0C4FE206801F0E5
:101E1000ECF9A149002000F0BDFEA049002000F02F
:101E2000B9FE9F49002000F0B5FE206801F0DDF901
:101E30009C49002000F0AEFE206801F0D6F99A49D6
:101E4000002000F0A7FE206801F0CFF9974900209C
:101E500000F0A0FE206801F0C8F99549002000F0CC
:101E600099FE206801F0C1F99249002000F092FE2D
:101E7000206801F0BAF99049002000F08BFE20683C
:101E800001F0B3F98D49002000F084FE206801F0D4
:101E9000ACF98B49002000F07DFE206801F0A5F927
:101EA0008849002000F076FE206801F09EF98649FE
:101EB000002000F06FFE206801F097F983490020B0
:101EC00000F068FE206801F090F98149002000F0E0
:101ED00061FE206801F089F97E49002000F05AFE79
:101EE000206801F082F97C49002000F053FE206850
:101EF00001F07BF97949002000F04CFE206801F0E8
:101F000074F97749002000F045FE206801F06DF972
:101F100000F05BFEFF220240352A00D14AE76C2A1E
:101F200000D045E76F4B0B9314239DE56E490020CD
:101F300000F030FEFFF7F5FB28602A686B4B9A42F1
:101F400001D16B4B2B602A686A49002001F035F8FB
:101F50008BE56949002000F01DFEFFF7E2FB3060D1
:101F60003268624B9A4201D1614B336032686349F7
:101F7000EBE76349002000F00DFEFFF7D2FB614B59
:101F8000614918601A68E0E76049002000F002FE2D
:101F9000FFF7B2FB5E4907000200D6E75D4900206B
:101FA00000F0F8FDFFF7A8FB5B4D020029000400DC
:101FB000002001F002F85949002000F0EBFDFFF786
:101FC0009BFB12AE020029003070002000F0F5FFEC
:101FD0005349992C00D187E1524B08981B6827ADD3
:101FE00028932C80FFF734F924226B469B1818782D
:101FF000FEF7B6FF4C4B13AA1B6817700293012320
:10200000290000200193009601F0AAFF021E03D0D0
:102010000020464900F0D1FFFEF7B8FF25E544490E
:10202000002000F0B7FDFFF77CFB83B21A004149A6
:1020300008938AE74049002000F0ACFD0120FFF73B
:10204000DBFB12E53D49002000F0A4FDFFF769FB32
:1020500083B21A003A49099377E7C046265B00002D
:10206000405B00005B5B0000795B0000965B00005A
:10207000B55B0000D45B0000EE5B0000195C000063
:10208000395C0000665C0000F9600000740000200C
:10209000795C0000845C0000C25C0000045D00000C
:1020A000455D0000855D0000B55D0000F25D00004B
:1020B000315E00006F5E0000AC5E0000EA5E000072
:1020C000275F0000665F0000A35F0000CC5F000098
:1020D00009600000406000007D600000BA60000000
:1020E000E560000064000020156100000F2700007B
:1020F000102700004361000063610000916100004F
:10210000AB6100008CFEFF1FDA610000F56100008A
:102110002B62000042620000756200008B620000CA
:10212000B462000074FEFF1F78FEFF1FDA62000039
:10213000FB62000027630000496300007763000032
:10214000B36300003A008349002000F036FF00F03E
:102150003CFD81490C90002000F01CFD00F035FD95
:102160007E490D90002000F015FD00F02EFD7C4909
:102170000E90002000F00EFDFFF7D3FA794905001C
:10218000002000F007FDFFF7CCFA77490600002099
:1021900000F000FDFFF7C5FA74490400002000F0CC
:1021A000F9FCFFF7A9FA099B0A9A0F90019370496D
:1021B0003B0002950096002000F0FFFE6A462421B5
:1021C0000C9B5218303B0F99581E83410E98127881
:1021D0000691089930380491411E884101900D986C
:1021E000A4B23038009039000A98DBB20594039607
:1021F0000295FFF7BDF938E45E49002000F0CAFC03
:10220000FFF765F85C49002000F0C4FC5B49002042
:1022100000F0C0FCFFF770FA27AE5949307000207B
:1022200000F0B8FCFFF77DFA30226B469B181D7852
:1022300004003378089A6C2D15D10192099A5149FE
:1022400000920200002000F0B8FE0025A54200DB4D
:102250000BE427AB1A7800230121FF200093FFF73E
:1022600081FA0135F2E7009247490200002000F0B0
:10227000A4FE0025A54201DBFFF7F7FB012127A8FB
:10228000FFF792FA0135F5E70898FEF7E1FFFFF74F
:10229000ECFBFEF7FDFFFFF7E8FB0021022000F05A
:1022A000ADF8FFF7E2FB00210820F8E732490020F3
:1022B00000F070FCFFF798FAFFF7D7FB0B9B334950
:1022C000002B11D03249002000F064FCFFF714FA13
:1022D0000B9B1870FFF7C9FB2E49002000F05AFC39
:1022E0002D4800F082FF2D49002000F053FCFFF73D
:1022F000BCFB2B49002000F04DFC24226B469B18B0
:102300001878FEF72DFE2749002000F043FC00F06E
:102310005CFC25490500002000F03CFCFFF701FAB9
:1023200086B232002149002000F047FE206800F00C
:102330005CFFE9B268394D42694132000120099BD6
:10234000C9B2FEF7CFFF00F07BF9FFF78EFB18490B
:10235000CAE7C046D06300000A640000336400008E
:102360004C6400008B640000B7640000EF64000060
:10237000206500005D650000496300008065000085
:102380009F650000BF650000116600004F660000F9
:102390008D660000C566000010270000E46600009E
:1023A000EE660000076700003067000078670000F5
:1023B000B06700001FB5040001A9002002F0E2FA96
:1023C000694601A802F01CFA009B68461C1901A985
:1023D000009402F09DF9012201A9002002F0FEFA0A
:1023E0001FBD00000022034B1A608022024B120620
:1023F000DA67704700A01C5804E100E070B50D00DA
:102400000A2408281CD8FEF791FB051D2A3F5467B3
:102410006C6F5C0001F0B8FA0524012810D0FFF7BA
:10242000E1FF2800FFF7C6FF0021080001F038F99E
:1024300001210400002000F027FF002C22D10024FD
:10244000200070BD01F0A0FA06240128F8D0FFF7A3
:10245000C9FF2800FFF7AEFF00210120E6E701F0E9
:1024600093FA08240128EBD000F08CFF002803D059
:102470000121002000F008FF0021022001F010F9E6
:102480000028DCD00924DBE701F07EFA07240028CD
:10249000D6D0FFF7A7FF2800FFF78CFF002103200D
:1024A00001F0FEF8040001F06FFA01210028C4D108
:1024B000C1E7FFF797FF2800FFF77CFF002104200A
:1024C000EEE70021082001F0EBF8041EDAD101212B
:1024D000080000F0D9FEB3E70021052001F0E0F884
:1024E000D0E700210620F9E700210720F6E70000E9
:1024F00030B502250D4B89B01B7806AC23800C4B00
:1025000049BA1B6804AA079305AB198009491070E2
:10251000096800200291009321000123019501F038
:102520001FFD002800D0280009B030BD6400002045
:1025300074FEFF1F78FEFF1F08707047A02110B5C2
:102540000020FF31FFF7D4FF10BD000000B589B0B7
:10255000030068460A000F49097801750320052B1E
:1025600016D80D49087806A908800C48006848600C
:10257000684603750A4B00201B6801920293094BC1
:1025800005AA0093012301F0F8FC002800D00220E6
:1025900009B000BDE26700006400002074FEFF1F68
:1025A00078FEFF1F6C000020A02170B5FF310020D5
:1025B000FFF79EFF9A210520FF31FFF799FF0028C2
:1025C00003D00020154900F0F8FC02210800FFF7B5
:1025D000BDFF134D022101202B7A6B7AFFF7B6FF66
:1025E000022104202B7A6B7AFFF7B0FF022103202F
:1025F0002C7A6E7AFFF7AAFFE4B22B7AF6B26B7AE6
:10260000002804D00020074900F0C4FA70BD24025D
:102610003443054922B200F0D0FCF7E7E46700003C
:1026200064000020F167000099520000704700002C
:1026300010B5024B1B68984710BDC04690FEFF1FA7
:1026400073B501223B49002000F0B7FC08220021AD
:102650006846FEF73DF801256B466A461D71042366
:102660003549937100202A0000F0A7FC6946334ADF
:10267000002001F00DFE022204003149002000F08C
:102680009CFC002C05D02A002E49002000F095FC6F
:1026900009E020002C4901F09DFE061E05D0200017
:1026A0002A4900F08AFC002076BD294900F085FC0B
:1026B0003000284901F01EFF041E02D030002649D8
:1026C000EFE7264900F079FC200001F06BFE0322C1
:1026D00006002349200000F070FC002E02D02A00E2
:1026E0002049D2E7300001F0CDFE80250200040031
:1026F0001D49300000F061FCED000020AC4206D91D
:1027000001F05CFE0122051E05D01849BDE701F06D
:10271000B9FE0400F1E7164900F04FFC012215490B
:10272000280000F04AFC22002800134900F045FC74
:102730000120B9E7F86700000B680000E400002002
:102740001E6800003168000040420F004C68000025
:102750006368000031260000766800008868000089
:102760009C680000AF680000C8680000E2680000D4
:10277000FB6800000C690000995200000B0000B5D6
:102780000C4A89B0127806A90A800B4A12684A607E
:1027900005AA107004A80370084B1B6800900293F0
:1027A00001230020019301F0DBFB002800D0022070
:1027B00009B000BD7400002074FEFF1F78FEFF1FEB
:1027C000C223FF3308704B60704770B50D000100E5
:1027D0000920FFF7D3FF290004002A20FFF7CEFFCE
:1027E0002043C0B270BD000000B589B00300684648
:1027F0000A00144909780175182B1BD8D91F03202A
:1028000001291CD91049087806A908800F480068DA
:102810004860684603750E4B00201B6801920293C6
:102820000C4B05AA0093012301F0A7FB002806D05A
:10283000022004E019001D3903201429E2D909B04F
:1028400000BDC046E26700007400002074FEFF1F58
:1028500078FEFF1F7C00002070B5022104000120DB
:10286000FFF7C2FF304D2A7A6B7AD2B2DBB2002872
:1028700020D000202D4900F08DF902210320FFF720
:10288000B3FF2A7A6B7AD2B2DBB2002825D00020BF
:10289000264900F07FF902210520FFF7A5FF2A7ADB
:1028A0006B7AD2B2DBB200282AD000201F4900F098
:1028B00071F970BD002C03D01D4900F07EFBDCE7F0
:1028C0009B0892011A4380239B015A40194B200018
:1028D0001949D21800F071FBCFE7002C03D014493E
:1028E00000F06BFBD7E79B0892011A4380239B0102
:1028F0005A40104B20001049D21800F05EFBCAE786
:10290000002C03D00A4900F058FBD2E79B08920143
:102910001A4380239B015A40064B20000649D218D7
:1029200000F04BFBC5E7C04674000020F1670000D3
:102930001D69000000E0FFFF8B5200000369C268C0
:10294000934201D880681B18013B981A7047F7B56D
:102950008368C46801931F1B436805000E001819A3
:10296000A418974207D83A00FDF75EFE019B6868FD
:10297000E41A2200F119FDF757FEEC60F7BD0023C1
:10298000F7B506001700C568019100933369B46874
:102990009D421FD2013B5B1B641BBC4200D93C0023
:1029A0009C4200D91C007368220058190199FDF758
:1029B0003BFE009B2D191B190093019B3F1B1B190C
:1029C0000193B368AB4200D10025F560002FDDD143
:1029D0000098FEBD1B19DDE7022310B50F4C104A0D
:1029E000236163610F4BA261E361C823A2640E4AB5
:1029F0002362E26400230422A3626362E362A365AC
:102A00006365E36522650949E01DFDF783FF20004A
:102A10000749FDF77FFF2023A37110BDEC000020C4
:102A20002D69000068010020640100203669000063
:102A30003A690000F0B5274B85B01B780E00029074
:102A40000192002B01D1FFF7C7FF1823029A00253E
:102A50005343204AD3185A6D9C6D0392944219D95E
:102A60001B6D019D1B1B9D4200D91D001827029B59
:102A700030005F43174B2A00DF19FB6C76191919D8
:102A8000FDF7D2FD019B64195B1B01933B6DA342D3
:102A900000D10024039B019F1B1B9F4200D91F00F4
:102AA000002F0CD01823029A30005343094AED1925
:102AB000D318D96C3A000919FDF7B6FDE419002DB9
:102AC00005D01823029A03485343C0188465280090
:102AD00005B0F0BDEC00002010B50B00EFF3108442
:102AE000012181F310881900FFF7A4FF84F31088F7
:102AF00010BD0000F8B516001822451C554342438E
:102B0000164B0F005D199B18DC6A012C10D0022CAB
:102B10001BD0002C1FD12800FFF710FF864205D8DC
:102B2000320039002800FFF712FF34002000F8BD02
:102B30002800FFF703FF3400864200D9040022007A
:102B400039002800FFF703FFF0E732002800FFF705
:102B500016FF0400EAE70024E8E7C046EC00002086
:102B6000F8B50B4B04001B780E001700002B01D1A9
:102B7000FFF732FFEFF31085012181F310883A004F
:102B800031002000FFF7B6FF85F31088F8BDC0467E
:102B9000EC00002070B5050008000C00FDF7C2FE37
:102BA000210002002800FFF7DBFF70BD13B56B4664
:102BB000DC1D012221000020FFF78EFF012801D13A
:102BC000207816BD01204042FBE710B5FFF7EEFF6D
:102BD0000028FBDB10BD0000F7B5164C01932378ED
:102BE00005000F001600002B01D1FFF7F5FE236949
:102BF000AB421CD9EFF31082012181F31088002D24
:102C00000CD01823691C59436B43675061184E6000
:102C10000199E3181962002199625962182045430D
:102C2000089B6419E36282F310880020FEBD012036
:102C30004042FBE7EC000020826810B504004068C9
:102C4000531C834205D820688154A360E368013394
:102C5000E360A26863689A4209D121682069FFF79E
:102C60007FFFA368984203D001235B42E36010BD5D
:102C70000023A360FBE70000F0B505001700080083
:102C8000012685B00A9C02910093B84219D2009A9D
:102C90000196964200D2019201230B9A1A400392A8
:102CA0000B9A1A4202D1002C10D10024EB680126A5
:102CB000002B4BDB009B012B1FD9013B00937E4374
:102CC000F8E73900FDF746FF0136DEE70B9B2026CB
:102CD0009B0704D5009B1036002B00D0103E019BB3
:102CE000A342E3D231002800FFF7A6FFEB68013CC6
:102CF000002BDBDB002CF2D1D7E731000298FDF787
:102D000029FF8742DBD902983100FDF7A9FF114B5B
:102D10000291195C2800FFF78FFFEB68002B05DBA1
:102D200039003000FDF716FFBE4211D2039B002B85
:102D30000CD0002C0AD0019BA34207D220212800EE
:102D4000FFF77AFFEB68013C002BF2DA05B0F0BD2B
:102D50000600D8E741690000F0B59FB00EAB0993BB
:102D600040230A9300230E00150007900B930D904B
:102D70000C9331780136002907D10C9B0393002B6B
:102D800000DD09E10C981FB0F0BD252900D0B3E0AB
:102D900000270822042006E0302B0DD1022300E09A
:102DA00001231F430E003378711C2D2BF8D0F3D86C
:102DB000232B10D02B2B0CD000240A213378721C2B
:102DC00018003038092808D84C43303C16001C192C
:102DD000F4E70743E6E71743E4E7002103912E2BCE
:102DE0000ED116000A203278711C1300303B092BDB
:102DF00006D8039B0E004343303BD3180393F2E7FE
:102E0000042331780A0001369A43682A01D13178C7
:102E1000F8E7782909D86F290BD8632967D017D824
:102E2000252969D0582900D195E00C9B002BA0DA08
:102E3000A3E7703908000829F7D8FDF781FEA5003F
:102E4000F6FFF6FF9400F6FF8300F6FFF6FF8C0016
:102E50006429EAD12B681A1D1B682A60DA179818B2
:102E60000493012350400593092849DC039B059AEC
:102E70000693934200D20692002C05D0049B002BAF
:102E800001DB7B0700D5013C02231F4202D0039BDC
:102E9000002B05D001231F4202D1002C36D1002483
:102EA0000C9B0593002BC0DB049B002B3ADA2D21F1
:102EB0005B42049309A8FFF7BFFE0C9B002BB4DB19
:102EC00003233B40022B05D1039B002B02D1002C96
:102ED0002CD100240C9B0593002BA6DB0A22039B1C
:102EE00004990197009409A8FFF7C6FE9DE72B6897
:102EF00019681A1D2A60C9B209A8FFF79DFE94E758
:102F00000A21FDF7B1FE059B0133ACE7069BA34206
:102F1000C6D2202109A8FFF78FFE0C9B013C002B95
:102F2000BBDABDE77B07C8D52B21C3E7069BA342CD
:102F3000D0D2302109A8FFF77FFE0C9B013C002B6B
:102F4000C5DAC7E70A22296801970B1D2B60039B8E
:102F500000940968C7E7296801970B1D2B60039B44
:102F600000941022F5E72B681A1D2A601C6821784E
:102F70000134002900D158E709A8FFF75DFE0C9B3A
:102F80000393002BF3DA50E729680B1D2B60002315
:102F9000019308330093E4E70B9A002A03D00798C3
:102FA0000EA9FFF7DDFD0C9B03930B9B0493049A82
:102FB000039B944663440C93E4E60EB403B503AB61
:102FC00002CB01AA0193FFF7C7FE02B008BC03B011
:102FD000184710B5002000F091FD10BD10B500207D
:102FE00001F05AFD10BD0000082310B5164A917873
:102FF000194202D091780B4393708821002222203D
:10300000124B49015A501249124C08708020124943
:103010004002585019681148014019601959104868
:103020000840C02189040143195180210D4B1A72B7
:1030300019767F391A7059700B490A700C329979D8
:103040001142FCD110BDC04600D0074000700440C2
:1030500000E007400410000044100000FFFFF3FFF1
:10306000FFFFFFF0004006400050064012491348A1
:1030700010B5814205D00022114B9B089B009A425B
:103080000FD1104B104A9960002310491048521A72
:103090009A420AD100210F4B0F4AD21A013A08D2A4
:1030A00010BD84588C500432E9E7CC5CC454013321
:1030B000EEE719700133F1E70000000000000000A6
:1030C0000000000000ED00E05C6C0000B06A000051
:1030D00000FEFF1FACFFFF1FD00200200300417065
:1030E0000020187058609860704710B5437804004D
:1030F0000120FF2B08D000F079FA63780133DBB2AE
:10310000637000F067FA002010BD0020704770B5B2
:1031100004000D0000F06AFAE1682943E16000F064
:1031200059FA002070BD000000220A4B9A641A0070
:1031300040329A631A0030329A621A0020329A6141
:103140001A0010329A60044A1360044B9B60DB60E3
:103150007047C04634020020300200208402002064
:103160000022024B1A60186880B270470C007C5035
:1031700070B5437804000D00002B0BD0002500F043
:1031800035FA6378013BDBB26370257000F022FAF8
:10319000280070BD02200029FBD02378002B17D017
:1031A000FFF7DEFF6368A268834204D8C01A824238
:1031B00006D30320EDE7C01A80235B02C018F6E7B0
:1031C00000F014FA0023237000F004FA0220E0E774
:1031D0004B1CEED000F00AFA0123237000F0FAF93C
:1031E000FFF7BEFFA5606060E3E770B50500FFF77D
:1031F000B7FF802604007602FFF7B2FF0300844287
:1032000003D8031B9D42F7D270BD301BC318F9E7EA
:1032100010B5012801D100F0E9F910BD10B5012861
:1032200001D100F0D7F910BD10B5FFF77DFF0123E4
:103230000020084A08491360084A094C10600860D9
:1032400004212160074C216007490B600749086091
:10325000136010BD388004500000845000000450FA
:10326000000004510400045104000C5000000453F9
:1032700010B5044C206021710020A2602373637399
:1032800010BDC046940200200422F0B587B005AC02
:103290003B4E01900291207061703379009283421D
:1032A00026D90022337B1500737301230092A3708B
:1032B0000393334F3B7BAB421DD8009B002B02D0C6
:1032C000029B012B48D10120FFF7A2FF0C20019B9C
:1032D000002558433368181800F0C2F8019B0120FC
:1032E00073710226FFF79AFFA6703B7BAB421AD898
:1032F000009807B0F0BDBA68AB009B58002B0FD008
:103300001A7903990A420BD020001A6899689047ED
:10331000002805D0029B7D73002B1BD00523009352
:103320000135EDB2C5E7BA68AB009B58002B0ED053
:103330001A7932420BD020001A6899689047002809
:1033400005D0029B7D73002B17D006230093013517
:10335000EDB2CAE7052300930023A370013DEDB24F
:10336000FF2DC5D0064BAA009B68D358002BF5D083
:1033700020001A6899689047F0E706230093B7E7A2
:1033800094020020014B58797047C04694020020F7
:1033900013B50400002021780190022920D00329D0
:1033A00022D0012925D1227901AB144801F03CF942
:1033B000002814D1A3795A1E9341114ADB011370DE
:1033C00063785A1E93410F4A5B001370A2780E4B2C
:1033D0001A70E2780D4B1A7062790D4B1A7016BD97
:1033E0000100227901ABE0E701A9044801F05EF990
:1033F000DEE701A9014801F0FBF8D9E700400640EB
:103400001840865300408650004006500140065048
:1034100018401650074A43099B009B18F822C00524
:1034200012051040184380235B05184300230360F6
:103430007047C04628800440F821084A43099B0091
:103440009B180905C2050A40134380225205134305
:103450001F2210401E3A82401A60704728800440A4
:10346000072373B5009300230400104D1A000121B7
:10347000280001F003FB2000FFF78AFF637A280091
:1034800000930023217A1A0001F0F8FAE379084A40
:103490009B041360074BA17A1D68280001F022F9F4
:1034A0002800E17A01F02DF9002076BD007004407B
:1034B00000700C59A869000010B5054801F058F8D3
:1034C000044B1968C9B20131FDF744FB10BDC04679
:1034D0000040064044801C5E10B5FFF7EDFF10BDB4
:1034E00010B5054801F044F8044B1968C9B2013120
:1034F000FDF730FB10BDC046004006404480145824
:1035000010B5FFF7EDFF10BD0B4B1B68DBB2022BB4
:103510000CD0032B0DD00020834206D1074A10683F
:1035200080221202904200D018007047044B1868A5
:10353000FBE7FA208000F8E700700C59C002002079
:10354000C402002010B5FFF7DFFF10BD054B10B51A
:10355000186801F0CEF80023984201D0024B1B6896
:10356000180010BDA8690000C0020020002010B59E
:10357000032907D80800FDF7D9FA020C0609064806
:1035800000F0E0FF10BDFFF7BFFFFBE7FFF7DEFF36
:10359000F8E7FA208000F5E70040064010B5024B3E
:1035A000185CFFF749FF10BD5169000010B5762087
:1035B000FFF742FF10BD10B57620FFF72BFF10BDBF
:1035C00010B56620FFF738FF10BD10B56620FFF775
:1035D00021FF10BD044A1368002B04D0013B136087
:1035E000002B00D162B67047A402002072B6024AD6
:1035F0001368013313607047A402002010B5064C15
:10360000064801F0CDFC042801D1002010BD013C8A
:10361000002CF5D10320F9E7EA03000000E00740A1
:1036200010B50B4B0B490A78002A07D0084C0A4802
:1036300001F0B6FC012806D1002003E0013B002B7D
:10364000F1D1032010BD013C002CF0D1F9E7C046B8
:10365000EA03000002D0075100E00740F7B5070079
:103660000E00150001200193002F15D0002913D062
:10367000FFF7CEFD094C102200212000FDF728F8AD
:1036800027602671002D03D0019BA560237363730F
:103690000120FFF7C3FD0020FEBDC046A8020020A8
:1036A000F0B5B14C8DB002900391237B0120637380
:1036B000FFF7AEFD2379029A934206D80120FFF767
:1036C000ADFD022738000DB0F0BD029A23689200CC
:1036D000D35809AC1D780193039B2A002372029BE7
:1036E0002370019B636002239A430492012A01D054
:1036F000052D0AD101219D4801F0A6FB002807D124
:103700000120FFF78BFD0127DCE70321072DF2D80D
:103710000123002763723C000593934E337BA34241
:103720002AD80120FFF77AFD914800F045FF049B5D
:10373000012B4AD10138022835D9039B012B00D037
:103740000DE106270120FFF763FD0023012609ADE7
:103750006B72013CE4B2FF2C00D1AFE0824BA200BF
:103760009B68D358002BF4D01A793242F1D028004C
:103770001A6899689047ECE7B268A3009B58002B41
:103780000ED01A7905990A420AD01A68996809A8D0
:103790009047002804D0039B04277473012BC0D1E9
:1037A0000134E4B2B9E7FFF7ABFE724B9842C4D8DC
:1037B000FFF782FE704EB042BFD8FFF791FEB042D5
:1037C000BBD8FFF789FEB042B7D8039B012B00D0CE
:1037D000C1E00A2D00D9BCE02800FDF7A7F9060AD0
:1037E0000D1E879A7B822F737800002207AB1A7018
:1037F0002DE0032207ABFAE75C4801F0D1FB01287A
:1038000008D00021594801F02FFBFFF709FF071EE0
:1038100000D057E7012207ABE9E7544801F0C0FBAD
:10382000042808D00221514801F01EFBFFF7E6FEF4
:10383000071E00D046E7042207ABD8E7072207ABF4
:103840001A80019AD2789A70019A1279DA702B0054
:10385000083B022B06D8019B06AA5B799372019B59
:103860009B79D372019B5B78002B0AD0012D08D97C
:10387000019B02229978414B00294DD019690A43D6
:103880001A613A4807A901F013FB002800D003276A
:10389000002D45D1FFF7C4FE071E00D012E7002718
:1038A0000120FFF7B5FC029B2F4D0024AB730223D0
:1038B00009AE737201932B7BA34236D80120FFF728
:1038C000ADFCFFE6082207ABFF321A80BFE72C4AA7
:1038D00007ABFAE7022207AB1A700222FF329A8086
:1038E000B5E7022207AB1A70264AF8E7022207ABB7
:1038F0001A70013A1D489A8001F052FB0128A6D0A7
:1039000000211A4801F0B0FAFFF78AFE071E9ED088
:10391000D8E6052207AB6AE7196991431961B0E758
:10392000012DBDD1FFF76AFEB6E7AA68A3009B5838
:10393000002B0BD01A7901990A4207D030001A687F
:1039400099689047002801D005276C730134E4B2D0
:10395000B1E70327B6E6002F00D13AE7F2E6002FE1
:1039600000D0EFE6EDE6C046A802002000E00740E8
:103970000040064040420F0080841E0000ED00E041
:10398000070300000102000010B5064801F008FB23
:1039900003000020012B03D00B30042B00D10A3888
:1039A00010BDC04600E00740F7B5FF2403681D4A7C
:1039B0001E0A26401C40B3009F581B4A05009B5816
:1039C00030000193FFF7EAFD00222100380001F0EA
:1039D000EFFA019BA400E41884232A795B052343B2
:1039E00052001A6080236A795B0523431A60902392
:1039F000AA795B05234312011A600C4B1C43EB7937
:103A00001B042360EB79002B0AD0094B9B57002B3A
:103A100006D01F2213401E3A9A401300054A136035
:103A2000F7BDC046AC690000B4690000000018187A
:103A3000BC69000000E100E0F8B5FF240500036860
:103A4000114A180A20401C4083009F580F4A9E5874
:103A5000FFF7A4FD38002100012201F0A9FA6A68ED
:103A60002100380001F0B3FA88232A7AA400A419AF
:103A70005B05234392001A6098235B051C436B7A15
:103A80009B012360F8BDC046AC690000B46900002A
:103A900070B50C00002807D1002C0FD170BD0500B7
:103AA0000835FFF781FF280003680133F7D1F3E7FA
:103AB000250020000C35FFF7BFFF2C0023680133E1
:103AC000F6D1EBE7FF22030A044913409B00595843
:103AD0000123104083404B607047C046AC69000032
:103AE000FF22030A044913409B0059580123104048
:103AF00083408B607047C046AC690000084B820071
:103B0000D258942310B502325B0513431B78002B67
:103B100002D000F03FFA10BD00F092FAFBE7C04679
:103B200054690000020080230C325B0513431A78AD
:103B3000002AFCD00171704770B50D00084B800061
:103B4000C458200029001830FFF712FB0328F8D0D2
:103B5000002801D004232374207CC0B270BDC0466D
:103B6000B802002010B5104B8000C458E37C002B35
:103B700005D0237C052B02D0237C042B0BD10B4BCF
:103B800018589823821C5B05134300221A7001F019
:103B90008DFA01236374A37C002B03D0200018301E
:103BA000FFF7A3FA10BDC046B80200205469000018
:103BB000F0B51700002289B005930EAB1B78050005
:103BC0000393830032481E5832481C5807AB1A80B2
:103BD000A37C880A04930223FF3363828B0A019338
:103BE000CBB21E2801D11A000B0A5B00D8B2019B90
:103BF00000211E2B05D08F4203D1012303995B1AAC
:103C000059B20143CBB202930299019807AB1970E4
:103C100001211E2801D15A704918A3603000E160CB
:103C20000299FFF77FFF28000F99FFF785FF237C9C
:103C3000002B0CD1002F0AD0059BA760E360300059
:103C40003978FFF76FFF28000F99FFF775FF237C86
:103C5000039A1A4314D1019B1E2B01D0002F0FD0C1
:103C6000002301273000A360E76001F00DFA0299FC
:103C700030003943FFF756FF28000F99FFF75CFF2C
:103C80000023207CE374049BC0B2A37409B0F0BD90
:103C900054690000B8020020F7B583000193184B67
:103CA0008200D75805000C000126002F26D1154BA5
:103CB0003900D358200024220193FCF709FD20008D
:103CC00039001830FFF70AFA2800FFF779FC01984D
:103CD00001F085F90A4BAA00D4501F220A4B5B5D04
:103CE000134032009A40094B1A609C22019B5205F6
:103CF00002331343802266743E001A703000FEBD0A
:103D0000B8020020546900005869000000E100E09A
:103D1000F7B50E4E8500AB59002701930C4B0400FC
:103D2000EA589C2302325B0513431F70FFF74DFCDA
:103D3000084B01981A5D1F231A401E3B9340064A08
:103D40001830D367FFF7E1F9AF51F7BDB802002093
:103D5000546900005869000004E100E00A4B80004B
:103D600070B5C5584B686A690C0093420BD0074B7D
:103D7000C658FFF7B5FB002301006268300001F070
:103D80003DF963686B6170BDB802002054690000A2
:103D9000F0B587B004920593334A0FAB1E788300C9
:103DA0009C580391627C0700002A03D103202074F1
:103DB00007B0F0BD002E01D11E220E922B4A380012
:103DC000D55800230399E360A360237423606374D0
:103DD000A674FFF7C3FF90231021AA1C5B051343B1
:103DE00019708423E91C5B050B4302211970982389
:103DF0005B05134302934023029A2800137001F0DD
:103E000043F9039B380019880E9B049A0193012300
:103E10000093059BFFF7CCFE0D9B002B17D0237C56
:103E2000002B11D10C9B2800A3600D9BE3600C9B21
:103E30001978FFF777FE002E03D038000E99FFF7B0
:103E40007BFE207CC0B2B3E7237C042BF9D1002396
:103E50000126029A1370EB785B09334202D02800E6
:103E600001F024F96674ECE7B80200205469000000
:103E7000F0B589B0079311AB1B780692364A0293CE
:103E800083009C580591627C0600002A03D1032020
:103E9000207409B0F0BD029A002A01D11E3210929E
:103EA00000272E4A0599D5580E9B300023600F9BA2
:103EB000A7606360029BE760A37427746774FFF7D1
:103EC0004DFF9023AA1C5B051A4310231370842313
:103ED00004925B05EA1C134302221A709823AA1865
:103EE0005B051A43402328001370039201F0CCF8BD
:103EF000059B069A1988109B300001930097079B39
:103F0000FFF756FE237CDAB2BB4215D1049BA91CF5
:103F10001A708C235B050B430F99012900D10822ED
:103F20001A702B79029B002B03D030001099FFF7F9
:103F300003FE207CC0B2ACE7237C042BF9D1012620
:103F4000039B1F70EB785B09334202D0280001F01D
:103F5000ADF86674EDE7C046B80200205469000071
:103F60001FB501240394089C0294079C0194069CAD
:103F70000094FFF70DFF04B010BD1FB5012403949A
:103F8000089C0294079C0194069C0094FFF770FF24
:103F900004B010BD244B70B58400E5588423EA1C9E
:103FA0005B05134302221A709023A9185B050B438B
:103FB0001B78EA78DBB292061DD5942252050A439B
:103FC0001278002A17D0194AA458012B14D1EA7884
:103FD0001A4204D004332374FFF7C4FD0BE0E368F6
:103FE000013BE360002BF7D0A36828005A1CA260B5
:103FF0005978FFF797FD70BD6268013A6260002A48
:1040000006D08C235B05012A0AD000220B4309E06D
:10401000FFF7A8FD23685A1C22602A791A70EAE784
:1040200008220B431A70F5E754690000B80200201B
:10403000C31C84204005184302230370704700000E
:104040000122F0B5904B8100CD5889B0EB1C019353
:10405000EB7890261B091A4005920122EB78760531
:104060009B091A4002923200AB1D1A439446127803
:104070000090D2B20792942252051A431278AF1CD4
:10408000D0B203909820400503431878C0B2069040
:104090007E480C583100394301910978C9B2049126
:1040A000002A35D0079A002A0ED010236246280035
:1040B0001370FFF7BDFF236B002B52D06A4601211E
:1040C0001078626B98474CE0069A002A20D0402274
:1040D00028001A70FFF7ACFF23002C331B78002B4D
:1040E00003D19822520517433B70236B002B04D059
:1040F0006A4680211078626B9847E37D002B04D0DC
:10410000200080211830FFF702F80A23237028E0EE
:104110002800FFF78DFF059B002B24D0EB1C1E43CE
:1041200010233370029B002B10D0EB785B07DA0F63
:10413000002B48DB019B1A70236B002B04D06A46CE
:1041400004211078626B98472B790AE008232370CA
:104150002C342378002B04D198235B051F43029B4A
:104160003B7009B0F0BD029B002BDED1049B012BFC
:1041700054D1EB78049A134230D0019B029A1A7002
:104180002B7923002C331B78002B07D1039B002BAA
:1041900004D198235B051F43039B3B70236B002BCB
:1041A00004D06A4608211078626B9847A37D002BE3
:1041B00004D0200008211830FEF7A9FF0023636017
:1041C000E3602375CDE71023019A1370236B002B56
:1041D00004D06A4602211078626B98476368002B0E
:1041E00050D028008022E3680C3052051978024331
:1041F00010780028FCD029710133E3606368013B2B
:1042000063606368002BACD1E3602375236B002BE4
:10421000A7D06A4610211078626B53E72B79A26809
:10422000DBB2002A2CD02269137023690133236189
:10423000A368013BA360A368002B00D091E7039B18
:10424000002B11D123002C331B78002B04D1982391
:104250005B051F43039B3B70E37D002B04D02000D4
:1042600020211830FEF753FF002363752361236B71
:10427000002B00D175E76A4620211078626B21E798
:10428000072343E7062341E754690000B8020020F2
:10429000F7B50C001600022500295DD0002A5BD07E
:1042A0000B790D7800938B790193012D05D1009B3B
:1042B000002B02D0019B002B5FD00127304B8100E7
:1042C000CB5830490F6080210027490519430F6002
:1042D0008421490519436F000F6067782A493F011F
:1042E00019430F608C21A77849051943FF000F601F
:1042F000882149050F001F43BC466246E778BF008E
:1043000017601F1D39438C460121009A4A406146BF
:1043100092000A601D4A61793A4311601C4A1743B2
:10432000019AD2003A601B4A8700BE5098220027AB
:1043300052051343184A3760125C1F373A401E3F3C
:1043400097403A00E779002F08D040271F60134BB1
:104350001A60002D06D000252800FEBD1F60104BFE
:10436000DA67F6E7FFF702F970602379002BF2D0E5
:10437000A3790133D8407060EEE70325ECE7C0462F
:104380005C6900003880045000000812000008102A
:1043900000009811BC0200206069000000E100E00C
:1043A00004E100E0044B8000C25880235B05134306
:1043B000012200201A6070475C690000044B8000F5
:1043C000C258802300205B05134318607047C04625
:1043D0005C690000F8B5264B8600F45884235B0521
:1043E00023431A680D00D2B20523012A2ED0802360
:1043F0005B0523431B68002B06D09C235B052343EE
:104400001A680623002A21D01A4F1B4BBA5952684A
:104410009A421DD8BB5919485968FCF79BFB0723E2
:10442000A84213D8BB5915485968FCF793FB010003
:104430002800FCF78FFB802208235202904205D20D
:1044400023000F4C08331C43206000231800F8BDE4
:10445000BB590A495868FCF77DFB80224543082375
:1044600052029542F2D2E418054B1C432560ECE75A
:104470005C690000BC0200203F420F0040420F0078
:10448000000078108421164A83009A584905114388
:1044900009680520C9B270B5012913D00C3211008A
:1044A000104A11480A4300211D58104C6D681160D4
:1044B000A54208D814681B580D485968FCF74AFBF8
:1044C000A4B2604370BD14681B5809495868FCF7D2
:1044D00041FBA4B201002000FCF73CFBF2E7C04620
:1044E0005C69000000007810BC0200203F420F0011
:1044F00040420F00054A830010B59C580120002C53
:1045000002D000209B58196010BDC046BC0200209C
:1045100084225205024312780300D0B2002A0CD044
:104520008020013340050343187801384342584145
:10453000024B40421840024BC0187047808D5B0010
:1045400080841E00020070B5074B083213431C78AC
:10455000064B103213431D78FFF7DAFFEDB2E4B2D9
:104560006419E04070BDC0460000901000001010BB
:1045700010B50D4B821D13431A780400D3B2002AE4
:104580000FD0012B07D1FFF7C3FF084B08341C43A2
:104590002378D84010BD0020022BFBD1044B1868B3
:1045A000F8E70448F6E7C046000008110000901044
:1045B000C0020020006CDC020C4A811D0A43127804
:1045C0000300D0B2012A04D002280BD000280BD15E
:1045D000704780220133520513431B78002BF7D11B
:1045E0000220F5E70320F3E70520F1E700000811BA
:1045F00002009C2318325B05134380221A700022AC
:10460000064B03431A70064B063018430378DAB2A0
:10461000002BFBD1034B10000B6070470000081308
:1046200000000811006CDC02F8B504000D00160053
:104630001F00FFF7C1FF012823D1002D25D08023C3
:10464000621C5B0513431D70842302225B05234318
:104650001A702200104B083213437200D2B21A7043
:1046600040220E4B0E48234306341A70044323782D
:10467000012BFCD1002D0DD10A4B334100203B60B2
:10468000F8BD0228DBD1012DD9D139002000FFF778
:10469000AFFFD4E7044BF0E70000901000000813D0
:1046A0000000081180841E0000127A0010B50A4C28
:1046B000030022680120002A0CD0084A7F301A43E8
:1046C00010700748063303431A78022AFCD10020F1
:1046D00023680B6010BDC046C00200200000081314
:1046E000000008119C23C9015B050343C9B219707E
:1046F00070479C235B0503431878431E9841C0B262
:104700007047942349015B050343C9B21970704790
:1047100070B506680C0030002049FCF71BFA1F49F1
:1047200005003000FCF79CFA0E00E1213000090181
:10473000FCF710FAE121E08009013000FCF790FA63
:104740000E003C213000FCF705FA3C2120813000AE
:10475000FCF786FA6E22A1720321114BFF322380EF
:10476000238895420AD80F499B0700D10E4901239F
:10477000CA5CAA420CD36380A58070BD01339BB292
:1047800023800B40AD1A5A425A416E32FF32E7E79E
:104790000133AD1A0D2BEBD1EEE7C046805101007D
:1047A000B207000088690000616900000188114AB1
:1047B00003008A18002030B5812A17D85A88541E61
:1047C0000B2C13D89C88651E1E2D0FD8DD88172D45
:1047D0000CD81D893B2D09D89B7A3B2B06D88B071B
:1047E00005D0054B9B5CA3424041C0B230BD034B9A
:1047F000F8E7C0464EF8FFFF8869000061690000D5
:1048000070B5134D838802885B196E25FF355543BB
:1048100044885B1995085B190E4D6600755B5B1942
:10482000920710D00B600A680B4BC4885343827AFE
:1048300000899B18E122120162439B183C224243EB
:104840009B180B6070BD022CECD8013BEAE7C04618
:104850004A05F5FF6E690000805101008023084A77
:104860001B0212689A4209D1A02310305B0518433D
:104870000368002B02D10133FF3303607047C04649
:10488000C00200200100802210B50023012452053F
:10489000103111430C600B609021436049050460A6
:1048A0001C3001430B608821490501430B608421C2
:1048B0004905014310430B60036010BD02009023C3
:1048C00014325B05134300221A604260103201600B
:1048D0001A60704703680B6070470000104B82003D
:1048E00070B5D558802204000E4B92051A6028003E
:1048F000FFF7C8FF2800FFF7B1FF0B4B1F261A5D1B
:104900000123180009493240095DC025314090401B
:104910008B40074A6D00505153511060136070BDB9
:10492000986900003C80845E9C6900009D690000DD
:1049300000E100E0F7B50027114B8000C5580800E2
:104940000E000197FFF732FF0400B84216D001A90C
:104950003000FFF755FF3800FEF7F4FD010080201E
:104960000002814206D0FCF7F5F801000198FCF73F
:10497000F1F8019028000199FFF7A0FF2000FEBD8B
:1049800098690000F7B50025124B8000C4580E004E
:10499000200001A90195FFF79DFF2800FEF7D2FD39
:1049A00005008020000285420ED00B4B2900043404
:1049B0001C43FCF7CFF82768019C29004443B8B298
:1049C000FCF7C8F824180194310001A8FFF7A0FEF5
:1049D000F7BDC0469869000000007810F0B50027C8
:1049E000184B800085B0C55808000E00019203974F
:1049F000FFF7DCFE0400B84203D10024200005B01C
:104A0000F0BD300003A9FFF7FBFE38002E68FEF76B
:104A100099FD010080200002814206D0FCF79AF83F
:104A200001000398FCF796F80390039BB342E4D38C
:104A3000AB6088231C355B051D43019B9A002A60EF
:104A4000DCE7C04698690000044B8000C258882308
:104A50001C325B0513438900196070479869000098
:104A6000054B8000C258882314325B051343186835
:104A7000431E9841C0B27047986900006B46E0221F
:104A80001B78D2021B041340024A09070B4380180B
:104A90000360704744100000084B8200D2589023F6
:104AA00010B503325B0513431B78002B02D000F0D6
:104AB00013F910BD00F078F9FBE7C046A0690000CB
:104AC0009C210C4B0C4A8000C358825800200332B2
:104AD0004905114310B518710870942149050A431E
:104AE00010701A7F824203D020331800FEF7FDFABF
:104AF00010BDC046C8020020A0690000F7B50C0038
:104B000005001B4B3022002187002000FE58FBF7D8
:104B1000DFFD2800FEF74AFDFEF7E2FC20603000D2
:104B200000F0E5FA200000212030FEF7D7FAF31C50
:104B300001939023F21C5B051343102230001A707E
:104B4000032100F012FB3000002100F033FB094B81
:104B5000FC50094B5A5D1F231A401E3B9340074AE5
:104B600013609823019A5B05134340221A70F7BD26
:104B7000A0690000C8020020A469000000E100E074
:104B8000F8B50D4E85000D4BAF590400E85800F004
:104B9000AEFA38002030FEF7B8FA094B20001A5D53
:104BA0001F231A401E3B9340064AD367FEF703FDBE
:104BB0000023AB51F8BDC046C8020020A069000028
:104BC000A469000004E100E00A4B800070B5C658FB
:104BD000094B0C00C358150030001A68096800F032
:104BE0008DFA2860A37930006279217900F0CFFA3C
:104BF00070BDC046A0690000C8020020F7B51E4A7B
:104C000083009C58050022790420002A16D11B4AF3
:104C10009E58002903D0280001AAFFF7D5FF98234A
:104C200000214020F21C5B0513431970187027699E
:104C30008F4204D12800FFF743FF0020FEBD01236F
:104C4000237194235B05A16133431B780720002B5C
:104C5000F4D0A368191E02D019780133A360B17192
:104C60002369013B2361A3690133A3619C235B0595
:104C70001A4380231370E0E7C8020020A0690000F7
:104C8000F8B5134F134C85002C59ED590127069E9A
:104C90002777A2602661E3606661FFF7AFFF002817
:104CA00014D1200007992030FEF762FA0328F8D0CB
:104CB00000280BD09C23002203355B052B43227177
:104CC0001A70942303205B051D432A70F8BDC0466B
:104CD000A0690000C802002010B51E4B8200D35806
:104CE0001979002934D01C4951585A69002A11D029
:104CF0009C2252050A431278002A0BD08A79DC687C
:104D0000D2B2002C03D02270DA680132DA605A691C
:104D1000013A5A611A69002A12D0942252050A43B4
:104D20001278002A0CD09A68141E02D0147801322E
:104D30009A608C711A69013A1A619A6901329A6112
:104D40001A69002A04D15B69002B01D1FFF7B8FE74
:104D500010BDC046C8020020A0690000104A8000B3
:104D6000815800220F4B10B5C3580331581CC2772D
:104D70009C2040050843DA621A701A835A629A62CC
:104D80001A6302709420400501430A701A003832F9
:104D90001278002A03D00121181DFEF7B8F910BDC2
:104DA000A0690000C802002070B5254B8200D358CE
:104DB000591CC97F002942D022495258D96A00297A
:104DC00017DB9421490511430978002911D0D969CD
:104DD000CCB2596A002905D0DD6A002D02DD0C78BD
:104DE000013159629471D96A0139D962596B013123
:104DF0005963D96A002905DA9421D41C4905214355
:104E000000240C70196B002911DD9C214905114308
:104E1000097800290BD09279996AD2B2002903D07F
:104E20000A709A6A01329A621A6B013A1A63DA6A54
:104E3000002A04DC1B6B002B01DCFFF78FFF70BD29
:104E4000C8020020A0690000012903D0032909D06D
:104E50000020704794235B0518430078431E984157
:104E6000C0B2F6E78423F6E7431C03484901184320
:104E7000C9B201707047C04600008812831C94209C
:104E8000490140051843C9B201707047831C0348AB
:104E900089011843C9B201707047C0460000081369
:104EA000831C8C20C90040051843C9B201707047AB
:104EB000F7B50400364EE31C1E43337808780D0026
:104EC000DBB2072860D8FBF731FE04192B0E192B33
:104ED0002B45304B01341C43002323703378012BC6
:104EE000FCD10020FEBD012BFCD12A4B01341C4318
:104EF000402323703378042BFCD1F2E700210128F2
:104F000001D004200231337898423FD12000FFF7CE
:104F1000ABFF0421204A13698B43136130BFE0E7E4
:104F20000227B84207D100270B79BB4203D02000EB
:104F30004979FFF7ABFF194B01341C4327703378D5
:104F4000154ADBB20193019B0133019304231169DC
:104F50000B43E2E70421114B621C1A4311706A787B
:104F6000A11C0B431A70002A06D1AB78002B03D08A
:104F70002000E978FFF782FFAB79002BDFD020001B
:104F8000E979FFF78DFFDAE70120ABE70320A9E716
:104F9000000030100000881200ED00E0000010104A
:104FA000C31C024818430078C0B27047000030109C
:104FB000012314308B40012A04D1802212051043B2
:104FC000036070478022D204DB431043F8E70123DB
:104FD0008B40002A01D0436070478360FCE70023C8
:104FE000C222037043708370C37043718371C371B5
:104FF000037242728372C37270470000F0B50024DE
:1050000087B00293FA230126270025009B00534313
:1050100003900491009301947642AB000593194BE1
:10502000AA009B1859880498A140FBF793FD009BA8
:10503000009AC31A824200D9131AB3421FD2114AEE
:10504000A900525C27000192002B02D00135322DBD
:1050500013D10134032C01D0002B0DD1029A002A68
:1050600000D013603F220199BB0111400B43039A0A
:10507000DBB2537007B0F0BD00251E00CDE7330052
:10508000E4E7C046BE690000942302305B05034399
:105090001B78002B05D088235B051843042303707D
:1050A000704780231B0518433023F8E7942210B57E
:1050B0005205841C224311780300CAB20220012940
:1050C0000DD18021C90421438024CD300870E40033
:1050D00003331978490908001040114200D110BD6E
:1050E000013C002C01D0C046F3E70920F7E7042378
:1050F000C37000238370437003717047F0B5130BC6
:1051000089B00126039308230124764202939B1958
:10511000079004910592019302270025631E0693D0
:10512000210005987943FBF715FD049B834207D3C3
:105130001B1AB34204D21E00069B039002950193F2
:1051400001357F00092D01D0002EE9D1082C02D0B5
:105150000134002EE0D1019B029A1B0103981343F6
:10516000079ADBB2537009B0F0BD842310B5022456
:10517000C21C5B0513434A0022401A709023001999
:105180005B0518431023C9001940017010BD10B50C
:105190008C2403306405C9000443C9B221708821FE
:1051A000920049050143D2B20A7080225205104391
:1051B000037010BD8023012202305B0503430A40C7
:1051C0001A708C235B05184308238900194001706D
:1051D0007047000004FEFF1F1B5B306D1B5B343B00
:1051E00034336D1B5B313B33376D0D53616E697426
:1051F0007920636865636B206661696C6564211B57
:105200005B306D0A001B5B306D1B5B343B34316DD2
:105210001B5B313B33376D0D496E76616C696420E1
:10522000737570706C7920766F6C74616765205B44
:1052300025645D206D56211B5B306D0A00204D4DAD
:10524000413834353120782C204D4D4138343531BA
:1052500020792C204D4D4138343531207A2C0020D6
:105260005254432D3E5453522C205254432D3E54FD
:1052700050522C202320436F6E666967204572725E
:105280006F72730025752C2025642C2025642C005A
:105290002025642C2025642C2025640A000D09306B
:1052A0007825303278202D2D3E205B307825303225
:1052B0007820307825303278203078253032785D8B
:1052C0000A000D09307825303278202D2D3E20300F
:1052D00078253032780A000D093078253032782070
:1052E0002D2D3E202D2D2D2D0A000D0A0925642F70
:1052F0002564207375636365737320726174652E12
:105300000A000D0925642F25642073756363657396
:10531000736573206D617463686564207265662EC1
:105320002076616C7565206F662030782530327884
:105330002E0A000D0925642062616420636F6D6D83
:10534000616E64732E0A0A000D0A4D4D41383435E2
:1053500031513A0A0D000D0A494E413231393A0AAB
:105360000D000D0A0A424D45363830205265616401
:105370002041626F727465642E20446576696365AE
:105380002044697361626C6564203A28000D0A0943
:10539000424D58303535616363656C2052656164F8
:1053A0002041626F727465642E204465766963657E
:1053B0002044697361626C6564203A2820000D0AFC
:1053C00009424D583035356779726F2052656164F6
:1053D0002041626F727465642E204465766963654E
:1053E0002044697361626C6564203A2820000D0ACC
:1053F0000920424D583035356D6167205265616432
:105400002041626F727465642E204465766963651D
:105410002044697361626C6564203A2820000D0A9B
:10542000094D41473331313020526561642041627A
:105430006F727465642E20446576696365204469E3
:105440007361626C6564203A2820000D0A094C33B0
:10545000474432304820526561642041626F727463
:1054600065642E20446576696365204469736162D2
:105470006C6564203A2820000D0A094C50533235DF
:105480004820526561642041626F727465642E2009
:105490004465766963652044697361626C65642064
:1054A0003A2820000D0A095443533334373235204B
:1054B000526561642041626F727465642E20446598
:1054C000766963652044697361626C6564203A287B
:1054D00020000D0A09534934373035205265616484
:1054E0002041626F727465642E204465766963653D
:1054F0002044697361626C6564203A2820000D0ABB
:1055000009484443313030302052656164204162A3
:105510006F727465642E2044657669636520446902
:105520007361626C6564203A2820000D0A095349B2
:105530003730323120526561642041626F72746588
:10554000642E204465766963652044697361626CEA
:105550006564203A2820000D0A094343533831314D
:1055600020526561642041626F727465642E20442C
:1055700065766963652044697361626C6564203A8D
:105580002820000D0A09414D473838333420526530
:1055900061642041626F727465642E20446576698F
:1055A00063652044697361626C6564203A28200059
:1055B0000D0A094153373236322052656164204169
:1055C000626F727465642E20446576696365204459
:1055D000697361626C6564203A2820000D0A0941F4
:1055E000533732363320526561642041626F7274E2
:1055F00065642E2044657669636520446973616241
:105600006C6564203A2820000D09496E76616C694A
:1056100064207761727053656E736F72446576694A
:105620006365205B25645D2070617373656420741D
:105630006F20726570656174526567697374657215
:1056400052656164466F72446576696365416E6454
:10565000416464726573732E0A000D0A094144584F
:105660004C33363220526561642041626F7274653A
:10567000642E204465766963652044697361626CB9
:105680006564203A28000D09506F776572757020A7
:10569000636F6D6D616E64206661696C65642E2058
:1056A000424D583035352064697361626C65642001
:1056B0000A000D09506F776572646F776E20636F13
:1056C0006D6D616E64206162616E646F6E65642EE3
:1056D00020424D583035352064697361626C6564D1
:1056E0000A000D09506F776572646F776E20636FE3
:1056F0006D6D616E64206162616E646F6E65642EB3
:10570000204C3347443230482064697361626C65D1
:10571000640A000D09506F776572646F776E2063BD
:105720006F6D6D616E64206162616E646F6E656441
:105730002E20544353333437323520646973616209
:105740006C65640A000A0A0A0D426F6F74696E671D
:1057500020576172702C20696E20332E2E2E20006F
:10576000322E2E2E2000312E2E2E0A0D000D0A0A6A
:105770000A0A5B202A090909095709610972097097
:1057800009287265762E2062290909092A205D0AF6
:10579000000D5B202009090909202020202020433A
:1057A000616D627269646765202F20506879736348
:1057B0006F6D706C61622020200909090920205D4D
:1057C0000A0A000D09537570706C793D25646D5699
:1057D0002C0944656661756C742054617267657448
:1057E00020526561642052656769737465723D304B
:1057F00078253032780A000D094932433D25646B23
:10580000622F732C095350493D25646B622F732C12
:1058100009554152543D25646B622F732C0949325E
:10582000432050756C6C2D55703D25640A0A000D9F
:105830000953494D2D3E53434743363D307825307B
:10584000327809095254432D3E53523D3078253069
:10585000327809095254432D3E5453523D30782535
:105860003032780A000D094D43475F43313D3078AF
:10587000253032780909094D43475F43323D30787E
:105880002530327809094D43475F533D3078253044
:1058900032780A000D094D43475F53433D30782568
:1058A0003032780909094D43475F4D433D30782533
:1058B00030327809094F53435F43523D30782530E9
:1058C00032780A000D09534D435F504D50524F54EA
:1058D0003D307825303278090909534D435F504DEA
:1058E0004354524C3D3078253032780909534342B5
:1058F0002D3E5343523D3078253032780A000D0951
:10590000504D435F52454753433D30782530327800
:1059100009090953494D5F53434743343D307825C6
:10592000303278095254432D3E5450523D30782540
:105930003032780A0A000D0925647320696E2052FE
:1059400054432048616E646C657220746F2D6461ED
:1059500074652C09256420506D6772204572726F42
:1059600072730A000D53656C6563743A0A000D2D5D
:10597000202761273A207365742064656661756C21
:10598000742073656E736F722E0A000D2D202762CE
:10599000273A207365742049324320626175642080
:1059A000726174652E0A000D2D202763273A20733B
:1059B000657420535049206261756420726174657A
:1059C0002E0A000D2D202764273A20736574205578
:1059D000415254206261756420726174652E0A0020
:1059E0000D2D202765273A20736574206465666154
:1059F000756C742072656769737465722061646484
:105A0000726573732E0A000D2D202766273A2077C2
:105A100072697465206279746520746F2073656E95
:105A2000736F722E0A000D2D202767273A207365A9
:105A3000742064656661756C7420535353555050DF
:105A40004C592E0A000D2D202768273A20706F77B9
:105A50006572646F776E20636F6D6D616E64207424
:105A60006F20616C6C2073656E736F72732E0A0009
:105A70000D2D202769273A207365742070756C6C92
:105A80002D757020656E61626C652076616C756540
:105A90002E0A000D2D20276A273A20726570656155
:105AA0007420726561642072656720307825303219
:105AB00078206F6E2073656E736F72202325642EBD
:105AC0000A000D2D20276B273A20736C6565702026
:105AD000756E74696C2072657365742E0A000D2DE5
:105AE00020276C273A2073656E64207265706561AB
:105AF0007465642062797465206F6E204932432E8C
:105B00000A000D2D20276D273A2073656E642072E0
:105B1000657065617465642062797465206F6E20BC
:105B20005350492E0A000D2D20276E273A20656E0E
:105B300061626C65205353535550504C592E0A00E6
:105B40000D2D20276F273A2064697361626C6520F0
:105B50005353535550504C592E0A000D2D20277089
:105B6000273A2073776974636820746F20564C500D
:105B700052206D6F64652E0A000D2D202772273A82
:105B80002073776974636820746F2052554E206DBE
:105B90006F64652E0A000D2D202773273A20706F41
:105BA00077657220757020616C6C2073656E736F01
:105BB00072732E0A000D2D202774273A2064756D0C
:105BC000702070726F636573736F72207374617489
:105BD000652E0A000D2D202775273A207365742045
:105BE00049324320616464726573732E0A000D2D7F
:105BF000202778273A2064697361626C65205357C7
:105C00004420616E64207370696E20666F7220316B
:105C10003020736563732E0A000D2D20277A273AF2
:105C20002064756D7020616C6C2073656E736F728B
:105C30007320646174612E0A000D2D20272F273AEE
:105C4000205072696E74203130303020637572726A
:105C5000656E742073656E736F722072656164691E
:105C60006E67732E0A000D456E7465722073656C45
:105C7000656374696F6E3E20000D0953656C656342
:105C8000743A0A000D092D20273127204144584C31
:105C900033363209090928307830302D2D307832EA
:105CA00044293A20312E3656202D2D20332E3556BC
:105CB0002028636F6D70696C6564206F757429208E
:105CC0000A000D092D2027322720424D5830353546
:105CD000616363656C20090928307830302D2D30E0
:105CE000783346293A20322E3456202D2D20332E5B
:105CF00036562028636F6D70696C6564206F75740B
:105D000029200A000D092D2027332720424D583025
:105D100035356779726F09090928307830302D2DB3
:105D200030783346293A20322E3456202D2D203318
:105D30002E36562028636F6D70696C6564206F7510
:105D40007429200A000D092D2027342720424D58A0
:105D50003035356D616709090928307834302D2DCB
:105D600030783532293A20322E3456202D2D2033EA
:105D70002E36562028636F6D70696C6564206F75D0
:105D80007429200A000D092D20273527204D4D416B
:105D9000383435315109090928307830302D2D300B
:105DA000783331293A20312E393556202D2D2033A4
:105DB0002E36560A000D092D20273627204C505329
:105DC00032354809090928307830382D2D3078329D
:105DD00034293A20312E3756202D2D20332E365699
:105DE0002028636F6D70696C6564206F757429205D
:105DF0000A000D092D20273727204D414733313127
:105E00003009090928307830302D2D30783131298A
:105E10003A20312E393556202D2D20332E3656205E
