:10000000000600201D050000450500004505000014
:1000100000000000000000000000000000000000E0
:100020000000000000000000000000004505000086
:10003000000000000000000045050000450500002C
:100040004505000045050000450500004505000088
:100050004505000045050000450500004505000078
:100060004B320000450500005532000045050000F8
:100070004505000045050000450500004505000058
:100080004505000045050000450500004505000048
:100090009D0E0000B50E000045050000450500005E
:1000A0004505000045050000450500004505000028
:1000B0004505000045050000450500004505000018
:10040000FFFFFFFFFFFFFFFFFFFFFFFFFE3DFFFFBF
:100410000448054B10B5834203D0044B002B00D099
:10042000984710BDA8FFFF1FA8FFFF1F0000000096
:1004300006480749091A8B10C90FC91810B5491089
:1004400003D0044B002B00D0984710BDA8FFFF1F1E
:10045000A8FFFF1F0000000010B5074C2378002BF9
:1004600009D1FFF7D5FF054B002B02D0044800E06F
:1004700000BF0123237010BDA8FFFF1F0000000074
:10048000A4670000054B10B5002B03D004490548B4
:1004900000E000BFFFF7CCFF10BDC0460000000029
:1004A000ACFFFF1FA4670000402292029A1A9246F6
:1004B0007047C046154B002B00D1114B9D46FFF7EE
:1004C000F3FF00218B460F461148124A121A00F022
:1004D000FFF80C4B002B00D098470B4B002B00D0A3
:1004E00098470020002104000D000B4800F02EF872
:1004F00000F064F82000290001F078F900F034F8E9
:1005000000000800000000000000000000060020BD
:10051000A8FFFF1FC40200209505000072B6064820
:100520000649074A02600A6002F09AFE02F0DAFE0B
:1005300062B6FFF7BFFF000080E100E080E200E06C
:10054000FFFFFFFF004800474505000010B5010010
:1005500000230022002000F019FA10BD014B18689A
:100560007047C04600FEFF1F084B10B50400002B6B
:1005700002D0002100F078FA054B1868836A002B3E
:1005800000D09847200000F05BFCC046690A0000DC
:100590008051000070B5074D074C641BA41005D0B6
:1005A000013CA300EB589847002CF9D106F000F964
:1005B00070BDC046C8670000CC67000070B50C4D28
:1005C0000C4E761BB61005D0002408CD0134984798
:1005D000A642FAD106F0E6F8074D084E761BB61093
:1005E00005D0002408CD01349847A642FAD170BD49
:1005F000C4670000C4670000C4670000C86700004B
:1006000010B5034B0100186800F00CF910BDC0468E
:1006100000FEFF1F10B5034B0100186800F0ACF896
:1006200010BDC04600FEFF1FF0B5C64600B50F2A3C
:1006300043D90B00032603431E400C000300002E89
:1006400040D11500103D2D09AC462D01A84680442F
:1006500000E03B00676825685F60E7681D60DF6059
:100660001F00A56810379D6010344345F1D16546E1
:100670000F230C2401352D0149191340451914424B
:1006800023D08C59AC5104369C1B032CF9D803247D
:10069000043B9B0801339B002240ED18C918561EED
:1006A000002A07D0002300E02300CA5C5C1CEA5447
:1006B0009E42F9D104BC9046F0BD0500561E002AAA
:1006C000F0D1F7E7561E0500ECE71A00F6E7C04642
:1006D000F0B5050083074AD0541E002A44D0CEB29C
:1006E0000300032202E00135013C3DD301332E70AB
:1006F0001342F8D1032C2FD9FF220A4015021543CB
:100700002A0415430F2C35D92700103F3F093E011D
:10071000B4461E001A001036664415605560956098
:10072000D5601032B242F8D10F260C2201373F01BA
:100730002640DB193700224217D03E1FB608B4000E
:10074000A4461A001C1D644420C2A242FCD103240A
:100750000136B6009B193C40002C05D0C9B21C19CB
:10076000197001339C42FBD1F0BD3400F4E7140052
:100770000300BFE72700E0E770B50500002915D0AA
:100780000C1F2368002B27DB280000F0CBF9244B3B
:100790001A68002A05D0A2420CD92168601882424A
:1007A00024D0626028001C6000F0BEF970BDA34236
:1007B00003D81A005368002BF9D111685018A042D1
:1007C0001BD027D821686018834207D0636054602B
:1007D000280000F0A9F9E9E7E418D5E718685B6894
:1007E00084466144216063605460F1E71068526898
:1007F0008446614421606260D4E72068091850187B
:1008000011608342E4D118685B68844661441160DA
:100810005360DDE70C2328002B6000F085F9C5E765
:10082000C4FFFF1FF8B50323CD1C9D430835060008
:100830000C2D2AD20C25A94229D8300000F072F9DB
:100840002A4F3A68002A0AD013685B1B04D441E09F
:1008500023685B1B1FD522005468002CF8D17B68ED
:10086000002B3DD02900300000F042F8431C2AD074
:100870000323C41C9C43A04205D0211A300000F081
:1008800037F8431C1FD0256010E0002DD3DA0C236D
:1008900000203360F8BD0B2B05D86368A2421DD041
:1008A000536003E014002360E4182560300000F07A
:1008B0003BF9200007220B30231D9043C21AE9D0D8
:1008C0001B1AA350E6E70C233000336000F02CF92C
:1008D0000020DFE70B2BE5D8140053683B60E5E709
:1008E0000021300000F004F87860BBE7C4FFFF1F70
:1008F000002370B5064C05000800236000F0A2FA42
:10090000431C00D070BD2368002BFBD02B60F9E79F
:10091000C002002003000A7801311A700133002A56
:10092000F9D1704710B5830727D00378002B26D064
:100930000300032102E01A78002A1CD001330B4285
:10094000F9D119680F4A104C8A188A4322420FD1F4
:10095000043319680B4A8A188A43224208D10433A7
:100960001968084A8A188A432242F1D000E001330C
:100970001A78002AFBD1181A10BD0300E1E7002005
:10098000FAE7C046FFFEFEFE80808080F0B5464656
:100990004F46D646C0B51F002F4B82B01C680500DD
:1009A0000E009046002C2DD063681F2B50DC002DCC
:1009B0001CD08822A0589146002834D07832825822
:1009C00094469A0091468144424649460A60012174
:1009D000624699400A43944680228A466146520004
:1009E00081504946803A8F50022D16D000205A1C63
:1009F00002339B0062601E5102B01CBC90469946B7
:100A0000A246F0BD154C1C60154B002BCCD01B68CA
:100A100001938823019AE250C6E7554684328158F3
:100A20000D438550E2E70F4B002B11D0842040008E
:100A3000FFF7E6FD00280BD08022002352008350F0
:100A4000043283504B460022E05094466368B8E776
:100A500001204042D0E7C04658000020CCFFFF1FD5
:100A60000000000001060000F0B5DE464E46454697
:100A700057462B4B88469B46E0B51E6883B00190D5
:100A8000002E45D088237568F7586C1E40D4013578
:100A9000AD00783375199A460AE0002F05D03B0067
:100AA000A20080339B58434505D0043D013C2FD321
:100AB0004346002BF1D173682A68013BA34222D040
:100AC00000232B60002AF0D073689946002F18D0BD
:100AD00001235146A3407958194212D08220400088
:100AE0003858A1007958009018420ED101989047CB
:100AF0005B4672681B684A4501D1B342D5D01E00DF
:100B0000BEE79047F4E77460DCE708009047EFE742
:100B100003B03CBC90469946A246AB46F0BDC046E9
:100B2000580000207047C0467047C04602B4714666
:100B300049084900095C49008E4402BC7047C04620
:100B400003B47146490840004900095E49008E44DB
:100B500003BC7047002243088B4274D303098B42C5
:100B60005FD3030A8B4244D3030B8B4228D3030C7D
:100B70008B420DD3FF22090212BA030C8B4202D31F
:100B80001212090265D0030B8B4219D300E0090A47
:100B9000C30B8B4201D3CB03C01A5241830B8B4250
:100BA00001D38B03C01A5241430B8B4201D34B0339
:100BB000C01A5241030B8B4201D30B03C01A52419E
:100BC000C30A8B4201D3CB02C01A5241830A8B4223
:100BD00001D38B02C01A5241430A8B4201D34B020C
:100BE000C01A5241030A8B4201D30B02C01A524170
:100BF000CDD2C3098B4201D3CB01C01A5241830924
:100C00008B4201D38B01C01A524143098B4201D35D
:100C10004B01C01A524103098B4201D30B01C01A88
:100C20005241C3088B4201D3CB00C01A5241830802
:100C30008B4201D38B00C01A524143088B4201D32F
:100C40004B00C01A5241411A00D20146524110468F
:100C50007047FFE701B5002000F0F0F802BDC04684
:100C60000029F7D076E7704703460B437FD4002274
:100C700043088B4274D303098B425FD3030A8B4230
:100C800044D3030B8B4228D3030C8B420DD3FF229A
:100C9000090212BA030C8B4202D31212090265D068
:100CA000030B8B4219D300E0090AC30B8B4201D31B
:100CB000CB03C01A5241830B8B4201D38B03C01A62
:100CC0005241430B8B4201D34B03C01A5241030BD9
:100CD0008B4201D30B03C01A5241C30A8B4201D38A
:100CE000CB02C01A5241830A8B4201D38B02C01A35
:100CF0005241430A8B4201D34B02C01A5241030AAC
:100D00008B4201D30B02C01A5241CDD2C3098B4290
:100D100001D3CB01C01A524183098B4201D38B010D
:100D2000C01A524143098B4201D34B01C01A5241B0
:100D300003098B4201D30B01C01A5241C3088B42F5
:100D400001D3CB00C01A524183088B4201D38B00E0
:100D5000C01A524143088B4201D34B00C01A524182
:100D6000411A00D201465241104670475DE0CA0F59
:100D700000D04942031000D34042534000229C4619
:100D800003098B422DD3030A8B4212D3FC22890123
:100D900012BA030A8B420CD3890192118B4208D3F9
:100DA000890192118B4204D389013AD0921100E05B
:100DB0008909C3098B4201D3CB01C01A524183096F
:100DC0008B4201D38B01C01A524143098B4201D39C
:100DD0004B01C01A524103098B4201D30B01C01AC7
:100DE0005241C3088B4201D3CB00C01A5241830841
:100DF0008B4201D38B00C01A5241D9D243088B4297
:100E000001D34B00C01A5241411A00D20146634639
:100E100052415B10104601D34042002B00D549429D
:100E2000704763465B1000D3404201B5002000F0DC
:100E300005F802BD0029F8D016E770477047C04694
:100E4000FEE7C0460A4A0300116810B5002901D127
:100E50000849116010680849C3188B4206D9FFF78A
:100E60007DFB0C2303600120404210BD1360FCE7B2
:100E70005C000020C8020020C80200208378022005
:100E80009842804140427047437A0020013B012B49
:100E900003D90B78013001330B70704710B5002077
:100EA00003F0B4FD002803D00021080003F0A2FDE8
:100EB00010BD0000024A1368013313607047C0463A
:100EC0008000002037B5002002F084FCC0230024FD
:100ED0000D4A9B0013600D4A0D4D13600D4A200012
:100EE00013600D4B2C716C71AC711A68FA239B0066
:100EF00053430A492B6003F0D7FD2900200001AAC3
:100F000003F038FE37BDC046189014541C9014549A
:100F1000D800002000A0145484FEFF1FA800002069
:100F200010B58024002003F001FE0A4B64001C6011
:100F3000094B07201C60094B1C6002F0F5FE0620DF
:100F400002F0F2FE200002F0EFFE002002F047FC6B
:100F500010BDC046189014541C90145400A0145492
:100F600010B5002002F040FC8023054A9B0013606E
:100F7000044A00200449136002F0C2FF10BDC046BD
:100F80000CA0145410A014548400002010B50020AC
:100F900002F0F2FF80238220074A5B001360074AB9
:100FA0004000136002F0C0FE0420FF3002F0BCFEDF
:100FB000002002F01EFC10BD0CA0145410A014540C
:100FC0000023364A70B51360354A01201360354A54
:100FD0000133FF331360344A34491360344A1360D9
:100FE000344A1360344A1360344A1360344A13603D
:100FF000344A14782500054004424DD00B60324934
:1010000032480B60002101603148016031490B60BA
:1010100031490B6031490B6031490B6031490B603C
:1010200031490B601378DB0703D50220FF3002F053
:101030006DFE092002F078FE0C2002F075FE0520FE
:1010400002F072FE082002F06FFE0620FF3002F070
:101050006BFE0E20FF3002F067FE8320400002F09E
:1010600063FE0820FF3002F05FFE0C20FF3002F02C
:101070004DFE8220400002F057FE0420FF3002F0B7
:1010800053FE072002F050FE062002F04DFE8020A5
:10109000400002F049FE70BD0D60B0E70C901454A2
:1010A00010901454149014541890145404A0145410
:1010B0001C901454209014542490145430901454C0
:1010C00000A0145480FEFF1F08A014540CA0145458
:1010D00010A0145414A0145418A014541CA0145498
:1010E00028A014542CA0145434A0145410B5092072
:1010F00002F01AFE10BD10B50C2002F015FE10BD56
:10110000384B10B598423DD027D8374B984253D032
:1011100015D8C83B984244D009D8C83B984231D032
:10112000324B984206D1052002F0F0FD2DE0304B05
:1011300098423DD02F49002002F07BF82CE0962306
:101140001B01984243D02C4B984247D02B4B9842DE
:10115000F0D1052002F0DAFD31E0294B98422BD086
:1011600007D8C83B98421CD0264B984220D0264B2B
:10117000D7E7C8231B01984229D0244B98422DD091
:10118000234BE4E7052002F0CFFD082002F0CCFD60
:101190000620FF3002F0C8FD1E4B186802F061F90E
:1011A00010BD052002F0C0FD082002F0AFFDEFE702
:1011B000052002F0ABFDF7E7052002F0B5FD0820A1
:1011C00002F0B2FD0620FF3002F0A0FDE4E70520AA
:1011D00002F0AAFD082002F099FDF3E7052002F0D5
:1011E00095FDF7E7280A0000980800006C0700004A
:1011F0003408000084510000C4090000FC0800000D
:10120000B80B0000540B00008C0A0000E40C000036
:101210001C0C000088FEFF1F10B5FFF771FF0920AE
:1012200002F074FD0C2002F07FFD8320400002F0EC
:101230007BFD10BD10B5FFF763FF092002F074FDC0
:101240000C2002F063FD8320400002F05FFD10BD22
:10125000AF220C4B10B5C3189BB29200934202D838
:10126000FFF7DAFF10BD084BC3189BB2934202D8B8
:10127000FFF7E0FFF6E702000449002001F0D9FF84
:10128000F0E7C046F8F8FFFFD8F5FFFFB1510000C6
:1012900010B5FFF72BFFFFF72EFF8320400002F071
:1012A00035FD024B186802F0DCF810BD88FEFF1F08
:1012B00010B50400002901D0FFF782FE00210220B2
:1012C00001F09CF82100042001F098F810BD10B541
:1012D000012420000021FFF7EBFF21003C20FFF755
:1012E000E7FFF6E7F0B59DB285B0039206002A004D
:1012F0000C000020012101F0A4FB290007001F4879
:1013000001F0ACFA3F18002E18D01D4D286802F0ED
:10131000A8F81C49002001F079FD286802F0A1F826
:101320001949002001F072FD286802F09AF80020A7
:10133000164901F06BFD286802F093F80026144D61
:1013400014492B686A6800200092320001F071FF96
:10135000200001F0BDFB200001F0B6FA2A68002051
:101360006B680D49009701F064FF039B002B02DDC1
:10137000180002F076F80136E1E7C0469F39000018
:101380007CFEFF1FE95100000B5200003B60000093
:1013900000D00340305200003C520000F0B591B044
:1013A000059218AA12780D910A921CAA12780EA919
:1013B0000E921DAA12881E00089221225218D27F76
:1013C00016AB09921FAA12881F780F9217AB20AA9A
:1013D00012781B7804000B92BB4203D30A9A9742FF
:1013E00000D91F00059B002E06D1002B06D15949BC
:1013F000002001F01EFF01E0002BF8D10025089825
:10140000FFF726FF2100002001F000FD089C049555
:101410000695039500230793079B199A934200DCD6
:1014200095E00E9B002B04D001370A9BFFB2BB4214
:10143000F0D2039A069B944647496344002001F08A
:10144000F8FE322002F00DF8099B049A43490093FC
:101450000020039B01F0EDFE322002F002F82A008A
:101460003F49002001F0E5FE322001F0FAFF11B003
:10147000F0BD029B3022FB180C936B469B1818782A
:1014800001210D9B9847002849D1039B0133039309
:10149000089B9C4204D9643CA4B22000FFF7D8FE0C
:1014A000002E26D0099AB37B9B1A5A425341049AC4
:1014B000D31804930B9B002B0BD0337B029A717BC8
:1014C000B07B0091019027490020DBB2BA1801F0EF
:1014D000B0FE1B9B002B02DD180001F0C2FF029B37
:1014E00001330293029B1A9A9342C2DB079B01339A
:1014F00091E7059B099A1B7A9B1A5A425341049A19
:10150000D31804930B9B002BE3D0059B029A1B7A04
:1015100030001549DBB2BA1801F08BFED9E702287A
:1015200010D100200C9A114901F083FE069B013373
:1015300006930F9B9C42CCD26434A4B22000FFF7E8
:1015400087FEC6E70338434258412D18C1E7002300
:10155000C7E7C0468451000096520000AE5200001A
:10156000DF520000495200006E520000835200001A
:10157000F0B591B00D9316AB0400100004CB0C91A4
:101580001F781AAB1B880E920F931BAB1E881CABE7
:101590001D78002C64D0FFF7E3FC601E132859D897
:1015A000FFF7C4FA0A3D58585858424446484A4C36
:1015B0004E525058545658260F9B0C9A07930D9B29
:1015C00000920693189B294A05930E9B2849049381
:1015D000199B284803933123029300230A97099605
:1015E00008950193FFF7DAFEFFF7D0FC11B0F0BDCC
:1015F0000F9B0C9A07930D9B00920693189B1E4A13
:1016000005930E9B1D490493199B1D4803930523C5
:10161000029300230A97099608950193E2E7194976
:10162000002001F0F3FBDFE71749F9E71749F7E777
:101630001749F5E71749F3E71749F1E71749EFE7C6
:101640001749EDE71749EBE71749E9E71749E7E7D6
:101650001749E5E722001749002001F0EAFDC3E73A
:101660002000154901F0D2FBC0E7C0467000002001
:10167000612A0000F4520000600000206D28000084
:10168000025300000E53000039530000665300005F
:1016900093530000BF530000ED53000019540000A5
:1016A00046540000725400009E540000CB540000C9
:1016B000F754000023550000755500000300303832
:1016C000092805D91A00613A052A02D8573B1800A3
:1016D00070471A00413A0020052AF9D8373BF6E74F
:1016E00070B501F0AEFB040001F0ABFBFF26050076
:1016F00020003040FFF7E2FF040028003040FFF7F1
:10170000DDFF24012018C0B270BD70B501F099FB57
:10171000060001F096FB050001F093FB040001F0C8
:1017200090FBFF22FA23642116401540303E1440FE
:101730009B00303D4D4373435A39303C4C435B1959
:1017400010401B193038181870BD000070B50C001F
:10175000160088B00CAA157806A908800A4A05A8C0
:1017600005700A4D12682D684A6004AA167001932C
:10177000009023000020029502F026FD002800D0F2
:10178000022008B070BDC04674FEFF1F78FEFF1F28
:10179000F7B56A46CB1DDB08DB00D31A02AF9D46C6
:1017A0000C000500FFF78EFBFA2300219B0002AE20
:1017B0000193009433002A00080003F037FA040074
:1017C000FFF7AEFB002C00D00424BD462000F2BD84
:1017D00010B50449002001F019FB0020024901F076
:1017E00015FB10BDA1550000D2550000F0B5002733
:1017F000B9B025AC072239002000FEF769FFFA4A8C
:1018000001252C92032215AB2F9317AB309319AB04
:1018100032931DAB34931FAB359321AB369323AB7F
:101820001BAE11A9380037932CAB1A712E9114936B
:1018300033962570319401F0C5FF280001F0C2FFF6
:101840008021EA4B0902196001F02AFE3B003A00B0
:1018500039003800009501F0FBFAE549380001F045
:10186000D5FAC82001F0FDFDE249380001F0CEFABA
:10187000C82001F0F6FDE049380001F0C7FAC820A1
:1018800001F0EFFDDD4A2B000221DD4801F02CFEC6
:101890002900280001F034FE380002F0F5FF8C2109
:1018A000D84B3800299308AB5B181F80023108AB76
:1018B0005B1829A91F702A9503F012F82A00390035
:1018C00011A8FEF705FF4820259B08A91993A288B7
:1018D00009180A80A279023008A909180A7003229F
:1018E000063808A909180A701B93A28808A9B280B3
:1018F000A2790A38B271052232701593A2880226A5
:101900000A87A27909180A70342108AA5218167099
:101910001793A288063008A909180A80A2798019AD
:1019200008A909180A700422063808A909180A70BB
:101930001D93A2881C3008A909180A80A279801971
:1019400008A909180A700822063808A909180A7097
:101950001F93A2880C3008A909180A80A27980195F
:1019600008A909180A700921063808AA1218117066
:101970002193A3880C3008AA12181380A379801928
:1019800008AA121813700A23063808AA121813702E
:101990006C2208AB9B181F7014AA2B002FA801F013
:1019A00071FF3900300000F029FD9749974802F097
:1019B00083F9FFF705FB0820FF3002F0A7F9C820E4
:1019C00001F04FFD0820FF3002F0AEF9C82001F011
:1019D00048FD0820FF3002F099F9C82001F041FDD0
:1019E0000820FF3002F0A0F9C82001F03AFD0820DD
:1019F000FF3002F08BF9C82001F033FD0820FF30E2
:101A000002F092F91D20824901F016F84020814928
:101A100000F022FFFFF73CFC00F090FD80231B024A
:101A20000A97099708930B977B49002001F0EEF97C
:101A30007A4C206801F015FD7949002001F0E6F9A3
:101A4000206801F00EFD099B0A9A7649002001F0FA
:101A5000F0FB206801F005FD734D744E74492A684F
:101A6000089833680968019000910020714901F0DD
:101A7000E0FB206801F0F5FC6F4B7049704A0020D4
:101A8000D2584B69096800916E4901F0D2FB206879
:101A900001F0E7FC6C4900200A784B788979D2B2D2
:101AA000DBB20091694901F0C4FB206801F0D9FC68
:101AB000654B67491A7A1B7E0978D2B2DBB2009176
:101AC0000020644901F0B5FB206801F0CAFC624BBC
:101AD00062491A785B780969D2B2DBB200910020C2
:101AE0005F4901F0A6FB206801F0BBFC5D4B544848
:101AF0009A7852495C4BD2B2C35849680020009191
:101B00005A4901F096FB206801F0ABFC584B59494B
:101B10001A6811AB1B78002001F08BFB206801F0E4
:101B2000A0FC5549002001F071F9206801F099FCF2
:101B30005249002001F06AF9206801F092FC5049F6
:101B4000002001F063F9206801F08BFC4D49002072
:101B500001F05CF9206801F084FC4B49002001F0A1
:101B600055F9206801F07DFC4849002001F04EF94C
:101B7000206801F076FC4649002001F047F9206812
:101B800001F06FFC4349002001F040F9206801F0AA
:101B900068FC4149002001F039F9206801F061FC3E
:101BA0003E49002001F032F9206801F05AFC3B0068
:101BB000099A3B49002001F03CFB206801F051FCF0
:101BC0003849002001F022F9206801F04AFC36492A
:101BD000002001F01BF9206801F043FC334900208C
:101BE00001F014F9206863E0890E0000B4020020BF
:101BF000045600001F5600002556000064FEFF1F1B
:101C000090FFFF1FE0070100A0FEFF1F90FEFF1FD7
:101C100070000020600000202C5600007CFEFF1F9A
:101C2000505600008256000074FEFF1F84FEFF1F06
:101C30008CFEFF1FB65600003C10000000D0034091
:101C400000700440EE56000000400640245700009B
:101C5000005006405357000000E0074000ED00E050
:101C60008357000000D0074034100000BD5700002B
:101C700080000020F5570000235800002D58000078
:101C80004A58000066580000825800009F58000023
:101C9000C6580000E5580000045900002F59000004
:101CA00052590000815900009D590000C15900009F
:101CB00001F0D7FBD149002001F0A8F8206801F01D
:101CC000D0FBCF49002001F0A1F8206801F0C9FB4A
:101CD000CC49002001F09AF8206801F0C2FBCA4903
:101CE000002001F093F8206801F0BBFBC7490020F9
:101CF00001F08CF8206801F0B4FBC549002001F028
:101D000085F8206801F0ADFBC249002001F07EF8A3
:101D1000206801F0A6FBC049002001F077F8206898
:101D200001F09FFBBD49002001F070F8206801F030
:101D300098FBBB49002001F069F8206801F091FB95
:101D4000B849002001F062F8206801F08AFB01F038
:101D500078F8FF2302000C901A407A2A07DC602AE8
:101D60000BDC0A2A00D1ECE22F2A00D1AEE2AE4908
:101D7000BBE0AE4B01270B9356E6100061381928E3
:101D8000F5D8FEF7DDFE1A00A300B600C600D100AC
:101D9000DB001D0128013001A9010302090209022B
:101DA0004A024F025302F4FF59025C0251FE6202E2
:101DB000F4FFF4FF7002F4FF79029D49002001F066
:101DC00025F89C49002001F021F8206801F049FB2A
:101DD0009949002001F01AF8206801F042FB974968
:101DE000002001F013F8206801F03BFB944900202B
:101DF00001F00CF8206801F034FB9249002001F05A
:101E000005F8206801F02DFB8F49002000F0FEFF4F
:101E1000206801F026FB8D49002000F0F7FF2068C4
:101E200001F01FFB8A49002000F0F0FF206801F05C
:101E300018FB8849002000F0E9FF206801F011FB41
:101E40008549002000F0E2FF206801F00AFB834989
:101E5000002000F0DBFF206801F003FB8049002038
:101E600000F0D4FF206801F0FCFA7E49002000F069
:101E7000CDFF206801F0F5FA7B49002000F0C6FF95
:101E8000206801F0EEFA7949002000F0BFFF2068D9
:101E900001F0E7FA7649002000F0B8FF206801F071
:101EA000E0FA7449002000F0B1FF206801F0D9FA8F
:101EB00000F0C7FFFF220240352A00D159E76C2A03
:101EC00000D054E76C4B14270B93ADE56B49002011
:101ED00000F09CFFFFF719FC28602A68684B9A42C3
:101EE00001D1684B2B602A686749002001F0A1F9F5
:101EF0009AE56649002000F089FFFFF706FC306094
:101F000032685F4B9A4201D15E4B33603268604960
:101F1000EBE76049002000F079FFFFF7F6FB5E4B2E
:101F20005E4918601A68E0E75D49002000F06EFF26
:101F3000FFF7D6FB5B4902000990D6E75A4900201B
:101F400000F064FFFFF7CCFB584D020029000400AD
:101F5000002001F06EF95649002000F057FFFFF70E
:101F6000BFFB12AE020029003070002001F061F9C1
:101F70005049992C00D163E14F4B0A981B6827AD5B
:101F800028932C80FFF764F920226B469B18187861
:101F9000FEF7E6FF099B13AA1370484B29001B6844
:101FA0000020029301230096019302F00DF9021E16
:101FB00003D00020424901F03CF9FEF7E7FF33E58A
:101FC0004049002000F022FFFFF79FFB83B21A0078
:101FD0003D490A9389E73D49002000F017FF0120A1
:101FE000FFF7F6FB20E53A49002000F00FFFFFF76E
:101FF0008CFB83B21A003749089376E7E559000055
:10200000FF5900001A5A0000385A0000555A0000C3
:10201000745A0000935A0000AD5A0000D85A0000CC
:10202000F85A0000255B0000F55E000070000020FB
:10203000385B0000435B0000815B0000B15B000087
:10204000EE5B00002D5C00006B5C0000A85C0000F3
:10205000E65C0000235D0000625D00009F5D000003
:10206000C85D0000055E00003C5E0000795E000077
:10207000B65E0000E15E000060000020115F00001D
:102080000F270000102700003F5F00005F5F000087
:102090008D5F0000A75F00008CFEFF1FD65F000071
:1020A000F15F0000276000003E60000071600000EA
:1020B00087600000B060000074FEFF1F78FEFF1F05
:1020C000D6600000F7600000236100004561000059
:1020D00073610000AF610000099A9B49002001F084
:1020E000A8F800F0AEFE99490C90002000F08EFE9A
:1020F00000F0A7FE96490D90002000F087FE00F04A
:10210000A0FE94490E90002000F080FEFFF7FDFA3B
:1021100091490500002000F079FEFFF7F6FA8F499B
:102120000600002000F072FEFFF7EFFA8C49040071
:10213000002000F06BFEFFF7D3FA089B3A000F90E7
:1021400001938849099B02950096002001F071F8DF
:102150006A4620210C9B5218303B0F99581E834130
:102160000E98127806910A9930380491411E8841E0
:1021700001900D98A4B23038009009993800DBB274
:10218000059403960295FFF7F3F94DE47649002094
:1021900000F03CFEFFF79BF87449002000F036FE8B
:1021A0007349002000F032FEFFF79AFA27AE71491A
:1021B0003070002000F02AFEFFF7A7FA30226B46AD
:1021C0009B181D78040033780A9A6C2D15D1019262
:1021D000089A694900920200002001F02AF80025BF
:1021E000A54200DB20E427AB1A7800230121FF2061
:1021F0000093FFF7ABFA0135F2E700925F49020066
:10220000002001F016F80025A54200DB0CE40121B6
:1022100027A8FFF7BDFA0135F6E70A98FFF718F887
:10222000FFF702FCFFF734F8FFF7FEFB0021022066
:1022300000F0E4F8FFF7F8FB00210820F8E74B492D
:10224000002000F0E3FDFFF7EFFB0B9B4C49002B58
:10225000F6D04C49002000F0D9FDFFF741FA0B9B66
:102260001870FFF7E1FB4849002000F0CFFD474818
:1022700001F0F7F84649E3E74649002000F0C6FDC3
:1022800020226B469B181878FEF76AFE4249002010
:1022900000F0BCFD00F0D5FD40490500002000F035
:1022A000B5FDFFF732FA86B232003D49002000F05A
:1022B000C0FF206801F0D5F8E9B268394D426941A4
:1022C00032000120089BC9B2FFF70CF83549002005
:1022D00000F0AFFF00F0B5FD002000F037FB324901
:1022E0000600002000F0A5FF00F0ABFD002000F08C
:1022F0002DFB00255E270890012000F027FB089B9E
:10230000801B991B7843FEF7AFFC284904000200AC
:10231000002000F08EFFA54209DA5D2C0DDD3800AB
:1023200000F0E0F93C0000E02C002500E4E7A542C5
:10233000FADD2900200000F043FA200000F0D2F975
:10234000F3E71B497CE7C046CC6100000662000051
:102350002F6200004862000087620000B362000044
:10236000EB6200001C63000059630000456100003F
:102370007C6300009B630000BB6300000D640000F1
:102380004B64000089640000C16400001027000055
:10239000E0640000EA640000036500002C650000B2
:1023A00074650000AC650000C2650000D8650000DF
:1023B000DD6500001FB5040001A9002002F0B8FA95
:1023C000694601A802F0F2F9009B68461C1901A9B0
:1023D000009402F073F9012201A9002002F0D4FA5E
:1023E0001FBD00000022034B1A608022024B120620
:1023F000DA67704700A01C5804E100E070B50D00DA
:102400000A2408281CD8FEF791FB051D2A3F5467B3
:102410006C6F5C0001F0CCFB0524012810D0FFF7A5
:10242000E1FF2800FFF7C6FF0021080001F04CFA89
:1024300001210400002001F063F8002C22D10024C7
:10244000200070BD01F0B4FB06240128F8D0FFF78E
:10245000C9FF2800FFF7AEFF00210120E6E701F0E9
:10246000A7FB08240128EBD001F0C8F8002803D00E
:102470000121002001F044F80021022001F024FA9B
:102480000028DCD00924DBE701F092FB07240028B8
:10249000D6D0FFF7A7FF2800FFF78CFF002103200D
:1024A00001F012FA040001F083FB01210028C4D1DD
:1024B000C1E7FFF797FF2800FFF77CFF002104200A
:1024C000EEE70021082001F0FFF9041EDAD1012116
:1024D000080001F015F8B3E70021052001F0F4F938
:1024E000D0E700210620F9E700210720F6E70000E9
:1024F00037B50E25FF350400280001F007FC0A203F
:1025000000F0AFFF280001F00FFC0C2001F00CFCE4
:10251000FA23084A9B00147000210193012308004C
:102520000093054B02F082FB0400280001F0EEFB53
:1025300020003EBDE1000020E0000020C02310B5D7
:102540008024634A9B001360624A64001360FEF7B4
:10255000B9FC614B20001C60604B1C60604B1C6030
:1025600001F0D4FB642000F07CFF200001F0DCFBD4
:10257000642000F076FF200001F0C8FB642000F02A
:1025800070FFAE20FFF7B4FFA020FFF7B1FF72206D
:10259000FFF7AEFFA120FFF7ABFF0020FFF7A8FF7A
:1025A000A220FFF7A5FF0020FFF7A2FFA420FFF75E
:1025B0009FFFA820FFF79CFF3F20FFF799FFAD206A
:1025C000FFF796FF8E20FFF793FFB020FFF790FFF5
:1025D0000B20FFF78DFFB120FFF78AFF3120FFF7B7
:1025E00087FFB320FFF784FFF020FFF781FF8A20E9
:1025F000FFF77EFF6420FFF77BFF8B20FFF778FF5C
:102600007820FFF775FF8A20FFF772FF6420FFF73D
:102610006FFFBB20FFF76CFF3A20FFF769FFBE207A
:10262000FFF766FF3E20FFF763FF8720FFF760FF9D
:102630000620FFF75DFF8120FFF75AFF9120FFF78B
:1026400057FF8220FFF754FF5020FFF751FF8320F0
:10265000FFF74EFF7D20FFF74BFFAF20FFF748FF4E
:102660002620FFF745FF0120FFF742FF2520FFF757
:102670003FFF0020FFF73CFF0020FFF739FF5F20FE
:10268000FFF736FF3F20FFF733FF2220FFF730FF31
:102690000020FFF72DFF0020FFF72AFF5F20FFF744
:1026A00027FF3F20FFF724FFFF20FFF721FFFF2038
:1026B000FFF71EFFFF20FFF71BFF0020FFF718FFAB
:1026C0000020FFF715FF0020FFF712FF002010BDCC
:1026D000209014542490145434A014543090145462
:1026E00000A0145410B504002E282EDD22205D2CED
:1026F00021DDFFF7FDFE0120FFF7FAFE0120FFF7C5
:10270000F7FE5E20FFF7F4FE3E20FFF7F1FE00200B
:10271000FFF7EEFEFF20FFF7EBFE0020FFF7E8FEDD
:102720000020FFF7E5FEFF20FFF7E2FE0020FFF7A5
:10273000DFFE002010BDFFF7DBFE0120FFF7D8FE13
:102740000120FFF7D5FEE0B2DCE7172819DD2220D3
:10275000FFF7CEFE0120FFF7CBFE0120FFF7C8FEFA
:10276000E0B2FFF7C5FE3E20FFF7C2FEFF20FFF7F5
:10277000BFFEFF20FFF7BCFE0020FFF7B9FEFF20E1
:10278000CFE70028D5DD2220FFF7B2FE0120FFF7BA
:10279000AFFE0120FFF7ACFEE0B2FFF7A9FE3E203E
:1027A000FFF7A6FEFF20FFF7A3FE0020FFF7A0FE25
:1027B0000020FFF79DFEFF20FFF79AFE0020B3E701
:1027C00070B504000D0001342220FFF791FEE0B245
:1027D000FFF78EFE0120FFF78BFEE8B2FFF788FEC1
:1027E0003E20FFF785FE0020FFF782FE0020FFF766
:1027F0007FFE0020FFF77CFE0020FFF779FE00201F
:10280000FFF776FE0020FFF773FE002070BD00008A
:1028100030B502250D4B89B01B7806AC23800C4BDC
:1028200049BA1B6804AA079305AB198009491070BF
:10283000096800200291009321000123019501F015
:10284000C3FC002800D0280009B030BD6000002083
:1028500074FEFF1F78FEFF1F08707047A02110B59F
:102860000020FF31FFF7D4FF10BD000000B589B094
:10287000030068460A000F49097801750320052BFB
:1028800016D80D49087806A908800C4800684860E9
:10289000684603750A4B00201B6801920293094B9E
:1028A00005AA0093012301F09CFC002800D002201F
:1028B00009B000BD0F6600006000002074FEFF1F1D
:1028C00078FEFF1F68000020A02170B5FF310020B6
:1028D000FFF79EFF9A210520FF31FFF799FF00289F
:1028E00003D00020154900F0A4FC02210800FFF7E6
:1028F000BDFF134D022101202B7A6B7AFFF7B6FF43
:10290000022104202B7A6B7AFFF7B0FF022103200B
:102910002C7A6E7AFFF7AAFFE4B22B7AF6B26B7AC2
:10292000002804D00020074900F070FA70BD24028E
:102930003443054922B200F07CFCF7E71166000041
:10294000600000201E66000045520000F7B52649D1
:102950000400002000F06DFC85200021400001F003
:10296000C5F90C200121FF3001F0C0F900201F49FA
:1029700000F05FFCC826002C00D0A03E0024852774
:1029800025007F000C20FF3001F0CEF9052000F07B
:1029900068FD0C20FF3001F0B9F90A2000F061FD5C
:1029A0000C20FF3001F0C0F9380001F0CBF900280D
:1029B000FAD000230193012810D0019B0134ED18B7
:1029C000A642DFD131002800FEF74EF904000200D4
:1029D0000749002000F02DFC2000FEBD380001F06A
:1029E000B1F9019B0133E5E725660000336600007D
:1029F000455200000B0000B50C4A89B0127806A9B8
:102A00000A800B4A12684A6005AA107004A8037075
:102A1000084B1B680090029301230020019301F0F2
:102A2000D3FB002800D0022009B000BD70000020B8
:102A300074FEFF1F78FEFF1FC223FF3308704B6038
:102A4000704770B50D0001000920FFF7D3FF290082
:102A500004002A20FFF7CEFF2043C0B270BD000063
:102A600000B589B0030068460A0014490978017569
:102A7000182B1BD8D91F032001291CD9104908780D
:102A800006A908800F4800684860684603750E4B29
:102A900000201B68019202930C4B05AA00930123AE
:102AA00001F09FFB002806D0022004E019001D3928
:102AB00003201429E2D909B000BDC0460F6600000A
:102AC0007000002074FEFF1F78FEFF1F78000020BA
:102AD00070B5022104000120FFF7C2FF304D2A7AB1
:102AE0006B7AD2B2DBB2002820D000202D4900F052
:102AF0008DF902210320FFF7B3FF2A7A6B7AD2B255
:102B0000DBB2002825D00020264900F07FF9022101
:102B10000520FFF7A5FF2A7A6B7AD2B2DBB2002834
:102B20002AD000201F4900F071F970BD002C03D09D
:102B30001D4900F07EFBDCE79B0892011A438023CD
:102B40009B015A40194B20001949D21800F071FB23
:102B5000CFE7002C03D0144900F06BFBD7E79B08AC
:102B600092011A4380239B015A40104B20001049C8
:102B7000D21800F05EFBCAE7002C03D00A4900F02F
:102B800058FBD2E79B0892011A4380239B015A40CD
:102B9000064B20000649D21800F04BFBC5E7C046A3
:102BA000700000201E6600004066000000E0FFFF8D
:102BB000375200000369C268934201D880681B182D
:102BC000013B981A7047F7B58368C46801931F1BCF
:102BD000436805000E001819A418974207D83A0058
:102BE000FDF722FD019B6868E41A2200F119FDF748
:102BF0001BFDEC60F7BD0023F7B506001700C568A4
:102C0000019100933369B4689D421FD2013B5B1B65
:102C1000641BBC4200D93C009C4200D91C00736874
:102C2000220058190199FDF7FFFC009B2D191B1973
:102C30000093019B3F1B1B190193B368AB4200D16A
:102C40000025F560002FDDD10098FEBD1B19DDE7E2
:102C5000022310B50F4C104A236163610F4BA26130
:102C6000E361C823A2640E4A2362E26400230422C3
:102C7000A3626362E362A3656365E3652265094954
:102C8000E01DFDF747FE20000749FDF743FE202326
:102C9000A37110BDE4000020506600006001002018
:102CA0005C010020596600005D660000F0B5274B0E
:102CB00085B01B780E0002900192002B01D1FFF726
:102CC000C7FF1823029A00255343204AD3185A6D90
:102CD0009C6D0392944219D91B6D019D1B1B9D4253
:102CE00000D91D001827029B30005F43174B2A00B4
:102CF000DF19FB6C76191919FDF796FC019B641915
:102D00005B1B01933B6DA34200D10024039B019FF9
:102D10001B1B9F4200D91F00002F0CD01823029AC2
:102D200030005343094AED19D318D96C3A000919F8
:102D3000FDF77AFCE419002D05D01823029A034808
:102D40005343C0188465280005B0F0BDE40000209E
:102D500010B50B00EFF31084012181F310881900E6
:102D6000FFF7A4FF84F3108810BD0000F8B516002B
:102D70001822451C55434243164B0F005D199B1802
:102D8000DC6A012C10D0022C1BD0002C1FD1280093
:102D9000FFF710FF864205D8320039002800FFF700
:102DA00012FF34002000F8BD2800FFF703FF3400B5
:102DB000864200D90400220039002800FFF703FFF3
:102DC000F0E732002800FFF716FF0400EAE70024CE
:102DD000E8E7C046E4000020F8B50B4B04001B7880
:102DE0000E001700002B01D1FFF732FFEFF3108523
:102DF000012181F310883A0031002000FFF7B6FF6F
:102E000085F31088F8BDC046E400002070B50500C9
:102E100008000C00FDF786FD210002002800FFF7E6
:102E2000DBFF70BD13B56B46DC1D012221000020C5
:102E3000FFF78EFF012801D1207816BD0120404206
:102E4000FBE710B5FFF7EEFF0028FBDB10BD00002D
:102E5000F7B5164C0193237805000F001600002BE0
:102E600001D1FFF7F5FE2369AB421CD9EFF31082C5
:102E7000012181F31088002D0CD01823691C5943BF
:102E80006B43675061184E600199E3181962002185
:102E90009962596218204543089B6419E36282F3E2
:102EA00010880020FEBD01204042FBE7E400002026
:102EB000826810B504004068531C834205D820681E
:102EC0008154A360E3680133E360A26863689A42B7
:102ED00009D121682069FFF77FFFA368984203D0DA
:102EE00001235B42E36010BD0023A360FBE7000009
:102EF000F0B5050017000800012685B00A9C029174
:102F00000093B84219D2009A0196964200D20192DB
:102F100001230B9A1A4003920B9A1A4202D1002CF9
:102F200010D10024EB680126002B4BDB009B012B0A
:102F30001FD9013B00937E43F8E73900FDF70AFEF5
:102F40000136DEE70B9B20269B0704D5009B10363D
:102F5000002B00D0103E019BA342E3D23100280099
:102F6000FFF7A6FFEB68013C002BDBDB002CF2D166
:102F7000D7E731000298FDF7EDFD8742DBD90298D3
:102F80003100FDF76DFE114B0291195C2800FFF72F
:102F90008FFFEB68002B05DB39003000FDF7DAFD11
:102FA000BE4211D2039B002B0CD0002C0AD0019BF7
:102FB000A34207D220212800FFF77AFFEB68013CEB
:102FC000002BF2DA05B0F0BD0600D8E76466000019
:102FD000F0B59FB00EAB099340230A9300230E0077
:102FE000150007900B930D900C9331780136002952
:102FF00007D10C9B0393002B00DD09E10C981FB057
:10300000F0BD252900D0B3E000270822042006E007
:10301000302B0DD1022300E001231F430E00337833
:10302000711C2D2BF8D0F3D8232B10D02B2B0CD0C8
:1030300000240A213378721C18003038092808D877
:103040004C43303C16001C19F4E70743E6E71743EE
:10305000E4E7002103912E2B0ED116000A203278CE
:10306000711C1300303B092B06D8039B0E00434311
:10307000303BD3180393F2E7042331780A0001367A
:103080009A43682A01D13178F8E7782909D86F295D
:103090000BD8632967D017D8252969D0582900D1C2
:1030A00095E00C9B002BA0DAA3E7703908000829F3
:1030B000F7D8FDF745FDA500F6FFF6FF9400F6FFF3
:1030C0008300F6FFF6FF8C006429EAD12B681A1DF5
:1030D0001B682A60DA17981804930123504005935F
:1030E000092849DC039B059A0693934200D2069275
:1030F000002C05D0049B002B01DB7B0700D5013C95
:1031000002231F4202D0039B002B05D001231F4244
:1031100002D1002C36D100240C9B0593002BC0DB80
:10312000049B002B3ADA2D215B42049309A8FFF798
:10313000BFFE0C9B002BB4DB03233B40022B05D1CD
:10314000039B002B02D1002C2CD100240C9B059357
:10315000002BA6DB0A22039B04990197009409A87F
:10316000FFF7C6FE9DE72B6819681A1D2A60C9B2D1
:1031700009A8FFF79DFE94E70A21FDF775FD059B61
:103180000133ACE7069BA342C6D2202109A8FFF772
:103190008FFE0C9B013C002BBBDABDE77B07C8D53B
:1031A0002B21C3E7069BA342D0D2302109A8FFF709
:1031B0007FFE0C9B013C002BC5DAC7E70A22296879
:1031C00001970B1D2B60039B00940968C7E72968D2
:1031D00001970B1D2B60039B00941022F5E72B68D1
:1031E0001A1D2A601C6821780134002900D158E793
:1031F00009A8FFF75DFE0C9B0393002BF3DA50E761
:1032000029680B1D2B600023019308330093E4E72A
:103210000B9A002A03D007980EA9FFF7DDFD0C9B3F
:1032200003930B9B0493049A039B944663440C936F
:10323000E4E60EB403B503AB02CB01AA0193FFF79A
:10324000C7FE02B008BC03B0184710B5002000F05C
:1032500089FD10BD10B5002001F0F4FB10BD000089
:10326000082310B5164A9178194202D091780B4381
:103270009370882100222220124B49015A50124992
:10328000124C0870802012494002585019681148A9
:1032900001401960195910480840C02189040143B0
:1032A000195180210D4B1A7219767F391A70597095
:1032B0000B490A700C3299791142FCD110BDC046FD
:1032C00000D007400070044000E0074004100000F8
:1032D00044100000FFFFF3FFFFFFFFF00040064037
:1032E000005006401249134810B5814205D0002213
:1032F000114B9B089B009A420FD1104B104A9960CA
:10330000002310491048521A9A420AD100210F4B4B
:103310000F4AD21A013A08D210BD84588C50043298
:10332000E9E7CC5CC4540133EEE719700133F1E7EF
:1033300000000000000000000000000000ED00E0C0
:1033400074690000CC67000000FEFF1FA8FFFF1F8C
:10335000C40200200300417000201870586098607B
:10336000704710B5437804000120FF2B08D000F00F
:1033700051FA63780133DBB2637000F03FFA00204A
:1033800010BD0020704770B504000D0000F042FA37
:10339000E1682943E16000F031FA002070BD0000CF
:1033A00000220A4B9A641A0040329A631A003032A3
:1033B0009A621A0020329A611A0010329A60044A06
:1033C0001360044B9B60DB607047C0462C020020FA
:1033D000280200207C0200200022024B1A6018689C
:1033E00080B270470C007C5070B5437804000D002B
:1033F000002B0BD0002500F00DFA6378013BDBB207
:103400006370257000F0FAF9280070BD02200029D1
:10341000FBD02378002B17D0FFF7DEFF6368A2688C
:10342000834204D8C01A824206D30320EDE7C01AB3
:1034300080235B02C018F6E700F0ECF9002323704C
:1034400000F0DCF90220E0E74B1CEED000F0E2F9DE
:103450000123237000F0D2F9FFF7BEFFA560606082
:10346000E3E770B50500FFF7B7FF8026040076029A
:10347000FFF7B2FF0300844203D8031B9D42F7D23B
:1034800070BD301BC318F9E710B5012801D100F059
:10349000C1F910BD10B5012801D100F0AFF910BD80
:1034A00010B5FFF77DFF01230020084A084913608B
:1034B000084A094C1060086004212160074C216013
:1034C00007490B6007490860136010BD388004503D
:1034D0000000845000000450000004510400045116
:1034E00004000C500000045310B5044C20602171FE
:1034F0000020A2602373637310BDC0468C020020BD
:103500000422F0B587B005AC3B4E019002912070CB
:10351000617033790092834226D90022337B1500F3
:10352000737301230092A3700393334F3B7BAB4231
:103530001DD8009B002B02D0029B012B48D10120FB
:10354000FFF7A2FF0C20019B002558433368181891
:1035500000F0C2F8019B012073710226FFF79AFF69
:10356000A6703B7BAB421AD8009807B0F0BDBA6892
:10357000AB009B58002B0FD01A7903990A420BD04D
:1035800020001A6899689047002805D0029B7D7337
:10359000002B1BD0052300930135EDB2C5E7BA68B7
:1035A000AB009B58002B0ED01A7932420BD0200072
:1035B0001A6899689047002805D0029B7D73002BFC
:1035C00017D0062300930135EDB2CAE70523009317
:1035D0000023A370013DEDB2FF2DC5D0064BAA001C
:1035E0009B68D358002BF5D020001A689968904743
:1035F000F0E706230093B7E78C020020014B5879CF
:103600007047C0468C02002013B5040000202178CA
:103610000190022920D0032922D0012925D1227925
:1036200001AB144800F0DEFF002814D1A3795A1E24
:103630009341114ADB01137063785A1E93410F4A7C
:103640005B001370A2780E4B1A70E2780D4B1A7063
:1036500062790D4B1A7016BD0100227901ABE0E7CB
:1036600001A9044801F000F8DEE701A9014800F0D3
:103670009DFFD9E700400640184086530040865021
:10368000004006500140065018401650074A4309B2
:103690009B009B18F822C005120510401843802398
:1036A0005B051843002303607047C0462880044030
:1036B000F821084A43099B009B180905C2050A40E6
:1036C00013438022520513431F2210401E3A8240AA
:1036D0001A60704728800440072373B500930023C5
:1036E0000400104D1A000121280001F09DF920006E
:1036F000FFF78AFF637A280000930023217A1A00DB
:1037000001F092F9E379084A9B041360074BA17A10
:103710001D68280000F0C4FF2800E17A00F0C7FF10
:10372000002076BD0070044000700C59C466000093
:1037300010B5054800F0FAFE044B1968C9B2013112
:10374000FDF708FA10BDC0460040064044801C5EEC
:1037500010B5FFF7EDFF10BD10B5054800F0E6FE0F
:10376000044B1968C9B20131FDF7F4F910BDC04628
:10377000004006404480145810B5FFF7EDFF10BD1F
:103780000B4B1B68DBB2022B0CD0032B0DD000209F
:10379000834206D1074A106880221202904200D06C
:1037A00018007047044B1868FBE7FA208000F8E720
:1037B00000700C59B4020020B802002010B5FFF7C9
:1037C000DFFF10BD10B5024B185CFFF771FF10BD95
:1037D0007466000010B57620FFF76AFF10BD10B5C3
:1037E0007620FFF753FF10BD10B56620FFF760FF8E
:1037F00010BD10B56620FFF749FF10BD044A1368DD
:10380000002B04D0013B1360002B00D162B670473F
:103810009C02002072B6024A13680133136070479D
:103820009C02002010B5064C064801F08FFB0428CE
:1038300001D1002010BD013C002CF5D10320F9E797
:10384000EA03000000E0074010B50B4B0B490A7873
:10385000002A07D0084C0A4801F078FB012806D15D
:10386000002003E0013B002BF1D1032010BD013CFF
:10387000002CF0D1F9E7C046EA03000002D007515E
:1038800000E00740F7B507000E0015000120019386
:10389000002F15D0002913D0FFF7F6FD094C102298
:1038A00000212000FCF714FF27602671002D03D0B3
:1038B000019BA560237363730120FFF7EBFD0020DC
:1038C000FEBDC046A0020020F0B5B14C8DB0029004
:1038D0000391237B01206373FFF7D6FD2379029ABE
:1038E000934206D80120FFF7D5FD022738000DB01E
:1038F000F0BD029A23689200D35809AC1D78019359
:10390000039B2A002372029B2370019B63600223A6
:103910009A430492012A01D0052D0AD101219D4824
:1039200001F068FA002807D10120FFF7B3FD012755
:10393000DCE70321072DF2D80123002763723C0046
:103940000593934E337BA3422AD80120FFF7A2FDB3
:10395000914800F00FFE049B012B4AD10138022848
:1039600035D9039B012B00D00DE106270120FFF77D
:103970008BFD0023012609AD6B72013CE4B2FF2CE4
:1039800000D1AFE0824BA2009B68D358002BF4D04B
:103990001A793242F1D028001A6899689047ECE70A
:1039A000B268A3009B58002B0ED01A7905990A42E1
:1039B0000AD01A68996809A89047002804D0039B88
:1039C00004277473012BC0D10134E4B2B9E7FFF7C7
:1039D000D3FE724B9842C4D8FFF7AAFE704EB04295
:1039E000BFD8FFF7B9FEB042BBD8FFF7B1FEB04277
:1039F000B7D8039B012B00D0C1E00A2D00D9BCE051
:103A00002800FDF793F8060A0D1E879A7B822F7314
:103A10007800002207AB1A702DE0032207ABFAE70B
:103A20005C4801F093FA012808D00021594801F0C0
:103A3000F1F9FFF709FF071E00D057E7012207AB96
:103A4000E9E7544801F082FA042808D002215148DD
:103A500001F0E0F9FFF7E6FE071E00D046E704227A
:103A600007ABD8E7072207AB1A80019AD2789A7081
:103A7000019A1279DA702B00083B022B06D8019BC1
:103A800006AA5B799372019B9B79D372019B5B7849
:103A9000002B0AD0012D08D9019B02229978414BB5
:103AA00000294DD019690A431A613A4807A901F063
:103AB000D5F9002800D00327002D45D1FFF7C4FE1B
:103AC000071E00D012E700270120FFF7DDFC029B54
:103AD0002F4D0024AB73022309AE737201932B7B2D
:103AE000A34236D80120FFF7D5FCFFE6082207AB3A
:103AF000FF321A80BFE72C4A07ABFAE7022207AB76
:103B00001A700222FF329A80B5E7022207AB1A70C0
:103B1000264AF8E7022207AB1A70013A1D489A803C
:103B200001F014FA0128A6D000211A4801F072F918
:103B3000FFF78AFE071E9ED0D8E6052207AB6AE78C
:103B4000196991431961B0E7012DBDD1FFF76AFEF4
:103B5000B6E7AA68A3009B58002B0BD01A790199ED
:103B60000A4207D030001A6899689047002801D0AF
:103B700005276C730134E4B2B1E70327B6E6002FE2
:103B800000D13AE7F2E6002F00D0EFE6EDE6C046BE
:103B9000A002002000E007400040064040420F0025
:103BA00080841E0000ED00E0070300000102000019
:103BB00010B5064801F0CAF903000020012B03D01C
:103BC0000B30042B00D10A3810BDC04600E007407E
:103BD000F7B5FF2403681D4A1E0A26401C40B300A7
:103BE0009F581B4A05009B5830000193FFF7EAFDE0
:103BF00000222100380001F0B1F9019BA400E41873
:103C000084232A795B05234352001A6080236A7952
:103C10005B0523431A609023AA795B0523431201B5
:103C20001A600C4B1C43EB791B042360EB79002BCF
:103C30000AD0094B9B57002B06D01F2213401E3A77
:103C40009A401300054A1360F7BDC046C8660000DD
:103C5000D066000000001818D866000000E100E0FF
:103C6000F8B5FF2405000368114A180A20401C40DB
:103C700083009F580F4A9E58FFF7A4FD380021008B
:103C8000012201F06BF96A682100380001F075F932
:103C900088232A7AA400A4195B05234392001A60A2
:103CA00098235B051C436B7A9B012360F8BDC046DB
:103CB000C8660000D066000070B50C00002807D16F
:103CC000002C0FD170BD05000835FFF781FF2800DB
:103CD00003680133F7D1F3E7250020000C35FFF727
:103CE000BFFF2C0023680133F6D1EBE7FF230A0066
:103CF000010010B5000A19401840034B8000C0585D
:103D000001F02CF910BDC046C8660000FF22030A6E
:103D1000044913409B0059580123104083404B60D5
:103D20007047C046C8660000FF22030A04491340DA
:103D30009B0059580123104083408B607047C04658
:103D4000C8660000FF22030A054913409B005B5828
:103D500010401B69C3401800012318407047C0463B
:103D6000C8660000084B8200D258942310B5023276
:103D70005B0513431B78002B02D000F03FFA10BD07
:103D800000F092FAFBE7C04678660000020080234C
:103D90000C325B0513431A78002AFCD0017170477E
:103DA00070B50D00084B8000C45820002900183061
:103DB000FFF71AFB0328F8D0002801D0042323744E
:103DC000207CC0B270BDC046B002002010B5104BC0
:103DD0008000C458E37C002B05D0237C052B02D047
:103DE000237C042B0BD10B4B18589823821C5B05AA
:103DF000134300221A7001F02FF901236374A37C8E
:103E0000002B03D020001830FFF7ABFA10BDC046DE
:103E1000B002002078660000F0B51700002289B0DB
:103E200005930EAB1B7805000393830032481E58A0
:103E300032481C5807AB1A80A37C880A04930223DB
:103E4000FF3363828B0A0193CBB21E2801D11A0083
:103E50000B0A5B00D8B2019B00211E2B05D08F42BC
:103E600003D1012303995B1A59B20143CBB20293E8
:103E70000299019807AB197001211E2801D15A70CF
:103E80004918A3603000E1600299FFF77FFF280026
:103E90000F99FFF785FF237C002B0CD1002F0AD050
:103EA000059BA760E36030003978FFF76FFF2800BB
:103EB0000F99FFF775FF237C039A1A4314D1019BD6
:103EC0001E2B01D0002F0FD0002301273000A3604C
:103ED000E76001F0AFF8029930003943FFF756FF71
:103EE00028000F99FFF75CFF0023207CE374049BFC
:103EF000C0B2A37409B0F0BD78660000B002002023
:103F0000F7B583000193184B8200D75805000C00C9
:103F10000126002F26D1154B3900D358200024222A
:103F20000193FCF7D5FB200039001830FFF712FA97
:103F30002800FFF759FC019801F027F80A4BAA0066
:103F4000D4501F220A4B5B5D134032009A40094B4C
:103F50001A609C22019B520502331343802266742F
:103F60003E001A703000FEBDB002002078660000EE
:103F70007C66000000E100E0F7B50E4E8500AB590D
:103F8000002701930C4B0400EA589C2302325B0586
:103F900013431F70FFF72DFC084B01981A5D1F2378
:103FA0001A401E3B9340064A1830D367FFF7E9F9E1
:103FB000AF51F7BDB0020020786600007C660000BB
:103FC00004E100E00A4B800070B5C5584B686A698F
:103FD0000C0093420BD0074BC658FFF7BDFB0023E4
:103FE00001006268300000F0DFFF63686B6170BD44
:103FF000B002002078660000F0B587B00492059307
:10400000334A0FAB1E7883009C580391627C0700F3
:10401000002A03D10320207407B0F0BD002E01D187
:104020001E220E922B4A3800D55800230399E360D4
:10403000A360237423606374A674FFF7C3FF902307
:104040001021AA1C5B05134319708423E91C5B052E
:104050000B430221197098235B05134302934023FD
:10406000029A2800137000F0E5FF039B38001988BE
:104070000E9B049A019301230093059BFFF7CCFE4E
:104080000D9B002B17D0237C002B11D10C9B2800FB
:10409000A3600D9BE3600C9B1978FFF777FE002E61
:1040A00003D038000E99FFF77BFE207CC0B2B3E747
:1040B000237C042BF9D100230126029A1370EB789C
:1040C0005B09334202D0280000F0C6FF6674ECE7BB
:1040D000B002002078660000F0B589B0079311ABFC
:1040E0001B780692364A029383009C580591627CA5
:1040F0000600002A03D10320207409B0F0BD029A03
:10410000002A01D11E32109200272E4A0599D55857
:104110000E9B300023600F9BA7606360029BE760EB
:10412000A37427746774FFF74DFF9023AA1C5B05E7
:104130001A4310231370842304925B05EA1C134373
:1041400002221A709823AA185B051A4340232800FC
:104150001370039200F06EFF059B069A1988109B5E
:10416000300001930097079BFFF756FE237CDAB2DD
:10417000BB4215D1049BA91C1A708C235B050B4311
:104180000F99012900D108221A702B79029B002B6C
:1041900003D030001099FFF703FE207CC0B2ACE7DB
:1041A000237C042BF9D10126039B1F70EB785B095C
:1041B000334202D0280000F04FFF6674EDE7C0469E
:1041C000B0020020786600001FB501240394089C0B
:1041D0000294079C0194069C0094FFF70DFF04B025
:1041E00010BD1FB501240394089C0294079C019400
:1041F000069C0094FFF770FF04B010BD244B70B50F
:104200008400E5588423EA1C5B05134302221A70DC
:104210009023A9185B050B431B78EA78DBB2920662
:104220001DD5942252050A431278002A17D0194A44
:10423000A458012B14D1EA781A4204D00433237411
:10424000FFF7C4FD0BE0E368013BE360002BF7D010
:10425000A36828005A1CA2605978FFF797FD70BD2B
:104260006268013A6260002A06D08C235B05012A4D
:104270000AD000220B4309E0FFF7A8FD23685A1C6F
:1042800022602A791A70EAE708220B431A70F5E7D0
:1042900078660000B0020020C31C8420400518434B
:1042A00002230370704700000122F0B5904B81009B
:1042B000CD5889B0EB1C0193EB7890261B091A406E
:1042C00005920122EB7876059B091A400292320092
:1042D000AB1D1A43944612780090D2B207929422F2
:1042E00052051A431278AF1CD0B2039098204005B3
:1042F00003431878C0B206907E480C583100394309
:1043000001910978C9B20491002A35D0079A002A90
:104310000ED01023624628001370FFF7BDFF236BF9
:10432000002B52D06A4601211078626B98474CE00E
:10433000069A002A20D0402228001A70FFF7ACFF0E
:1043400023002C331B78002B03D1982252051743EE
:104350003B70236B002B04D06A4680211078626B7F
:104360009847E37D002B04D0200080211830FFF710
:104370000AF80A23237028E02800FFF78DFF059B29
:10438000002B24D0EB1C1E4310233370029B002B08
:1043900010D0EB785B07DA0F002B48DB019B1A701B
:1043A000236B002B04D06A4604211078626B984777
:1043B0002B790AE0082323702C342378002B04D1B6
:1043C00098235B051F43029B3B7009B0F0BD029B25
:1043D000002BDED1049B012B54D1EB78049A1342BD
:1043E00030D0019B029A1A702B7923002C331B7852
:1043F000002B07D1039B002B04D198235B051F439F
:10440000039B3B70236B002B04D06A460821107875
:10441000626B9847A37D002B04D020000821183040
:10442000FEF7B1FF00236360E3602375CDE710233F
:10443000019A1370236B002B04D06A460221107876
:10444000626B98476368002B50D028008022E36895
:104450000C3052051978024310780028FCD02971DD
:104460000133E3606368013B63606368002BACD198
:10447000E3602375236B002BA7D06A4610211078C8
:10448000626B53E72B79A268DBB2002A2CD0226939
:104490001370236901332361A368013BA360A36800
:1044A000002B00D091E7039B002B11D123002C336C
:1044B0001B78002B04D198235B051F43039B3B70A3
:1044C000E37D002B04D0200020211830FEF75BFF95
:1044D000002363752361236B002B00D175E76A46C7
:1044E00020211078626B21E7072343E7062341E789
:1044F00078660000B0020020842252050243127840
:104500000300D0B2002A0CD08020013340050343C1
:104510001878013843425841024B40421840024B40
:10452000C0187047808D5B0080841E0010B50D4B55
:10453000821D13431A780400D3B2002A0FD0012B36
:1045400007D1FFF7D9FF084B08341C432378D84024
:1045500010BD0020022BFBD1044B1868F8E704487B
:10456000F6E7C0460000081100009010B4020020D9
:10457000006CDC020C4A811D0A4312780300D0B2A1
:10458000012A04D002280BD000280BD170478022CA
:104590000133520513431B78002BF7D10220F5E7B6
:1045A0000320F3E70520F1E70000081102009C2337
:1045B00018325B05134380221A700022064B034316
:1045C0001A70064B063018430378DAB2002BFBD181
:1045D000034B10000B607047000008130000081127
:1045E000006CDC02F8B504000D0016001F00FFF798
:1045F000C1FF012823D1002D25D08023621C5B053B
:1046000013431D70842302225B0523431A7022008A
:10461000104B083213437200D2B21A7040220E4B74
:104620000E48234306341A7004432378012BFCD12F
:10463000002D0DD10A4B334100203B60F8BD02280C
:10464000DBD1012DD9D139002000FFF7AFFFD4E72E
:10465000044BF0E700009010000008130000081160
:1046600080841E0000127A0010B50A4C03002268F4
:104670000120002A0CD0084A7F301A4310700748E6
:10468000063303431A78022AFCD1002023680B600A
:1046900010BDC046B402002000000813000008113D
:1046A0009C23C9015B050343C9B219707047942369
:1046B00049015B050343C9B21970704770B50668BC
:1046C0000C0030002049FCF745FA1F490500300076
:1046D000FCF7C6FA0E00E12130000901FCF73AFAB6
:1046E000E121E08009013000FCF7BAFA0E003C211C
:1046F0003000FCF72FFA3C2120813000FCF7B0FAA3
:104700006E22A1720321114BFF3223802388954230
:104710000AD80F499B0700D10E490123CA5CAA425F
:104720000CD36380A58070BD01339BB223800B4006
:10473000AD1A5A425A416E32FF32E7E70133AD1AE1
:104740000D2BEBD1EEE7C04680510100B20700000F
:10475000A46600007D6600000188114A03008A18E3
:10476000002030B5812A17D85A88541E0B2C13D834
:104770009C88651E1E2D0FD8DD88172D0CD81D892D
:104780003B2D09D89B7A3B2B06D88B0705D0054BD0
:104790009B5CA3424041C0B230BD034BF8E7C0462A
:1047A0004EF8FFFFA46600007D66000070B5134D53
:1047B000838802885B196E25FF35554344885B1951
:1047C00095085B190E4D6600755B5B19920710D05A
:1047D0000B600A680B4BC4885343827A00899B188C
:1047E000E122120162439B183C2242439B180B605A
:1047F00070BD022CECD8013BEAE7C0464A05F5FF44
:104800008A660000805101008023084A1B0212685A
:104810009A4209D1A02310305B0518430368002B8E
:1048200002D10133FF3303607047C046B402002059
:104830000100802210B500230124520510311143DC
:104840000C600B6090214360490504601C300143FB
:104850000B608821490501430B6084214905014310
:1048600010430B60036010BD0200902314325B05FF
:10487000134300221A604260103201601A607047D0
:1048800003680B6070470000104B820070B5D5586C
:10489000802204000E4B92051A602800FFF7C8FF23
:1048A0002800FFF7B1FF0B4B1F261A5D01231800EC
:1048B00009493240095DC025314090408B40074A8C
:1048C0006D00505153511060136070BDB46600000C
:1048D0003C80845EB8660000B966000000E100E03C
:1048E000F7B50027114B8000C55808000E0001974E
:1048F000FFF732FF0400B84216D001A93000FFF7DD
:1049000055FF3800FEF75AFF010080200002814267
:1049100006D0FCF71FF901000198FCF71BF9019084
:1049200028000199FFF7A0FF2000FEBDB46600003B
:10493000F7B50025124B8000C4580E00200001A9D5
:104940000195FFF79DFF2800FEF738FF0500802046
:10495000000285420ED00B4B290004341C43FCF7A7
:10496000F9F82768019C29004443B8B2FCF7F2F833
:1049700024180194310001A8FFF7A0FEF7BDC0463E
:10498000B466000000007810F0B50027184B8000D6
:1049900085B0C55808000E0001920397FFF7DCFEB2
:1049A0000400B84203D10024200005B0F0BD30005F
:1049B00003A9FFF7FBFE38002E68FEF7FFFE01009B
:1049C00080200002814206D0FCF7C4F80100039861
:1049D000FCF7C0F80390039BB342E4D3AB60882399
:1049E0001C355B051D43019B9A002A60DCE7C0462D
:1049F000B4660000044B8000C25888231C325B055B
:104A00001343890019607047B4660000054B8000AD
:104A1000C258882314325B0513431868431E98411B
:104A2000C0B27047B46600006B46E0221B78D20229
:104A30001B041340024A09070B43801803607047A8
:104A400044100000084B8200D258902310B5033266
:104A50005B0513431B78002B02D000F013F910BD47
:104A600000F078F9FBE7C046BC6600009C210C4BC7
:104A70000C4A8000C3588258002003324905114374
:104A800010B518710870942149050A4310701A7FF7
:104A9000824203D020331800FEF763FC10BDC046ED
:104AA000BC020020BC660000F7B50C0005001B4BE3
:104AB0003022002187002000FE58FBF709FE280065
:104AC000FEF788FEFEF748FE2060300000F0E5FAB1
:104AD000200000212030FEF73DFCF31C01939023C1
:104AE000F21C5B051343102230001A70032100F002
:104AF00012FB3000002100F033FB094BFC50094B46
:104B00005A5D1F231A401E3B9340074A13609823A7
:104B1000019A5B05134340221A70F7BDBC66000082
:104B2000BC020020C066000000E100E0F8B50D4EB8
:104B300085000D4BAF590400E85800F0AEFA38007C
:104B40002030FEF71EFC094B20001A5D1F231A407F
:104B50001E3B9340064AD367FEF741FE0023AB514C
:104B6000F8BDC046BC020020BC660000C066000064
:104B700004E100E00A4B800070B5C658094B0C00F8
:104B8000C358150030001A68096800F08DFA2860D3
:104B9000A37930006279217900F0CFFA70BDC04668
:104BA000BC660000BC020020F7B51E4A83009C587A
:104BB000050022790420002A16D11B4A9E5800299C
:104BC00003D0280001AAFFF7D5FF98230021402039
:104BD000F21C5B0513431970187027698F4204D1CA
:104BE0002800FFF743FF0020FEBD0123237194231B
:104BF0005B05A16133431B780720002BF4D0A36829
:104C0000191E02D019780133A360B1712369013BE9
:104C10002361A3690133A3619C235B051A438023AD
:104C20001370E0E7BC020020BC660000F8B5134F2B
:104C3000134C85002C59ED590127069E2777A26059
:104C40002661E3606661FFF7AFFF002814D1200002
:104C500007992030FEF7C8FB0328F8D000280BD0B6
:104C60009C23002203355B052B4322711A70942389
:104C700003205B051D432A70F8BDC046BC660000DA
:104C8000BC02002010B51E4B8200D35819790029B0
:104C900034D01C4951585A69002A11D09C2252051F
:104CA0000A431278002A0BD08A79DC68D2B2002C31
:104CB00003D02270DA680132DA605A69013A5A6127
:104CC0001A69002A12D0942252050A431278002A47
:104CD0000CD09A68141E02D0147801329A608C713C
:104CE0001A69013A1A619A6901329A611A69002AAD
:104CF00004D15B69002B01D1FFF7B8FE10BDC0469F
:104D0000BC020020BC660000104A800081580022CE
:104D10000F4B10B5C3580331581CC2779C20400577
:104D20000843DA621A701A835A629A621A6302702E
:104D30009420400501430A701A0038321278002A84
:104D400003D00121181DFEF71EFB10BDBC6600003C
:104D5000BC02002070B5254B8200D358591CC97F76
:104D6000002942D022495258D96A002917DB9421E0
:104D7000490511430978002911D0D969CCB2596A83
:104D8000002905D0DD6A002D02DD0C780131596261
:104D90009471D96A0139D962596B01315963D96A61
:104DA000002905DA9421D41C4905214300240C7004
:104DB000196B002911DD9C2149051143097800294F
:104DC0000BD09279996AD2B2002903D00A709A6AFC
:104DD00001329A621A6B013A1A63DA6A002A04DC19
:104DE0001B6B002B01DCFFF78FFF70BDBC020020A6
:104DF000BC660000012903D0032909D000207047B8
:104E000094235B0518430078431E9841C0B2F6E72F
:104E10008423F6E7431C034849011843C9B20170D3
:104E20007047C04600008812831C94204901400549
:104E30001843C9B201707047831C034889011843A5
:104E4000C9B201707047C04600000813831C8C2053
:104E5000C90040051843C9B201707047F7B5040096
:104E6000364EE31C1E43337808780D00DBB207286A
:104E700060D8FBF75BFE04192B0E192B2B45304B2A
:104E800001341C43002323703378012BFCD1002014
:104E9000FEBD012BFCD12A4B01341C43402323705F
:104EA0003378042BFCD1F2E70021012801D0042043
:104EB0000231337898423FD12000FFF7ABFF042145
:104EC000204A13698B43136130BFE0E70227B842E1
:104ED00007D100270B79BB4203D020004979FFF7A7
:104EE000ABFF194B01341C4327703378154ADBB2F2
:104EF0000193019B01330193042311690B43E2E702
:104F00000421114B621C1A4311706A78A11C0B43D7
:104F10001A70002A06D1AB78002B03D02000E97864
:104F2000FFF782FFAB79002BDFD02000E979FFF794
:104F30008DFFDAE70120ABE70320A9E7000030107E
:104F40000000881200ED00E000001010C31C0248B1
:104F500018430078C0B270470000301001231430AD
:104F60008B40012A04D18022120510430360704750
:104F70008022D204DB431043F8E701238B40002A50
:104F800001D0436070478360FCE70023C2220370B6
:104F900043708370C37043718371C3710372427233
:104FA0008372C37270470000F0B5002487B002938B
:104FB000FA230126270025009B0053430390049108
:104FC000009301947642AB000593194BAA009B18FD
:104FD00059880498A140FBF7BDFD009B009AC31AB5
:104FE000824200D9131AB3421FD2114AA900525C5F
:104FF00027000192002B02D00135322D13D101344C
:10500000032C01D0002B0DD1029A002A00D013608E
:105010003F220199BB0111400B43039ADBB253704D
:1050200007B0F0BD00251E00CDE73300E4E7C04621
:10503000DA660000942302305B0503431B78002BE3
:1050400005D088235B051843042303707047802331
:105050001B0518433023F8E7942210B55205841C31
:10506000224311780300CAB2022001290DD1802108
:10507000C90421438024CD300870E400033319783B
:10508000490908001040114200D110BD013C002C1C
:1050900001D0C046F3E70920F7E70423C3700023DB
:1050A0008370437003717047F0B5130B89B001260C
:1050B000039308230124764202939B1907900491DD
:1050C0000592019302270025631E0693210005988F
:1050D0007943FBF73FFD049B834207D31B1AB3427E
:1050E00004D21E00069B03900295019301357F00B8
:1050F000092D01D0002EE9D1082C02D00134002E58
:10510000E0D1019B029A1B0103981343079ADBB27B
:10511000537009B0F0BD842310B50224C21C5B0596
:1051200013434A0022401A70902300195B0518436C
:105130001023C9001940017010BD10B58C24033034
:105140006405C9000443C9B2217088219200490551
:105150000143D2B20A70802252051043037010BD81
:105160008023012202305B0503430A401A708C231E
:105170005B0518430823890019400170704700003F
:1051800004FEFF1F1B5B306D1B5B343B34336D1B18
:105190005B313B33376D0D53616E69747920636801
:1051A00065636B206661696C6564211B5B306D0A09
:1051B000001B5B306D1B5B343B34316D1B5B313B43
:1051C00033376D0D496E76616C696420737570704C
:1051D0006C7920766F6C74616765205B25645D2057
:1051E0006D56211B5B306D0A00204D4D4138343522
:1051F0003120782C204D4D413834353120792C2008
:105200004D4D4138343531207A2C00205254432DF5
:105210003E5453522C205254432D3E5450522C2075
:105220002320436F6E666967204572726F72730048
:1052300025752C2025642C2025642C002025642C29
:105240002025642C2025640A000D09307825303291
:1052500078202D2D3E205B30782530327820307834
:1052600025303278203078253032785D0A000D09FB
:10527000307825303278202D2D3E20307825303280
:10528000780A000D09307825303278202D2D3E2007
:105290002D2D2D2D0A000D0A0925642F256420735C
:1052A00075636365737320726174652E0A000D095E
:1052B00025642F256420737563636573736573209C
:1052C0006D617463686564207265662E2076616C1A
:1052D0007565206F66203078253032782E0A000DF3
:1052E0000925642062616420636F6D6D616E647373
:1052F0002E0A0A000D0A4D4D4138343531513A0A13
:105300000D000D0A494E413231393A0A0D000D0A9D
:105310000A424D4536383020526561642041626F43
:10532000727465642E2044657669636520446973F0
:1053300061626C6564203A28000D0A094D414733CB
:1053400031313020526561642041626F727465644E
:105350002E204465766963652044697361626C65DB
:1053600064203A2820000D0A094C33474432304863
:1053700020526561642041626F727465642E20441E
:1053800065766963652044697361626C6564203A7F
:105390002820000D0A094C505332354820526561CF
:1053A000642041626F727465642E2044657669637F
:1053B000652044697361626C6564203A2820000DA1
:1053C0000A0954435333343732352052656164201F
:1053D00041626F727465642E20446576696365204E
:1053E00044697361626C6564203A2820000D0A09E3
:1053F00053493437303520526561642041626F7201
:105400007465642E20446576696365204469736120
:10541000626C6564203A2820000D0A094844433133
:1054200030303020526561642041626F727465646F
:105430002E204465766963652044697361626C65FA
:1054400064203A2820000D0A0953493730323120B0
:10545000526561642041626F727465642E204465F8
:10546000766963652044697361626C6564203A28DB
:1054700020000D0A094343533831312052656164DD
:105480002041626F727465642E204465766963659D
:105490002044697361626C6564203A2820000D0A1B
:1054A00009414D47383833342052656164204162E8
:1054B0006F727465642E2044657669636520446963
:1054C0007361626C6564203A2820000D0A0941531B
:1054D0003732363220526561642041626F727465E2
:1054E000642E204465766963652044697361626C4B
:1054F0006564203A2820000D0A09415337323633BB
:1055000020526561642041626F727465642E20448C
:1055100065766963652044697361626C6564203AED
:105520002820000D09496E76616C696420776172EC
:105530007053656E736F72446576696365205B2591
:10554000645D2070617373656420746F2072657090
:10555000656174526567697374657252656164460A
:105560006F72446576696365416E64416464726517
:1055700073732E0A000D0A094144584C3336322009
:10558000526561642041626F727465642E204465C7
:10559000766963652044697361626C6564203A28AA
:1055A000000D09506F776572646F776E20636F6DC1
:1055B0006D616E64206162616E646F6E65642E2041
:1055C0004C3347443230482064697361626C6564CF
:1055D0000A000D09506F776572646F776E20636FF4
:1055E0006D6D616E64206162616E646F6E65642EC4
:1055F0002054435333343732352064697361626C0D
:1056000065640A000A0A0A0D426F6F74696E6720AA
:10561000576172702C20696E20332E2E2E2000329E
:105620002E2E2E2000312E2E2E0A0D000D0A0A0AD3
:105630000A5B202A090909095709610972097009D9
:10564000287265762E2062290909092A205D0A0040
:105650000D5B20200909090920202020202043611A
:105660006D627269646765202F2050687973636F7B
:105670006D706C61622020200909090920205D0AF3
:105680000A000D09537570706C793D25646D562CB8
:105690000944656661756C74205461726765742095
:1056A000526561642052656769737465723D307834
:1056B000253032780A000D094932433D25646B627A
:1056C0002F732C095350493D25646B622F732C09AD
:1056D000554152543D25646B622F732C0949324366
:1056E0002050756C6C2D55703D25640A0A000D091B
:1056F00053494D2D3E53434743363D307825303294
:105700007809095254432D3E53523D3078253032AA
:105710007809095254432D3E5453523D3078253078
:1057200032780A000D094D43475F43313D307825FB
:105730003032780909094D43475F43323D307825BF
:1057400030327809094D43475F533D307825303278
:10575000780A000D094D43475F53433D30782530AB
:1057600032780909094D43475F4D433D3078253074
:10577000327809094F53435F43523D307825303228
:10578000780A000D09534D435F504D50524F543D20
:10579000307825303278090909534D435F504D4325
:1057A00054524C3D30782530327809095343422D0C
:1057B0003E5343523D3078253032780A000D09506F
:1057C0004D435F52454753433D3078253032780989
:1057D000090953494D5F53434743343D30782530E1
:1057E0003278095254432D3E5450523D3078253082
:1057F00032780A0A000D0925647320696E2052541C
:10580000432048616E646C657220746F2D6461740E
:10581000652C09256420506D6772204572726F7285
:10582000730A000D53656C6563743A0A000D2D20F0
:105830002761273A207365742064656661756C740E
:105840002073656E736F722E0A000D2D202762275C
:105850003A20736574204932432062617564207276
:105860006174652E0A000D2D202763273A20736589
:105870007420535049206261756420726174652EF2
:105880000A000D2D202764273A20736574205541A6
:105890005254206261756420726174652E0A000D95
:1058A0002D202765273A207365742064656661752D
:1058B0006C742072656769737465722061646472C8
:1058C0006573732E0A000D2D202766273A20777204
:1058D000697465206279746520746F2073656E73D6
:1058E0006F722E0A000D2D202767273A20736574EA
:1058F0002064656661756C74205353535550504C49
:10590000592E0A000D2D202768273A20706F7765E1
:1059100072646F776E20636F6D6D616E6420746F5B
:1059200020616C6C2073656E736F72732E0A000DAC
:105930002D202769273A207365742070756C6C2DB3
:10594000757020656E61626C652076616C75652E80
:105950000A000D2D20276A273A2072657065617450
:105960002072656164207265672030782530327856
:10597000206F6E2073656E736F72202325642E0A6C
:10598000000D2D20276B273A20736C6565702075FC
:105990006E74696C2072657365742E0A000D2D207B
:1059A000276C273A2073656E642072657065617498
:1059B00065642062797465206F6E204932432E0A37
:1059C000000D2D20276D273A2073656E64207265C7
:1059D0007065617465642062797465206F6E205310
:1059E00050492E0A000D2D20276E273A20656E6142
:1059F000626C65205353535550504C592E0A000D7C
:105A00002D20276F273A2064697361626C652053EB
:105A100053535550504C592E0A000D2D20277027F6
:105A20003A2073776974636820746F20564C505223
:105A3000206D6F64652E0A000D2D202772273A20F5
:105A400073776974636820746F2052554E206D6FB0
:105A500064652E0A000D2D202773273A20706F777A
:105A6000657220757020616C6C2073656E736F7247
:105A7000732E0A000D2D202774273A2064756D704F
:105A80002070726F636573736F72207374617465D5
:105A90002E0A000D2D202775273A207365742049A2
:105AA000324320616464726573732E0A000D2D20E9
:105AB0002778273A2064697361626C6520535744E4
:105AC00020616E64207370696E20666F72203130C1
:105AD00020736563732E0A000D2D20277A273A2044
:105AE00064756D7020616C6C2073656E736F72737A
:105AF00020646174612E0A000D2D20272F273A2083
:105B00005072696E74203130303020637572726566
:105B10006E742073656E736F722072656164696E56
:105B200067732E0A000D456E7465722073656C658F
:105B30006374696F6E3E20000D0953656C65637474
:105B40003A0A000D092D20273127204144584C33B3
:105B5000363209090928307830302D2D307832441A
:105B6000293A20312E3656202D2D20332E35562021
:105B700028636F6D70696C6564206F757429200AE5
:105B8000000D092D20273527204D4D413834353162
:105B90005109090928307830302D2D3078333129DA
:105BA0003A20312E393556202D2D20332E36560AE7
:105BB000000D092D20273627204C50533235480937
:105BC000090928307830382D2D30783234293A20A0
:105BD000312E3756202D2D20332E36562028636F38
:105BE0006D70696C6564206F757429200A000D0959
:105BF0002D20273727204D414733313130090909FE
:105C000028307830302D2D30783131293A20312E1E
:105C1000393556202D2D20332E36562028636F6DB2
:105C200070696C6564206F757429200A000D092D58
:105C300020273827204844433130303009090928CB
:105C4000307830302D2D30783146293A20332E30BF
:105C500056202D2D20352E30562028636F6D70690B
:105C60006C6564206F757429200A000D092D2027AA
:105C70003927205349373032310909092830783023
:105C8000302D2D30783046293A20312E3956202DAE
:105C90002D20332E36562028636F6D70696C656435
:105CA000206F757429200A000D092D2027612720F7
:105CB0004C33474432304809090928307830462DA2
:105CC0002D30783339293A20322E3256202D2D208E
:105CD000332E36562028636F6D70696C6564206FB3
:105CE000757429200A000D092D2027622720424DB6
:105CF0004536383009090928307841412D2D307852
:105D00004638293A20312E3656202D2D20332E3676
:105D1000562028636F6D70696C6564206F757429F7
:105D2000200A000D092D20276427205443533334C3
:105D300037323509090928307830302D2D30783147
:105D400044293A20322E3756202D2D20332E33561B
:105D50002028636F6D70696C6564206F75742920ED
:105D60000A000D092D202765272053493437303587
:105D7000090909286E2F61293A202020202020209F
:105D800020322E3756202D2D20352E3556202863D3
:105D90006F6D70696C6564206F757429200A000D41
:105DA000092D202766272050414E3133323609090C
:105DB00009286E2F61292028636F6D70696C6564F6
:105DC000206F757429200A000D092D2027672720D0
:105DD00043435338313109090928307830302D2DAB
:105DE00030784646293A20312E3856202D2D203342
:105DF0002E36562028636F6D70696C6564206F7550
:105E00007429200A000D092D2027682720414D47BD
:105E10003838333409090928307830302D2D3F299E
