S02B00002F73747564656E74732F6F6F6F33302F576172702D6669726D776172652F6275696C642F6B73646BDE
S1130000000600201D050000450500004505000010
S113001000000000000000000000000000000000DC
S11300200000000000000000000000004505000082
S11300300000000000000000450500004505000028
S11300404505000045050000450500004505000084
S11300504505000045050000450500004505000074
S11300608F3200004505000099320000450500006C
S11300704505000045050000450500004505000054
S11300804505000045050000450500004505000044
S1130090191100003111000045050000450500005C
S11300A04505000045050000450500004505000024
S11300B04505000045050000450500004505000014
S1130400FFFFFFFFFFFFFFFFFFFFFFFFFE3DFFFFBB
S11304100448054B10B5834203D0044B002B00D095
S1130420984710BDA8FFFF1FA8FFFF1F0000000092
S113043006480749091A8B10C90FC91810B5491085
S113044003D0044B002B00D0984710BDA8FFFF1F1A
S1130450A8FFFF1F0000000010B5074C2378002BF5
S113046009D1FFF7D5FF054B002B02D0044800E06B
S113047000BF0123237010BDA8FFFF1F0000000070
S11304802C6E0000054B10B5002B03D00449054821
S113049000E000BFFFF7CCFF10BDC0460000000025
S11304A0ACFFFF1F2C6E0000402292029A1A924663
S11304B07047C046154B002B00D1114B9D46FFF7EA
S11304C0F3FF00218B460F461148124A121A00F01E
S11304D0FFF80C4B002B00D098470B4B002B00D09F
S11304E098470020002104000D000B4800F02EF86E
S11304F000F064F82000290001F0D6FA00F034F886
S113050000000800000000000000000000060020B9
S1130510A8FFFF1F040300209505000072B60648DB
S11305200649074A02600A6002F0BCFE02F0FCFEC3
S113053062B6FFF7BFFF000080E100E080E200E068
S1130540FFFFFFFF004800474505000010B501000C
S113055000230022002000F019FA10BD014B186896
S11305607047C04600FEFF1F084B10B50400002B67
S113057002D0002100F078FA054B1868836A002B3A
S113058000D09847200000F099FDC046690A000099
S1130590D454000070B5074D074C641BA41005D05B
S11305A0013CA300EB589847002CF9D106F044FC19
S11305B070BDC046506E0000546E000070B50C4D06
S11305C00C4E761BB61005D0002408CD0134984794
S11305D0A642FAD106F02AFC074D084E761BB61047
S11305E005D0002408CD01349847A642FAD170BD45
S11305F04C6E00004C6E00004C6E0000506E00000B
S113060010B5034B0100186800F00CF910BDC0468A
S113061000FEFF1F10B5034B0100186800F0ACF892
S113062010BDC04600FEFF1FF0B5C64600B50F2A38
S113063043D90B00032603431E400C000300002E85
S113064040D11500103D2D09AC462D01A84680442B
S113065000E03B00676825685F60E7681D60DF6055
S11306601F00A56810379D6010344345F1D16546DD
S11306700F230C2401352D01491913404519144247
S113068023D08C59AC5104369C1B032CF9D8032479
S1130690043B9B0801339B002240ED18C918561EE9
S11306A0002A07D0002300E02300CA5C5C1CEA5443
S11306B09E42F9D104BC9046F0BD0500561E002AA6
S11306C0F0D1F7E7561E0500ECE71A00F6E7C0463E
S11306D0F0B5050083074AD0541E002A44D0CEB298
S11306E00300032202E00135013C3DD301332E70A7
S11306F01342F8D1032C2FD9FF220A4015021543C7
S11307002A0415430F2C35D92700103F3F093E0119
S1130710B4461E001A001036664415605560956094
S1130720D5601032B242F8D10F260C2201373F01B6
S11307302640DB193700224217D03E1FB608B4000A
S1130740A4461A001C1D644420C2A242FCD1032406
S11307500136B6009B193C40002C05D0C9B21C19C7
S1130760197001339C42FBD1F0BD3400F4E714004E
S11307700300BFE72700E0E770B50500002915D0A6
S11307800C1F2368002B27DB280000F0CBF9244B37
S11307901A68002A05D0A2420CD921686018824246
S11307A024D0626028001C6000F0BEF970BDA34232
S11307B003D81A005368002BF9D111685018A042CD
S11307C01BD027D821686018834207D06360546027
S11307D0280000F0A9F9E9E7E418D5E718685B6890
S11307E084466144216063605460F1E71068526894
S11307F08446614421606260D4E720680918501877
S113080011608342E4D118685B68844661441160D6
S11308105360DDE70C2328002B6000F085F9C5E761
S1130820C4FFFF1FF8B50323CD1C9D430835060004
S11308300C2D2AD20C25A94229D8300000F072F9D7
S11308402A4F3A68002A0AD013685B1B04D441E09B
S113085023685B1B1FD522005468002CF8D17B68E9
S1130860002B3DD02900300000F042F8431C2AD070
S11308700323C41C9C43A04205D0211A300000F07D
S113088037F8431C1FD0256010E0002DD3DA0C2369
S113089000203360F8BD0B2B05D86368A2421DD03D
S11308A0536003E014002360E4182560300000F076
S11308B03BF9200007220B30231D9043C21AE9D0D4
S11308C01B1AA350E6E70C233000336000F02CF928
S11308D00020DFE70B2BE5D8140053683B60E5E705
S11308E00021300000F004F87860BBE7C4FFFF1F6C
S11308F0002370B5064C05000800236000F0E0FBFF
S1130900431C00D070BD2368002BFBD02B60F9E79B
S11309100003002003000A7801311A700133002A11
S1130920F9D1704710B5830727D00378002B26D060
S11309300300032102E01A78002A1CD001330B4281
S1130940F9D119680F4A104C8A188A4322420FD1F0
S1130950043319680B4A8A188A43224208D10433A3
S11309601968084A8A188A432242F1D000E0013308
S11309701A78002AFBD1181A10BD0300E1E7002001
S1130980FAE7C046FFFEFEFE80808080F0B5464652
S11309904F46D646C0B51F002F4B82B01C680500D9
S11309A00E009046002C2DD063681F2B50DC002DC8
S11309B01CD08822A0589146002834D0783282581E
S11309C094469A0091468144424649460A60012170
S11309D0624699400A43944680228A466146520000
S11309E081504946803A8F50022D16D000205A1C5F
S11309F002339B0062601E5102B01CBC90469946B3
S1130A00A246F0BD154C1C60154B002BCCD01B68C6
S1130A1001938823019AE250C6E7554684328158EF
S1130A200D438550E2E70F4B002B11D0842040008A
S1130A30FFF7E6FD00280BD08022002352008350EC
S1130A40043283504B460022E05094466368B8E772
S1130A5001204042D0E7C04658000020CCFFFF1FD1
S1130A600000000001060000F0B5DE464E46454693
S1130A7057462B4B88469B46E0B51E6883B00190D1
S1130A80002E45D088237568F7586C1E40D4013574
S1130A90AD00783375199A460AE0002F05D03B0063
S1130AA0A20080339B58434505D0043D013C2FD31D
S1130AB04346002BF1D173682A68013BA34222D03C
S1130AC000232B60002AF0D073689946002F18D0B9
S1130AD001235146A3407958194212D08220400084
S1130AE03858A1007958009018420ED101989047C7
S1130AF05B4672681B684A4501D1B342D5D01E00DB
S1130B00BEE79047F4E77460DCE708009047EFE73E
S1130B1003B03CBC90469946A246AB46F0BDC046E5
S1130B20580000207047C0467047C04602B4714662
S1130B3049084900095C49008E4402BC7047C0461C
S1130B4003B47146490840004900095E49008E44D7
S1130B5003BC7047002243088B4274D303098B42C1
S1130B605FD3030A8B4244D3030B8B4228D3030C79
S1130B708B420DD3FF22090212BA030C8B4202D31B
S1130B801212090265D0030B8B4219D300E0090A43
S1130B90C30B8B4201D3CB03C01A5241830B8B424C
S1130BA001D38B03C01A5241430B8B4201D34B0335
S1130BB0C01A5241030B8B4201D30B03C01A52419A
S1130BC0C30A8B4201D3CB02C01A5241830A8B421F
S1130BD001D38B02C01A5241430A8B4201D34B0208
S1130BE0C01A5241030A8B4201D30B02C01A52416C
S1130BF0CDD2C3098B4201D3CB01C01A5241830920
S1130C008B4201D38B01C01A524143098B4201D359
S1130C104B01C01A524103098B4201D30B01C01A84
S1130C205241C3088B4201D3CB00C01A52418308FE
S1130C308B4201D38B00C01A524143088B4201D32B
S1130C404B00C01A5241411A00D20146524110468B
S1130C507047FFE701B5002000F0F0F802BDC04680
S1130C600029F7D076E7704703460B437FD4002270
S1130C7043088B4274D303098B425FD3030A8B422C
S1130C8044D3030B8B4228D3030C8B420DD3FF2296
S1130C90090212BA030C8B4202D31212090265D064
S1130CA0030B8B4219D300E0090AC30B8B4201D317
S1130CB0CB03C01A5241830B8B4201D38B03C01A5E
S1130CC05241430B8B4201D34B03C01A5241030BD5
S1130CD08B4201D30B03C01A5241C30A8B4201D386
S1130CE0CB02C01A5241830A8B4201D38B02C01A31
S1130CF05241430A8B4201D34B02C01A5241030AA8
S1130D008B4201D30B02C01A5241CDD2C3098B428C
S1130D1001D3CB01C01A524183098B4201D38B0109
S1130D20C01A524143098B4201D34B01C01A5241AC
S1130D3003098B4201D30B01C01A5241C3088B42F1
S1130D4001D3CB00C01A524183088B4201D38B00DC
S1130D50C01A524143088B4201D34B00C01A52417E
S1130D60411A00D201465241104670475DE0CA0F55
S1130D7000D04942031000D34042534000229C4615
S1130D8003098B422DD3030A8B4212D3FC2289011F
S1130D9012BA030A8B420CD3890192118B4208D3F5
S1130DA0890192118B4204D389013AD0921100E057
S1130DB08909C3098B4201D3CB01C01A524183096B
S1130DC08B4201D38B01C01A524143098B4201D398
S1130DD04B01C01A524103098B4201D30B01C01AC3
S1130DE05241C3088B4201D3CB00C01A524183083D
S1130DF08B4201D38B00C01A5241D9D243088B4293
S1130E0001D34B00C01A5241411A00D20146634635
S1130E1052415B10104601D34042002B00D5494299
S1130E20704763465B1000D3404201B5002000F0D8
S1130E3005F802BD0029F8D016E770477047C04690
S1130E40002B11D1002A0FD1002900D1002802D093
S1130E500021C943081C07B4024802A140180290AB
S1130E6003BDC046D9FFFFFF03B4684601B502982D
S1130E7000F02EF8019B9E4602B00CBC7047C046A1
S1130E80F0B515042D0C0F0001002E00C646844653
S1130E900004140C000C090C46434D4360436143A9
S1130EA04019340C241800B5A54203D9802040020F
S1130EB080464144250C6D18614659437A433004F9
S1130EC049192404000C2018891804BC9046F0BD6C
S1130ED0F0B557464E464546DE46E0B504000D00E3
S1130EE09246994683B08B4230D82DD0494650461D
S1130EF000F0BAF829000600200000F0B5F8331A13
S1130F009846203B9B4633D45A4653469340424628
S1130F101F00534693401E00AF423AD8AF4200D15F
S1130F2078E05B46A41BBD41002B00DA75E000228B
S1130F3000230092019301235A4693400193012315
S1130F4042469340009328E08242CFD900220023F6
S1130F50009201930C9B002B01D01C605D600098F3
S1130F60019903B03CBC90469946A246AB46F0BDFD
S1130F70424620239B1A5246DA40414613004A4611
S1130F808A40170042461F43534693401E00AF4217
S1130F90C4D900220023009201934346002BD9D0E8
S1130FA0FB0772081A4346467B080EE0AB4201D1A8
S1130FB0A2420CD8A41A9D41012024196D4100219C
S1130FC0013E24184D41002E06D0AB42EED9013E1D
S1130FD024196D41002EF8D1009801995B4600193F
S1130FE06941002B24DB2B005A464446D3402A0097
S1130FF0E2401C005B461500002B2ADB26009E40C5
S1131000330026004746BE403200801A99410090C2
S113101001919FE7A342BCD883E7424620230021E5
S11310209B1A0022009101920122DA40019286E784
S1131030424620239B1A2A0046469A402300F34046
S1131040444613432A00E2401C005B461500002B73
S1131050D4DA42462F002023260097409B1ADE4014
S11310603B003343CDE7C04610B5002903D100F05F
S113107007F8203002E0081C00F002F810BDC0465A
S11310801C2101231B04984201D3000C10391B0AB4
S1131090984201D3000A08391B09984201D3000978
S11310A0043902A2105C40187047C04604030202CF
S11310B0010101010000000000000000FEE7C0463D
S11310C00A4A0300116810B5002901D108491160CA
S11310D010680849C3188B4206D9FFF73FFA0C235E
S11310E003600120404210BD1360FCE75C00002057
S11310F008030020080300208378022098428041DE
S113110040427047437A0020013B012B03D90B78FE
S1131110013001330B70704710B5002003F020FE3E
S1131120002803D00021080003F00EFE10BD0000CB
S1131130024A1368013313607047C04680000020E0
S113114037B5002002F0C2FBC02300240D4A9B00E7
S113115013600D4A0D4D13600D4A200013600D4BB2
S11311602C716C71AC711A68FA239B0053430A49C1
S11311702B6003F043FE2900200001AA03F0A4FE23
S113118037BDC046189014541C901454D800002045
S113119000A0145484FEFF1FA800002010B5802472
S11311A0002003F06DFE0A4B64001C60094B07200D
S11311B01C60094B1C6002F053FF062002F050FF34
S11311C0200002F04DFF002002F085FB10BDC04658
S11311D0189014541C90145400A0145410B50020FA
S11311E002F07EFB8023054A9B001360044A002022
S11311F00449136003F010F810BDC0460CA0145449
S113120010A014548400002010B5002003F040F80E
S113121080238220074A5B001360074A4000136062
S113122002F01EFF0420FF3002F01AFF002002F03B
S11312305CFB10BD0CA0145410A014540023364AB7
S113124070B51360354A01201360354A0133FF330A
S11312501360344A34491360344A1360344A1360C7
S1131260344A1360344A1360344A1360344A14789D
S11312702500054004424DD00B60324932480B60D2
S1131280002101603148016031490B6031490B6034
S113129031490B6031490B6031490B6031490B60B6
S11312A01378DB0703D50220FF3002F0CBFE0920C0
S11312B002F0D6FE0C2002F0D3FE052002F0D0FE90
S11312C0082002F0CDFE0620FF3002F0C9FE0E20F9
S11312D0FF3002F0C5FE8320400002F0C1FE08206A
S11312E0FF3002F0BDFE0C20FF3002F0ABFE822086
S11312F0400002F0B5FE0420FF3002F0B1FE0720EA
S113130002F0AEFE062002F0ABFE8020400002F0A8
S1131310A7FE70BD0D60B0E70C90145410901454E7
S1131320149014541890145404A014541C9014547D
S113133020901454249014543090145400A0145445
S113134080FEFF1F08A014540CA0145410A01454C1
S113135014A0145418A014541CA0145428A01454F9
S11313602CA0145434A0145410B5092002F078FEB3
S113137010BD10B50C2002F073FE10BD384B10B533
S113138098423DD027D8374B984253D015D8C83B04
S1131390984244D009D8C83B984231D0324B984245
S11313A006D1052002F04EFE2DE0304B98423DD090
S11313B02F49002001F05FFF2CE096231B01984287
S11313C043D02C4B984247D02B4B9842F0D1052068
S11313D002F038FE31E0294B98422BD007D8C83BA5
S11313E098421CD0264B984220D0264BD7E7C823DE
S11313F01B01984229D0244B98422DD0234BE4E77B
S1131400052002F02DFE082002F02AFE0620FF30FF
S113141002F026FE1E4B186802F045F810BD0520A8
S113142002F01EFE082002F00DFEEFE7052002F098
S113143009FEF7E7052002F013FE082002F010FE73
S11314400620FF3002F0FEFDE4E7052002F008FE6E
S1131450082002F0F7FDF3E7052002F0F3FDF7E7BB
S1131460280A0000980800006C07000034080000F7
S1131470D8540000C4090000FC080000B80B0000A8
S1131480540B00008C0A0000E40C00001C0C00004B
S113149088FEFF1F10B5FFF771FF092002F0D2FD8F
S11314A00C2002F0DDFD8320400002F0D9FD10BDC8
S11314B010B5FFF763FF092002F0D2FD0C2002F003
S11314C0C1FD8320400002F0BDFD10BDAF220C4BD6
S11314D010B5C3189BB29200934202D8FFF7DAFF0B
S11314E010BD084BC3189BB2934202D8FFF7E0FF2C
S11314F0F6E702000449002001F0BDFEF0E7C04613
S1131500F8F8FFFFD8F5FFFF0555000010B5FFF709
S11315102BFFFFF72EFF8320400002F093FD024BC8
S1131520186801F0C0FF10BD88FEFF1F10B504004D
S1131530002901D0FFF782FE0021022001F09EF86D
S11315402100042001F09AF810BD10B501242000F8
S11315500021FFF7EBFF21003C20FFF7E7FFF6E750
S1131560F0B59DB285B0039206002A000C0000205D
S1131570012101F088FA290007001F4801F01EF933
S11315803F18002E18D01D4D286801F08CFF1C490F
S1131590002001F05DFC286801F085FF1949002056
S11315A001F056FC286801F07EFF0020164901F086
S11315B04FFC286801F077FF0026144D14492B686E
S11315C06A6800200092320001F055FE200001F00C
S11315D0A1FA200001F028F92A6800206B680D495F
S11315E0009701F048FE039B002B02DD180001F078
S11315F05AFF0136E1E7C0469F3900007CFEFF1F19
S11316003D5500005F5500003F65000000D00340D9
S11316108455000090550000F0B591B0059218AAC9
S113162012780D910A921CAA12780EA90E921DAA84
S113163012881E00089221225218D27F16AB0992FA
S11316401FAA12881F780F9217AB20AA12781B7852
S113165004000B92BB4203D30A9A974200D91F009D
S1131660059B002E06D1002B06D15949002001F01C
S113167002FE01E0002BF8D100250898FFF726FFB1
S11316802100002001F0E4FB089C049506950395D5
S113169000230793079B199A934200DC95E00E9B65
S11316A0002B04D001370A9BFFB2BB42F0D2039A4D
S11316B0069B944647496344002001F0DCFD322038
S11316C001F0F1FE099B049A434900930020039B17
S11316D001F0D1FD322001F0E6FE2A003F4900204E
S11316E001F0C9FD322001F0DEFE11B0F0BD029B15
S11316F03022FB180C936B469B18187801210D9B24
S11317009847002849D1039B01330393089B9C42CB
S113171004D9643CA4B22000FFF7D8FE002E26D0E2
S1131720099AB37B9B1A5A425341049AD3180493DF
S11317300B9B002B0BD0337B029A717BB07B009107
S1131740019027490020DBB2BA1801F094FD1B9BDD
S1131750002B02DD180001F0A6FE029B0133029368
S1131760029B1A9A9342C2DB079B013391E7059BC4
S1131770099A1B7A9B1A5A425341049AD318049328
S11317800B9B002BE3D0059B029A1B7A3000154972
S1131790DBB2BA1801F06FFDD9E7022810D100209E
S11317A00C9A114901F067FD069B013306930F9BC8
S11317B09C42CCD26434A4B22000FFF787FEC6E773
S11317C00338434258412D18C1E70023C7E7C046F8
S11317D0D8540000EA5500000256000033560000B9
S11317E09D550000C2550000D7550000F0B591B0DA
S11317F00D9316AB0400100004CB0C911F781AABA8
S11318001B880E920F931BAB1E881CAB1D78002CFB
S113181000D16AE0FFF7E2FC601E13285FD8FFF7EF
S113182085F90A3D4244465E484A4C4E505254584B
S1131830565E5A5C5E260F9B0C9A07930D9B009292
S11318400693189B2B4A05930E9B2B490493199BD3
S11318502A4803933123029300230A970996089593
S11318600193FFF7D9FEFFF7CFFC11B0F0BD0F9B3A
S11318700C9A07930D9B00920693189B204A05939C
S11318800E9B20490493199B1F480393052302933D
S113189000230A97099608950193E2E71B49002063
S11318A001F0D6FADFE71A49F9E71A49F7E71A49C6
S11318B0F5E71A49F3E71A49F1E71A49EFE71A4934
S11318C0EDE71A49EBE71A49E9E71A49E7E71A4944
S11318D0E5E71A49E3E71A49E1E71A49DFE7220095
S11318E01949002001F0C7FCBDE72000174901F0A9
S11318F0AFFABAE770000020A52A0000485600009D
S113190060000020CD2700005656000062560000FB
S11319108D560000BE560000EE5600001E57000013
S11319204B57000078570000A4570000D25700001E
S1131930FE5700002B580000575800008358000041
S1131940B0580000DC580000085900005A59000043
S113195003003038092805D91A00613A052A02D84B
S1131960573B180070471A00413A0020052AF9D85D
S1131970373BF6E770B501F086FA040001F083FA0C
S1131980FF26050020003040FFF7E2FF0400280096
S11319903040FFF7DDFF24012018C0B270BD70B5E0
S11319A001F071FA060001F06EFA050001F06BFA1D
S11319B0040001F068FAFF22FA236421164015405E
S11319C0303E14409B00303D4D4373435A39303C04
S11319D04C435B1910401B193038181870BD0000B7
S11319E070B50C00160088B00CAA157806A90880FA
S11319F00A4A05A805700A4D12682D684A6004AAAF
S1131A0016700193009023000020029502F068FDF7
S1131A10002800D0022008B070BDC04674FEFF1F2D
S1131A2078FEFF1FF7B56A46CB1DDB08DB00D31A2F
S1131A3002AF9D460C000500FFF782FBFA2300214C
S1131A409B0002AE0193009433002A00080003F0C7
S1131A5097FA0400FFF7A2FB002C00D00424BD4633
S1131A602000F2BD10B50020014901F0F1F910BDCC
S1131A708659000010B5094C0020210001F0E8F956
S1131A802100002001F0E4F90549002001F0E0F90B
S1131A900449002001F0DCF910BDC046B259000031
S1131AA0E2590000135A0000F0B5B9B025AC072282
S1131AB000212000FEF70CFEFA4A01272C92032293
S1131AC015AB2F9317AB309319AB32931DAB3493F3
S1131AD01FAB359321AB369323AB1BAE11A900206A
S1131AE037932CAB1A712E9114932770339631943B
S1131AF001F0E4FE380001F0E1FE8021EA4B090226
S1131B00196001F0F5FC002300971A001900180071
S1131B1001F0C0F9E549002001F09AF9C82001F06C
S1131B20C2FCE349002001F093F9C82001F0BBFC9A
S1131B30E049002001F08CF9C82001F0B4FC3B001E
S1131B40DD4A0221DD4801F0F7FC3900380001F0DC
S1131B50FFFC002003F042F88C210025D84B28001C
S1131B60299308AB5B181D80023108AB5B1829A9C7
S1131B701D702A9703F05EF83A00290011A8FEF7B9
S1131B80A7FD4820259B08A91993A28809180A8053
S1131B90A279023008A909180A700322063808A994
S1131BA009180A701B93A28808A9B280A2790A387E
S1131BB0B271052232701593A28802260A87A2798F
S1131BC009180A70342108AA521816701793A288AB
S1131BD0063008A909180A80A279801908A90918E9
S1131BE00A700422063808A909180A701D93A288ED
S1131BF01C3008A909180A80A279801908A90918B3
S1131C000A700822063808A909180A701F93A288C6
S1131C100C3008A909180A80A279801908A90918A2
S1131C200A700921063808AA121811702193A38892
S1131C300C3008AA12181380A379801908AA121864
S1131C4013700A23063808AA121813706C2208AB02
S1131C509B181D7014AA3B002FA801F0BFFF290098
S1131C60300000F00BFD9749974802F0D1F9FFF7D7
S1131C70E5FA0820FF3002F0E5F9C82001F013FC72
S1131C800820FF3002F0ECF9C82001F00CFC082019
S1131C90FF3002F0D7F9C82001F005FC0820FF301E
S1131CA002F0DEF9C82001F0FEFB0820FF3002F04C
S1131CB0C9F9C82001F0F7FB0820FF3002F0D0F981
S1131CC01D20824900F0DAFE4020814900F074FDB5
S1131CD0FFF71CFC80231B0209932B002F0008959F
S1131CE00B9503330A937B49002001F0B1F87A4C39
S1131CF0206801F0D8FB7949002001F0A9F8206898
S1131D0001F0D1FB3B00089A7549002001F0B3FAB9
S1131D10206801F0C8FB734D734E74492A68099812
S1131D2033680968019000910020714901F0A3FA19
S1131D30206801F0B8FB6F4B6F49704A0020D258FD
S1131D404B69096800916E4901F095FA206801F029
S1131D50AAFB6C4900200A784B788979D2B2DBB2AD
S1131D600091694901F087FA206801F09CFB654BFA
S1131D7066491A7A1B7E0978D2B2DBB20091002040
S1131D80634901F078FA206801F08DFB614B6249E8
S1131D901A785B780969D2B2DBB2009100205F49FE
S1131DA001F069FA206801F07EFB5D4B53489A7894
S1131DB051495C4BD2B2C3584968002000915A493A
S1131DC001F059FA206801F06EFB584B58491A6823
S1131DD011AB1B78002001F04EFA206801F063FB80
S1131DE05449002001F034F8206801F05CFB5249AA
S1131DF0002001F02DF8206801F055FB4F49002028
S1131E0001F026F8206801F04EFB4D49002001F056
S1131E101FF8206801F047FB4A49002001F018F838
S1131E20206801F040FB4849002001F011F82068C7
S1131E3001F039FB4549002001F00AF8206801F05F
S1131E4032FB4349002001F003F8206801F02BFB2A
S1131E504049002000F0FCFF206801F024FB3E49CB
S1131E60002000F0F5FF206801F01DFB3A000A9BFA
S1131E703A49002001F0FFF9206801F014FB3849C9
S1131E80002000F0E5FF206801F00DFB354900203B
S1131E9000F0DEFF206801F006FB3349002000F06B
S1131EA0D7FF63E005110000F4020020455A00004A
S1131EB0605A0000665A000064FEFF1F90FFFF1F77
S1131EC0E0070100A0FEFF1F90FEFF1F700000202E
S1131ED0600000206D5A00007CFEFF1F915A000034
S1131EE0C35A000074FEFF1F84FEFF1F8CFEFF1FF9
S1131EF0F75A00003C10000000D00340007004407A
S1131F002F5B000000400640655B00000050064067
S1131F10945B000000E0074000ED00E0C45B0000BB
S1131F2000D0074034100000FE5B00008000002059
S1131F30365C0000645C00006E5C00008B5C00009A
S1131F40A75C0000C35C0000E05C0000075D0000CB
S1131F50265D0000455D0000705D0000935D00009B
S1131F60C25D0000DE5D0000025E0000206801F03A
S1131F709AFAD949002000F06BFF206801F093FA27
S1131F80D649002000F064FF206801F08CFAD4499F
S1131F90002000F05DFF206801F085FAD14900209F
S1131FA000F056FF206801F07EFACF49002000F0CF
S1131FB04FFF206801F077FACC49002000F048FF79
S1131FC0206801F070FACA49002000F041FF20683F
S1131FD001F069FAC749002000F03AFF206801F0D7
S1131FE062FAC549002000F033FF206801F05BFA73
S1131FF0C249002000F02CFF206801F054FAC049C7
S1132000002000F025FF206801F04DFA00F03BFFAE
S1132010FF2302000C901A407A2A07DC602A0BDCAA
S11320200A2A00D1D4E22F2A00D1CAE2B549CAE073
S1132030B54B0B93012355E6100061381928F5D8E8
S1132040FEF77EFD1A00B200C500D500E000EA00EC
S11320502B0136013E01BE0118021E021E0260025F
S113206065026902F4FF6F02720251FE7A02F4FF04
S1132070F4FF8802F4FF9502A449002000F0E8FE72
S1132080A349002000F0E4FE206801F00CFAA14905
S1132090002000F0DDFEA049002000F0D9FE9F4999
S11320A0002000F0D5FE206801F0FDF99C490020D5
S11320B000F0CEFE206801F0F6F99A49002000F005
S11320C0C7FE206801F0EFF99749002000F0C0FE38
S11320D0206801F0E8F99549002000F0B9FE206875
S11320E001F0E1F99249002000F0B2FE206801F00D
S11320F0DAF99049002000F0ABFE206801F0D3F932
S11321008D49002000F0A4FE206801F0CCF98B4931
S1132110002000F09DFE206801F0C5F988490020E8
S113212000F096FE206801F0BEF98649002000F018
S11321308FFE206801F0B7F98349002000F088FE83
S1132140206801F0B0F98149002000F081FE206888
S113215001F0A9F97E49002000F07AFE206801F020
S1132160A2F97C49002000F073FE206801F09BF97D
S11321707949002000F06CFE206801F094F9774959
S1132180002000F065FE206801F08DF900F07BFE70
S1132190FF220240352A00D14AE76C2A00D045E7E5
S11321A06F4B0B9314239DE56E49002000F050FE05
S11321B0FFF7F5FB28602A686B4B9A4201D16B4B01
S11321C02B602A686A49002001F055F88BE56949BB
S11321D0002000F03DFEFFF7E2FB30603268624B06
S11321E09A4201D1614B336032686349EBE763493A
S11321F0002000F02DFEFFF7D2FB614B614918600F
S11322001A68E0E76049002000F022FEFFF7B2FB05
S11322105E4907000200D6E75D49002000F018FE81
S1132220FFF7A8FB5B4D020029000400002001F029
S113223022F85949002000F00BFEFFF79BFB12AE79
S1132240020029003070002001F015F85349992C40
S113225000D187E1524B08981B6827AD28932C8046
S1132260FFF734F924226B469B181878FEF7B6FF63
S11322704C4B13AA1B6817700293012329000020FA
S11322800193009602F02CF9021E03D00020464967
S113229000F0F1FFFEF7B8FF25E54449002000F007
S11322A0D7FDFFF77CFB83B21A00414908938AE704
S11322B04049002000F0CCFD0120FFF7DBFB12E5D4
S11322C03D49002000F0C4FDFFF769FB83B21A000A
S11322D03A49099377E7C046265E0000405E000055
S11322E05B5E0000795E0000965E0000B55E000053
S11322F0D45E0000EE5E0000195F0000395F00004C
S1132300665F0000F963000070000020795F000040
S1132310845F0000C25F00000460000045600000AC
S113232085600000B5600000F260000031610000CB
S11323306F610000AC610000EA61000027620000E8
S113234066620000A3620000CC6200000963000022
S1132350406300007D630000BA630000E563000091
S113236060000020156400000F2700001027000003
S1132370436400006364000091640000AB640000E7
S11323808CFEFF1FDA640000F56400002B6500007A
S113239042650000756500008B650000B4650000AF
S11323A074FEFF1F78FEFF1FDA650000FB65000066
S11323B0276600004966000077660000B3660000E7
S11323C03A008449002000F056FF00F05CFD824989
S11323D00C90002000F03CFD00F055FD7F490D906D
S11323E0002000F035FD00F04EFD7D490E900020E8
S11323F000F02EFDFFF7D3FA7A490500002000F023
S113240027FDFFF7CCFA78490600002000F020FDF4
S1132410FFF7C5FA75490400002000F019FDFFF725
S1132420A9FA099B0A9A0F90019371493B000295FE
S11324300096002000F01FFF6A4624210C9B5218CE
S1132440303B0F99581E83410E98127806910899D3
S113245030380491411E884101900D98A4B230385F
S1132460009039000A98DBB2059403960295FFF7B1
S1132470BDF938E45F49002000F0EAFCFFF765F895
S11324805D49002000F0E4FC5C49002000F0E0FC21
S1132490FFF770FA27AE5A493070002000F0D8FCDC
S11324A0FFF77DFA30226B469B181D7804003378C1
S11324B0089A6C2D15D10192099A52490092020092
S11324C0002000F0D8FE0025A54200DB0BE427AB7A
S11324D01A7800230121FF200093FFF781FA0135C8
S11324E0F2E7009248490200002000F0C4FE0025F3
S11324F0A54201DBFFF7F7FB012127A8FFF792FABA
S11325000135F5E70898FEF7E1FFFFF7ECFBFEF76E
S1132510FDFFFFF7E8FB0021022000F0AFF8FFF712
S1132520E2FB00210820F8E73349002000F090FC8A
S1132530FFF798FAFFF7D7FB0B9B3449002B11D018
S11325403349002000F084FCFFF714FA0B9B187049
S1132550FFF7C9FB2F49002000F07AFC2E4800F059
S1132560A2FF2E49002000F073FCFFF7BCFB2C49AE
S1132570002000F06DFC24226B469B181878FEF7AF
S11325802DFE2849002000F063FC00F07CFC264965
S11325900500002000F05CFCFFF701FA86B232006F
S11325A02249002000F067FE206800F07CFFE9B2B9
S11325B068394D42694132000120099BC9B2FEF7D6
S11325C0CFFF4020FEF70AFE00F0AEF9FFF78BFBC9
S11325D01749C7E7D06600000A67000033670000A8
S11325E04C6700008B670000B7670000EF670000CE
S11325F0206800005D6800004966000080680000F3
S11326009F680000BF680000116900004F69000066
S11326108D690000C569000010270000E46900000E
S1132620EE690000076A0000306A0000786A000062
S1132630B06A00001FB5040001A9002002F022FBCB
S1132640694601A802F05CFA009B68461C1901A9BE
S1132650009402F0DDF9012201A9002002F03EFB02
S11326601FBD00000022034B1A608022024B120699
S1132670DA67704700A01C5804E100E070B50D0053
S11326800A2408281CD8FEF751FA051D2A3F54676E
S11326906C6F5C0001F038FC0524012810D0FFF7B2
S11326A0E1FF2800FFF7C6FF0021080001F0B8FA97
S11326B001210400002000F04BFF002C22D1002453
S11326C0200070BD01F020FC06240128F8D0FFF79B
S11326D0C9FF2800FFF7AEFF00210120E6E701F063
S11326E013FC08240128EBD000F0B0FF002803D02D
S11326F00121002000F02CFF0021022001F090FABB
S11327000028DCD00924DBE701F0FEFB07240028C5
S1132710D6D0FFF7A7FF2800FFF78CFF0021032086
S113272001F07EFA040001F0EFFB01210028C4D17E
S1132730C1E7FFF797FF2800FFF77CFF0021042083
S1132740EEE70021082001F06BFA041EDAD1012122
S1132750080000F0FDFEB3E70021052001F060FA57
S1132760D0E700210620F9E700210720F6E7000062
S113277030B502250D4B89B01B7806AC23800C4B79
S113278049BA1B6804AA079305AB1980094910705C
S1132790096800200291009321000123019501F0B2
S11327A09FFE002800D0280009B030BD6000002042
S11327B074FEFF1F78FEFF1F08707047A02110B53C
S11327C00020FF31FFF7D4FF10BD000000B589B031
S11327D0030068460A000F49097801750320052B98
S11327E016D80D49087806A908800C480068486086
S11327F0684603750A4B00201B6801920293094B3B
S113280005AA0093012301F078FE002800D00220DD
S113281009B000BDE26A00006000002074FEFF1FE2
S113282078FEFF1F68000020A02170B5FF31002052
S1132830FFF79EFF9A210520FF31FFF799FF00283B
S113284003D00020154900F016FD02210800FFF70F
S1132850BDFF134D022101202B7A6B7AFFF7B6FFDF
S1132860022104202B7A6B7AFFF7B0FF02210320A8
S11328702C7A6E7AFFF7AAFFE4B22B7AF6B26B7A5F
S1132880002804D00020074900F0E2FA70BD2402B9
S11328903443054922B200F0EEFCF7E7E46A000095
S11328A060000020F16A00009955000010B5154938
S11328B0002000F0E0FC144C200001F0A5F80322F5
S11328C0124B4343D341124A934203D80020114987
S11328D000F0D1FC200001F097F806220E4B434390
S11328E0D3410E4A93420CD8200001F07EF8002810
S11328F003D000200A4900F0BEFC0020094900F082
S1132900BAFC10BDE06A0000E0000020CDCCCCCCC5
S113291066666606F86A0000D578E926263108005E
S11329200B6B0000246B000037B5002532490020F2
S113293000F0A1FC314C0523012220003049009510
S113294000F0F6FFA8420FD02E49012809D02E49E5
S1132950022806D02D49032803D02D49042800D08D
S11329602C49280000F087FC2B49002000F083FC50
S113297064220D21200000F0F7FF00280FD0214928
S1132980012809D02049022806D02049032803D071
S11329901F49042800D01F49002000F06CFC1F4987
S11329A0002000F068FC002220001D4901F031F8ED
S11329B0002803D000201B4900F05DFC00201A49C8
S11329C000F059FC200001F003F8002803D0002097
S11329D0164900F050FC00221549100000F04BFC91
S11329E00025200001F010F8013502002B001149E8
S11329F0002000F040FCF4E72A6B0000E000002017
S1132A00E86C0000386B0000696B00009C6B0000F0
S1132A10CD6B0000016C0000326C00003F6C0000C4
S1132A20AD2800004B6C0000756C0000836C000046
S1132A309D6C0000955500000B0000B50C4A89B050
S1132A40127806A90A800B4A12684A6005AA107017
S1132A5004A80370084B1B68009002930123002014
S1132A60019301F03DFD002800D0022009B000BD13
S1132A707000002074FEFF1F78FEFF1FC223FF3387
S1132A8008704B60704770B50D0001000920FFF716
S1132A90D3FF290004002A20FFF7CEFF2043C0B251
S1132AA070BD000000B589B0030068460A001449EF
S1132AB009780175182B1BD8D91F032001291CD9AB
S1132AC01049087806A908800F48006848606846DD
S1132AD003750E4B00201B68019202930C4B05AA50
S1132AE00093012301F009FD002806D0022004E030
S1132AF019001D3903201429E2D909B000BDC046CC
S1132B00E26A00007000002074FEFF1F78FEFF1FC1
S1132B107800002070B5022104000120FFF7C2FFF5
S1132B20304D2A7A6B7AD2B2DBB2002820D0002052
S1132B302D4900F08DF902210320FFF7B3FF2A7A13
S1132B406B7AD2B2DBB2002825D00020264900F0EF
S1132B507FF902210520FFF7A5FF2A7A6B7AD2B20A
S1132B60DBB200282AD000201F4900F071F970BDA3
S1132B70002C03D01D4900F07EFBDCE79B0892018A
S1132B801A4380239B015A40194B20001949D2183B
S1132B9000F071FBCFE7002C03D0144900F06BFB6D
S1132BA0D7E79B0892011A4380239B015A40104B9C
S1132BB020001049D21800F05EFBCAE7002C03D0B5
S1132BC00A4900F058FBD2E79B0892011A4380237C
S1132BD09B015A40064B20000649D21800F04BFBDB
S1132BE0C5E7C04670000020F16A0000AF6C000029
S1132BF000E0FFFF8B5500000369C268934201D8CF
S1132C0080681B18013B981A7047F7B58368C4683D
S1132C1001931F1B436805000E001819A41897425E
S1132C2007D83A00FDF700FD019B6868E41A22000A
S1132C30F119FDF7F9FCEC60F7BD0023F7B50600C8
S1132C401700C568019100933369B4689D421FD28F
S1132C50013B5B1B641BBC4200D93C009C4200D975
S1132C601C007368220058190199FDF7DDFC009BD4
S1132C702D191B190093019B3F1B1B190193B3686A
S1132C80AB4200D10025F560002FDDD10098FEBDD8
S1132C901B19DDE7022310B50F4C104A2361636151
S1132CA00F4BA261E361C823A2640E4A2362E2646B
S1132CB000230422A3626362E362A3656365E365A0
S1132CC022650949E01DFDF725FE20000749FDF7AF
S1132CD021FE2023A37110BD20010020BF6C000041
S1132CE09C01002098010020C86C0000CC6C0000FE
S1132CF0F0B5274B85B01B780E0002900192002B93
S1132D0001D1FFF7C7FF1823029A00255343204A35
S1132D10D3185A6D9C6D0392944219D91B6D019D71
S1132D201B1B9D4200D91D001827029B30005F43E6
S1132D30174B2A00DF19FB6C76191919FDF774FC7F
S1132D40019B64195B1B01933B6DA34200D10024DA
S1132D50039B019F1B1B9F4200D91F00002F0CD017
S1132D601823029A30005343094AED19D318D96C39
S1132D703A000919FDF758FCE419002D05D0182371
S1132D80029A03485343C0188465280005B0F0BD77
S1132D902001002010B50B00EFF31084012181F312
S1132DA010881900FFF7A4FF84F3108810BD0000F9
S1132DB0F8B516001822451C55434243164B0F0024
S1132DC05D199B18DC6A012C10D0022C1BD0002C3E
S1132DD01FD12800FFF710FF864205D832003900C2
S1132DE02800FFF712FF34002000F8BD2800FFF789
S1132DF003FF3400864200D9040022003900280071
S1132E00FFF703FFF0E732002800FFF716FF040086
S1132E10EAE70024E8E7C04620010020F8B50B4BA0
S1132E2004001B780E001700002B01D1FFF732FFBE
S1132E30EFF31085012181F310883A00310020005E
S1132E40FFF7B6FF85F31088F8BDC04620010020C7
S1132E5070B5050008000C00FDF764FD21000200B8
S1132E602800FFF7DBFF70BD13B56B46DC1D0122A4
S1132E7021000020FFF78EFF012801D1207816BD24
S1132E8001204042FBE710B5FFF7EEFF0028FBDB13
S1132E9010BD0000F7B5164C0193237805000F0010
S1132EA01600002B01D1FFF7F5FE2369AB421CD9B4
S1132EB0EFF31082012181F31088002D0CD0182328
S1132EC0691C59436B43675061184E600199E318BC
S1132ED0196200219962596218204543089B6419BC
S1132EE0E36282F310880020FEBD01204042FBE72C
S1132EF020010020826810B504004068531C8342FE
S1132F0005D820688154A360E3680133E360A268B4
S1132F1063689A4209D121682069FFF77FFFA3689B
S1132F20984203D001235B42E36010BD0023A360F9
S1132F30FBE70000F0B5050017000800012685B086
S1132F400A9C02910093B84219D2009A01969642C3
S1132F5000D2019201230B9A1A4003920B9A1A424F
S1132F6002D1002C10D10024EB680126002B4BDB8E
S1132F70009B012B1FD9013B00937E43F8E73900E6
S1132F80FDF7E8FD0136DEE70B9B20269B0704D501
S1132F90009B1036002B00D0103E019BA342E3D2CD
S1132FA031002800FFF7A6FFEB68013C002BDBDBB8
S1132FB0002CF2D1D7E731000298FDF7CBFD874210
S1132FC0DBD902983100FDF74BFE114B0291195CDD
S1132FD02800FFF78FFFEB68002B05DB390030007A
S1132FE0FDF7B8FDBE4211D2039B002B0CD0002C80
S1132FF00AD0019BA34207D220212800FFF77AFFC1
S1133000EB68013C002BF2DA05B0F0BD0600D8E70E
S1133010D36C0000F0B59FB00EAB099340230A9324
S113302000230E00150007900B930D900C9331783C
S11330300136002907D10C9B0393002B00DD09E125
S11330400C981FB0F0BD252900D0B3E0002708225A
S1133050042006E0302B0DD1022300E001231F439E
S11330600E003378711C2D2BF8D0F3D8232B10D0FD
S11330702B2B0CD000240A213378721C1800303812
S1133080092808D84C43303C16001C19F4E70743C0
S1133090E6E71743E4E7002103912E2B0ED1160037
S11330A00A203278711C1300303B092B06D8039B8D
S11330B00E004343303BD3180393F2E704233178E3
S11330C00A0001369A43682A01D13178F8E7782951
S11330D009D86F290BD8632967D017D8252969D057
S11330E0582900D195E00C9B002BA0DAA3E7703996
S11330F008000829F7D8FDF723FDA500F6FFF6FF21
S11331009400F6FF8300F6FFF6FF8C006429EAD1F1
S11331102B681A1D1B682A60DA1798180493012378
S113312050400593092849DC039B059A0693934272
S113313000D20692002C05D0049B002B01DB7B07F8
S113314000D5013C02231F4202D0039B002B05D073
S113315001231F4202D1002C36D100240C9B05937D
S1133160002BC0DB049B002B3ADA2D215B42049335
S113317009A8FFF7BFFE0C9B002BB4DB03233B40E5
S1133180022B05D1039B002B02D1002C2CD100244F
S11331900C9B0593002BA6DB0A22039B0499019741
S11331A0009409A8FFF7C6FE9DE72B6819681A1D4D
S11331B02A60C9B209A8FFF79DFE94E70A21FDF72A
S11331C053FD059B0133ACE7069BA342C6D22021E5
S11331D009A8FFF78FFE0C9B013C002BBBDABDE76F
S11331E07B07C8D52B21C3E7069BA342D0D230214D
S11331F009A8FFF77FFE0C9B013C002BC5DAC7E74B
S11332000A22296801970B1D2B60039B009409680F
S1133210C7E7296801970B1D2B60039B00941022BC
S1133220F5E72B681A1D2A601C68217801340029EF
S113323000D158E709A8FFF75DFE0C9B0393002B10
S1133240F3DA50E729680B1D2B6000230193083340
S11332500093E4E70B9A002A03D007980EA9FFF71E
S1133260DDFD0C9B03930B9B0493049A039B9446F0
S113327063440C93E4E60EB403B503AB02CB01AA9A
S11332800193FFF7C7FE02B008BC03B0184710B59E
S1133290002000F0F3FE10BD10B5002001F07CFD0D
S11332A010BD0000082310B5164A9178194202D0C7
S11332B091780B439370882100222220124B4901FC
S11332C05A501249124C087080201249400258503A
S11332D01968114801401960195910480840C02163
S11332E089040143195180210D4B1A7219767F39D3
S11332F01A7059700B490A700C3299791142FCD139
S113330010BDC04600D007400070044000E00740F4
S11333100410000044100000FFFFF3FFFFFFFFF064
S113332000400640005006401249134810B581423F
S113333005D00022114B9B089B009A420FD1104BE1
S1133340104A9960002310491048521A9A420AD12F
S113335000210F4B0F4AD21A013A08D210BD8458EB
S11333608C500432E9E7CC5CC4540133EEE71970A5
S11333700133F1E70000000000000000000000003D
S113338000ED00E0FC6F0000546E000000FEFF1F23
S1133390A8FFFF1F040300200300417000201870E1
S11333A058609860704710B5437804000120FF2BE3
S11333B008D000F0B5FA63780133DBB2637000F033
S11333C0A3FA002010BD0020704770B504000D0062
S11333D000F0A6FAE1682943E16000F095FA0020C4
S11333E070BD000000220A4B9A641A0040329A63AE
S11333F01A0030329A621A0020329A611A0010328E
S11334009A60044A1360044B9B60DB607047C046BB
S11334106802002064020020B80200200022024B4F
S11334201A60186880B270470C007C5070B54378FD
S113343004000D00002B0BD0002500F071FA637816
S1133440013BDBB26370257000F05EFA280070BDAA
S113345002200029FBD02378002B17D0FFF7DEFFD2
S11334606368A268834204D8C01A824206D3032048
S1133470EDE7C01A80235B02C018F6E700F050FAAB
S11334800023237000F040FA0220E0E74B1CEED04A
S113349000F046FA0123237000F036FAFFF7BEFF6E
S11334A0A5606060E3E770B50500FFF7B7FF80260D
S11334B004007602FFF7B2FF0300844203D8031B23
S11334C09D42F7D270BD301BC318F9E710B540B266
S11334D000F010FA002010BD10B5012801D100F051
S11334E01FFA10BD10B5012801D100F00DFA10BD6E
S11334F010B5FFF777FF01230020084A084913603D
S1133500084A094C1060086004212160074C2160BE
S113351007490B6007490860136010BD38800450E8
S113352000008450000004500000045104000451C1
S113353004000C500000045310B5044C20602171A9
S11335400020A2602373637310BDC046C80200202C
S11335500422F0B587B005AC3B4E01900291207077
S1133560617033790092834226D90022337B15009F
S1133570737301230092A3700393334F3B7BAB42DD
S11335801DD8009B002B02D0029B012B48D10120A7
S1133590FFF7A2FF0C20019B00255843336818183D
S11335A000F0C2F8019B012073710226FFF79AFF15
S11335B0A6703B7BAB421AD8009807B0F0BDBA683E
S11335C0AB009B58002B0FD01A7903990A420BD0F9
S11335D020001A6899689047002805D0029B7D73E3
S11335E0002B1BD0052300930135EDB2C5E7BA6863
S11335F0AB009B58002B0ED01A7932420BD020001E
S11336001A6899689047002805D0029B7D73002BA7
S113361017D0062300930135EDB2CAE705230093C2
S11336200023A370013DEDB2FF2DC5D0064BAA00C7
S11336309B68D358002BF5D020001A6899689047EE
S1133640F0E706230093B7E7C8020020014B58793E
S11336507047C046C802002013B50400002021783A
S11336600190022920D0032922D0012925D12279D1
S113367001AB144801F058F9002814D1A3795A1E5B
S11336809341114ADB01137063785A1E93410F4A28
S11336905B001370A2780E4B1A70E2780D4B1A700F
S11336A062790D4B1A7016BD0100227901ABE0E777
S11336B001A9044801F07AF9DEE701A9014801F003
S11336C017F9D9E700400640184086530040865059
S11336D0004006500140065018401650074A43095E
S11336E09B009B18F822C005120510401843802344
S11336F05B051843002303607047C04628800440DC
S1133700F821084A43099B009B180905C2050A4091
S113371013438022520513431F2210401E3A824055
S11337201A60704728800440072373B50093002370
S11337300400104D1A000121280001F01FFB200095
S1133740FFF78AFF637A280000930023217A1A0086
S113375001F014FBE379084A9B041360074BA17A38
S11337601D68280001F03EF92800E17A01F049F9CA
S1133770002076BD0070044000700C594C6D0000B0
S113378010B5054801F074F8044B1968C9B2013149
S1133790FDF7E0F910BDC0460040064044801C5EC1
S11337A010B5FFF7EDFF10BD10B5054801F060F846
S11337B0044B1968C9B20131FDF7CCF910BDC046FC
S11337C0004006404480145810B5FFF7EDFF10BDCB
S11337D00B4B1B68DBB2022B0CD0032B0DD000204B
S11337E0834206D1074A106880221202904200D018
S11337F018007047044B1868FBE7FA208000F8E7CC
S113380000700C59F4020020F802002010B5FFF7F4
S1133810DFFF10BD054B10B5186801F0EAF800236E
S1133820984201D0024B1B68180010BD4C6D00007B
S1133830F4020020044B01201B6810B5DBB2002BFE
S113384001D0FFF7E7FF10BD0480045210B50C004F
S113385012282AD8FDF76AF90A0A0A0F290F121545
S11338602929181B292929291E222600FFF788FF48
S11338702060002010BDFFF797FFF9E7FFF7A8FFCE
S1133880F6E7FFF7C7FFF3E70A4B2360F1E7FFF71B
S1133890D1FFEDE7084800F0EBFFE9E7064800F048
S11338A0D1FFE5E7FA239B00EFE700230220236022
S11338B0E0E7C046006CDC020040064010B5024B55
S11338C0185CFFF71DFF10BDE36C000010B57620F7
S11338D0FFF716FF10BD10B57620FFF7FFFE10BDF1
S11338E010B56620FFF70CFF10BD10B56620FFF77A
S11338F0F5FE10BD0300034A10339B009858D150C5
S11339007047C04600000000044A1368002B04D02E
S1133910013B1360002B00D162B67047D80200202F
S113392072B6024A1368013313607047D80200204C
S1133930F8B50D00012411001A00002811D0002D43
S11339400FD0002400260027846006614761C4600C
S11339508461C46104624462069B2C680560A047CC
S113396004002000F8BD000037B50B00040015006A
S1133970002801D101203EBD002AFBD0226802208C
S1133980002AF8D02171180001A9FFF75FFF010098
S113399003200029EFD12A000B000198FDF770FAEB
S11339A0002902D1084B98420CD90023074AFDF79D
S11339B047FA0B000100002BDCD1236820009B6830
S11339C09847D8E70121F8E73F420F0040420F0033
S11339D0030010B50120002B06D01A680018002A35
S11339E002D01800D268904710BD10B50400012021
S11339F0002C08D023680018002B04D01B69200079
S1133A0098470023236210BD002801D04169006952
S1133A10704703000120002B04D000209861186235
S1133A20DA619961704700000E4B70B51B689B0703
S1133A3013D50D4B1B68002B0FD01869596901244D
S1133A400025001969419A6918615961002A04D056
S1133A50596A002902D001221A6270BDD8699047C0
S1133A60FBE7C04610E000E0DC0200200020072253
S1133A70014B98601A60704710E000E00020014B91
S1133A801860704710E000E0012010B500214042AA
S1133A90FFF71CFD002806D1044B1860586098609D
S1133AA0034B186010BD0420FCE7C04610E000E0A2
S1133AB0DC0200204A1E0300120E0120002A08D155
S1133AC0814200D10221034A481E506000209960BF
S1133AD0D960704710E000E0F8B5070001200D0040
S1133AE0FFF7FAFC0120104C2368834323603A69F2
S1133AF07B692A606B600D4BA6685B685B0109D526
S1133B00236803432360FFF7EDFCFB68013B0020BF
S1133B10AB60F8BD236803432360FFF7E3FC6368ED
S1133B2001339B1BF3E7C04610E000E000ED00E02A
S1133B30030070B501201400002913D104250B4A99
S1133B400238156051609160094A0A491360FFF711
S1133B50BDFC002807D1084BA4071A6A1202120AF6
S1133B6022431A6270BD2800FCE7C04610E000E062
S1133B70DC020020293A000000ED00E010B5064CFC
S1133B80064801F08DFB042801D1002010BD013C42
S1133B90002CF5D10320F9E7EA03000000E0074018
S1133BA010B50B4B0B490A78002A07D0084C0A4879
S1133BB001F076FB012806D1002003E0013B002B35
S1133BC0F1D1032010BD013C002CF0D1F9E7C0462F
S1133BD0EA03000002D0075100E00740F7B50700F0
S1133BE00E00150001200193002F15D0002913D0D9
S1133BF0FFF772FC094C102200212000FCF768FD3D
S1133C0027602671002D03D0019BA5602373637385
S1133C100120FFF767FC0020FEBDC046E002002043
S1133C20F0B5B14C8DB002900391237B01206373F6
S1133C30FFF752FC2379029A934206D80120FFF73A
S1133C4051FC022738000DB0F0BD029A236892009F
S1133C50D35809AC1D780193039B2A002372029B5D
S1133C602370019B636002239A430492012A01D0CA
S1133C70052D0AD101219D4801F066FA002807D1DB
S1133C800120FFF72FFC0127DCE70321072DF2D8E1
S1133C900123002763723C000593934E337BA342B8
S1133CA02AD80120FFF71EFC914800F005FE049B72
S1133CB0012B4AD10138022835D9039B012B00D0AE
S1133CC00DE106270120FFF707FC0023012609ADBB
S1133CD06B72013CE4B2FF2C00D1AFE0824BA20036
S1133CE09B68D358002BF4D01A793242F1D02800C3
S1133CF01A6899689047ECE7B268A3009B58002BB8
S1133D000ED01A7905990A420AD01A68996809A846
S1133D109047002804D0039B04277473012BC0D15F
S1133D200134E4B2B9E7FFF74FFD724B9842C4D8AF
S1133D30FFF726FD704EB042BFD8FFF735FDB04205
S1133D40BBD8FFF72DFDB042B7D8039B012B00D0A1
S1133D50C1E00A2D00D9BCE02800FCF7E7FE060A02
S1133D600D1E879A7B822F737800002207AB1A708E
S1133D702DE0032207ABFAE75C4801F091FA012831
S1133D8008D00021594801F0EFF9FFF709FF071E99
S1133D9000D057E7012207ABE9E7544801F080FA65
S1133DA0042808D00221514801F0DEF9FFF7E6FEAD
S1133DB0071E00D046E7042207ABD8E7072207AB6B
S1133DC01A80019AD2789A70019A1279DA702B00CB
S1133DD0083B022B06D8019B06AA5B799372019BD0
S1133DE09B79D372019B5B78002B0AD0012D08D9F3
S1133DF0019B02229978414B00294DD019690A434D
S1133E001A613A4807A901F0D3F9002800D0032722
S1133E10002D45D1FFF7C4FE071E00D012E700278E
S1133E200120FFF759FB029B2F4D0024AB730223A3
S1133E3009AE737201932B7BA34236D80120FFF79E
S1133E4051FBFFE6082207ABFF321A80BFE72C4A7A
S1133E5007ABFAE7022207AB1A700222FF329A80FC
S1133E60B5E7022207AB1A70264AF8E7022207AB2D
S1133E701A70013A1D489A8001F012FA0128A6D05E
S1133E8000211A4801F070F9FFF78AFE071E9ED040
S1133E90D8E6052207AB6AE7196991431961B0E7CF
S1133EA0012DBDD1FFF76AFEB6E7AA68A3009B58AF
S1133EB0002B0BD01A7901990A4207D030001A68F6
S1133EC099689047002801D005276C730134E4B247
S1133ED0B1E70327B6E6002F00D13AE7F2E6002F58
S1133EE000D0EFE6EDE6C046E002002000E0074027
S1133EF00040064040420F0080841E0000ED00E0B8
S1133F00070300000102000010B5064801F0C8F9DB
S1133F1003000020012B03D00B30042B00D10A38FE
S1133F2010BDC04600E00740F7B5FF2403681D4AF2
S1133F301E0A26401C40B3009F581B4A05009B588C
S1133F4030000193FFF7BAFC00222100380001F091
S1133F50AFF9019BA400E41884232A795B05234369
S1133F6052001A6080236A795B0523431A60902308
S1133F70AA795B05234312011A600C4B1C43EB79AD
S1133F801B042360EB79002B0AD0094B9B57002BB1
S1133F9006D01F2213401E3A9A401300054A1360AC
S1133FA0F7BDC046506D0000586D000000001818A1
S1133FB0606D000000E100E0F8B5FF24050003682F
S1133FC0114A180A20401C4083009F580F4A9E58EB
S1133FD0FFF774FC38002100012201F069F96A68D6
S1133FE02100380001F073F988232A7AA400A41967
S1133FF05B05234392001A6098235B051C436B7A8C
S11340009B012360F8BDC046506D0000586D000050
S113401070B50C00002807D1002C0FD170BD05002D
S11340200835FFF781FF280003680133F7D1F3E770
S1134030250020000C35FFF7BFFF2C002368013357
S1134040F6D1EBE7FF22030A044913409B005958B9
S11340500123104083404B607047C046506D000000
S1134060FF22030A044913409B00595801231040BE
S113407083408B607047C046506D0000084B82003F
S1134080D258942310B502325B0513431B78002BDE
S113409002D000F03FFA10BD00F092FAFBE7C046F0
S11340A0006D0000020080230C325B0513431A7874
S11340B0002AFCD00171704770B50D00084B8000D8
S11340C0C458200029001830FFF7B0F90328F8D0AD
S11340D0002801D004232374207CC0B270BDC046E4
S11340E0F002002010B5104B8000C458E37C002B74
S11340F005D0237C052B02D0237C042B0BD10B4B46
S113410018589823821C5B05134300221A7001F08F
S11341104DF901236374A37C002B03D020001830D5
S1134120FFF741F910BDC046F0020020006D000009
S1134130F0B51700002289B005930EAB1B7805007B
S11341400393830032481E5832481C5807AB1A8028
S1134150A37C880A04930223FF3363828B0A0193AE
S1134160CBB21E2801D11A000B0A5B00D8B2019B06
S113417000211E2B05D08F4203D1012303995B1A22
S113418059B20143CBB202930299019807AB19705B
S113419001211E2801D15A704918A3603000E16042
S11341A00299FFF77FFF28000F99FFF785FF237C13
S11341B0002B0CD1002F0AD0059BA760E3603000D0
S11341C03978FFF76FFF28000F99FFF775FF237CFD
S11341D0039A1A4314D1019B1E2B01D0002F0FD038
S11341E0002301273000A360E76001F0CDF80299B5
S11341F030003943FFF756FF28000F99FFF75CFFA3
S11342000023207CE374049BC0B2A37409B0F0BD06
S1134210006D0000F0020020F7B583000193184BF5
S11342208200D75805000C000126002F26D1154B1B
S11342303900D358200024220193FCF749FA2000C6
S113424039001830FFF7A8F82800FFF749FB019858
S113425001F045F80A4BAA00D4501F220A4B5B5DBB
S1134260134032009A40094B1A609C22019B52056C
S113427002331343802266743E001A703000FEBD80
S1134280F0020020006D0000046D000000E100E079
S1134290F7B50E4E8500AB59002701930C4B040073
S11342A0EA589C2302325B0513431F70FFF71DFB82
S11342B0084B01981A5D1F231A401E3B9340064A7F
S11342C01830D367FFF77FF8AF51F7BDF002002035
S11342D0006D0000046D000004E100E00A4B800062
S11342E070B5C5584B686A690C0093420BD0074BF4
S11342F0C658FFF759FA002301006268300000F045
S1134300FDFF63686B6170BDF0020020006D00006A
S1134310F0B587B004920593334A0FAB1E7883003F
S11343209C580391627C0700002A03D10320207467
S113433007B0F0BD002E01D11E220E922B4A380088
S1134340D55800230399E360A36023742360637446
S1134350A674FFF7C3FF90231021AA1C5B05134327
S113436019708423E91C5B050B43022119709823FF
S11343705B05134302934023029A2800137001F053
S113438003F8039B380019880E9B049A01930123B8
S11343900093059BFFF7CCFE0D9B002B17D0237CCD
S11343A0002B11D10C9B2800A3600D9BE3600C9B98
S11343B01978FFF777FE002E03D038000E99FFF727
S11343C07BFE207CC0B2B3E7237C042BF9D100230D
S11343D00126029A1370EB785B09334202D028005D
S11343E000F0E4FF6674ECE7F0020020006D0000CA
S11343F0F0B589B0079311AB1B780692364A029345
S113440083009C580591627C0600002A03D1032096
S1134410207409B0F0BD029A002A01D11E32109214
S113442000272E4A0599D5580E9B300023600F9B18
S1134430A7606360029BE760A37427746774FFF747
S11344404DFF9023AA1C5B051A4310231370842389
S113445004925B05EA1C134302221A709823AA18DB
S11344605B051A43402328001370039200F08CFF6D
S1134470059B069A1988109B300001930097079BAF
S1134480FFF756FE237CDAB2BB4215D1049BA91C6C
S11344901A708C235B050B430F99012900D1082264
S11344A01A702B79029B002B03D030001099FFF770
S11344B003FE207CC0B2ACE7237C042BF9D1012697
S11344C0039B1F70EB785B09334202D0280000F095
S11344D06DFF6674EDE7C046F0020020006D000039
S11344E01FB501240394089C0294079C0194069C24
S11344F00094FFF70DFF04B010BD1FB50124039411
S1134500089C0294079C0194069C0094FFF770FF9A
S113451004B010BD244B70B58400E5588423EA1C14
S11345205B05134302221A709023A9185B050B4301
S11345301B78EA78DBB292061DD5942252050A4311
S11345401278002A17D0194AA458012B14D1EA78FA
S11345501A4204D004332374FFF7C4FD0BE0E3686C
S1134560013BE360002BF7D0A36828005A1CA2602B
S11345705978FFF797FD70BD6268013A6260002ABE
S113458006D08C235B05012A0AD000220B4309E0E4
S1134590FFF7A8FD23685A1C22602A791A70EAE7FB
S11345A008220B431A70F5E7006D0000F0020020AA
S11345B0C31C842040051843022303707047000085
S11345C00122F0B5904B8100CD5889B0EB1C0193CA
S11345D0EB7890261B091A4005920122EB787605A8
S11345E09B091A4002923200AB1D1A43944612787A
S11345F00090D2B20792942252051A431278AF1C4B
S1134600D0B203909820400503431878C0B20690B6
S11346107E480C583100394301910978C9B204919C
S1134620002A35D0079A002A0ED0102362462800AB
S11346301370FFF7BDFF236B002B52D06A46012194
S11346401078626B98474CE0069A002A20D04022EA
S113465028001A70FFF7ACFF23002C331B78002BC3
S113466003D19822520517433B70236B002B04D0CF
S11346706A4680211078626B9847E37D002B04D052
S1134680200080211830FEF7A0FE0A23237028E0C2
S11346902800FFF78DFF059B002B24D0EB1C1E4345
S11346A010233370029B002B10D0EB785B07DA0FDA
S11346B0002B48DB019B1A70236B002B04D06A4645
S11346C004211078626B98472B790AE00823237041
S11346D02C342378002B04D198235B051F43029BC1
S11346E03B7009B0F0BD029B002BDED1049B012B73
S11346F054D1EB78049A134230D0019B029A1A7079
S11347002B7923002C331B78002B07D1039B002B20
S113471004D198235B051F43039B3B70236B002B41
S113472004D06A4608211078626B9847A37D002B59
S113473004D0200008211830FEF747FE00236360F0
S1134740E3602375CDE71023019A1370236B002BCC
S113475004D06A4602211078626B98476368002B84
S113476050D028008022E3680C30520519780243A7
S113477010780028FCD029710133E3606368013BA1
S113478063606368002BACD1E3602375236B002B5B
S1134790A7D06A4610211078626B53E72B79A26880
S11347A0DBB2002A2CD02269137023690133236100
S11347B0A368013BA360A368002B00D091E7039B8F
S11347C0002B11D123002C331B78002B04D1982308
S11347D05B051F43039B3B70E37D002B04D020004B
S11347E020211830FEF7F1FD002363752361236B4C
S11347F0002B00D175E76A4620211078626B21E70F
S1134800072343E7062341E7006D0000F002002080
S113481084225205024312780300D0B2002A0CD03D
S1134820802001334005034318780138434258413E
S1134830024B40421840024BC0187047808D5B0009
S113484080841E00020070B5074B083213431C78A5
S1134850064B103213431D78FFF7DAFFEDB2E4B2D2
S11348606419E04070BDC0460000901000001010B4
S113487010B50D4B821D13431A780400D3B2002ADD
S11348800FD0012B07D1FFF7C3FF084B08341C439B
S11348902378D84010BD0020022BFBD1044B1868AC
S11348A0F8E70448F6E7C04600000811000090103D
S11348B0F4020020006CDC020C4A811D0A431278C9
S11348C00300D0B2012A04D002280BD000280BD157
S11348D0704780220133520513431B78002BF7D114
S11348E00220F5E70320F3E70520F1E700000811B3
S11348F002009C2318325B05134380221A700022A5
S1134900064B03431A70064B063018430378DAB299
S1134910002BFBD1034B10000B6070470000081301
S113492000000811006CDC02F8B504000D0016004C
S11349301F00FFF7C1FF012823D1002D25D08023BC
S1134940621C5B0513431D70842302225B05234311
S11349501A702200104B083213437200D2B21A703C
S113496040220E4B0E48234306341A700443237826
S1134970012BFCD1002D0DD10A4B334100203B60AB
S1134980F8BD0228DBD1012DD9D139002000FFF771
S1134990AFFFD4E7044BF0E70000901000000813C9
S11349A00000081180841E0000127A0010B50A4C21
S11349B0030022680120002A0CD0084A7F301A43E1
S11349C010700748063303431A78022AFCD10020EA
S11349D023680B6010BDC046F402002000000813D9
S11349E0000008119C23C9015B050343C9B2197077
S11349F070479C235B0503431878431E9841C0B25B
S1134A007047942349015B050343C9B21970704789
S1134A1070B506680C0030002049FCF79BF81F496C
S1134A2005003000FCF71CF90E00E12130000901FB
S1134A30FCF790F8E121E08009013000FCF710F95F
S1134A400E003C213000FCF785F83C212081300029
S1134A50FCF706F96E22A1720321114BFF32238069
S1134A60238895420AD80F499B0700D10E49012398
S1134A70CA5CAA420CD36380A58070BD01339BB28B
S1134A8023800B40AD1A5A425A416E32FF32E7E797
S1134A900133AD1A0D2BEBD1EEE7C0468051010076
S1134AA0B20700002C6D0000056D00000188114A5A
S1134AB003008A18002030B5812A17D85A88541E5A
S1134AC00B2C13D89C88651E1E2D0FD8DD88172D3E
S1134AD00CD81D893B2D09D89B7A3B2B06D88B0714
S1134AE005D0054B9B5CA3424041C0B230BD034B93
S1134AF0F8E7C0464EF8FFFF2C6D0000056D00007E
S1134B0070B5134D838802885B196E25FF355543B4
S1134B1044885B1995085B190E4D6600755B5B193B
S1134B20920710D00B600A680B4BC4885343827AF7
S1134B3000899B18E122120162439B183C224243E4
S1134B409B180B6070BD022CECD8013BEAE7C04611
S1134B504A05F5FF126D0000805101008023084AC8
S1134B601B0212689A4209D1A02310305B05184336
S1134B700368002B02D10133FF3303607047C04642
S1134B80F40200200100802210B500230124520504
S1134B90103111430C600B6090214360490504609F
S1134BA01C3001430B608821490501430B608421BB
S1134BB04905014310430B60036010BD02009023BC
S1134BC014325B05134300221A6042601032016004
S1134BD01A60704703680B6070470000104B820036
S1134BE070B5D558802204000E4B92051A60280037
S1134BF0FFF7C8FF2800FFF7B1FF0B4B1F261A5D14
S1134C000123180009493240095DC0253140904014
S1134C108B40074A6D00505153511060136070BDB2
S1134C203C6D00003C80845E406D0000416D0000DE
S1134C3000E100E0F7B50027114B8000C5580800DB
S1134C400E000197FFF732FF0400B84216D001A905
S1134C503000FFF755FF3800FEF7D8FD0100802033
S1134C600002814206D0FBF775FF01000198FBF7B3
S1134C7071FF019028000199FFF7A0FF2000FEBDFD
S1134C803C6D0000F7B50025124B8000C4580E009F
S1134C90200001A90195FFF79DFF2800FEF7B6FD4E
S1134CA005008020000285420ED00B4B29000434FD
S1134CB01C43FBF74FFF2768019C29004443B8B20B
S1134CC0FBF748FF24180194310001A8FFF7A0FE68
S1134CD0F7BDC0463C6D000000007810F0B5002719
S1134CE0184B800085B0C55808000E000192039748
S1134CF0FFF7DCFE0400B84203D10024200005B015
S1134D00F0BD300003A9FFF7FBFE38002E68FEF764
S1134D107DFD010080200002814206D0FBF71AFFCE
S1134D2001000398FBF716FF0390039BB342E4D3FF
S1134D30AB6088231C355B051D43019B9A002A60E8
S1134D40DCE7C0463C6D0000044B8000C258882359
S1134D501C325B0513438900196070473C6D0000E9
S1134D60054B8000C258882314325B05134318682E
S1134D70431E9841C0B270473C6D00006B46E02270
S1134D801B78D2021B041340024A09070B43801804
S1134D900360704744100000084B8200D2589023EF
S1134DA010B503325B0513431B78002B02D000F0CF
S1134DB013F910BD00F078F9FBE7C046446D00001C
S1134DC09C210C4B0C4A8000C358825800200332AB
S1134DD04905114310B518710870942149050A4317
S1134DE010701A7F824203D020331800FEF7DBFADA
S1134DF010BDC046FC020020446D0000F7B50C0055
S1134E0005001B4B3022002187002000FE58FBF7D1
S1134E105FFC2800FEF75AFDFEF7C6FC2060300058
S1134E2000F0E5FA200000212030FEF7B5FAF31C6B
S1134E3001939023F21C5B051343102230001A7077
S1134E40032100F012FB3000002100F033FB094B7A
S1134E50FC50094B5A5D1F231A401E3B9340074ADE
S1134E6013609823019A5B05134340221A70F7BD1F
S1134E70446D0000FC020020486D000000E100E0E9
S1134E80F8B50D4E85000D4BAF590400E85800F0FD
S1134E90AEFA38002030FEF796FA094B20001A5D6E
S1134EA01F231A401E3B9340064AD367FEF713FDA7
S1134EB00023AB51F8BDC046FC020020446D000045
S1134EC0486D000004E100E00A4B800070B5C6584C
S1134ED0094B0C00C358150030001A68096800F02B
S1134EE08DFA2860A37930006279217900F0CFFA35
S1134EF070BDC046446D0000FC020020F7B51E4A98
S1134F0083009C58050022790420002A16D11B4AEC
S1134F109E58002903D0280001AAFFF7D5FF982343
S1134F2000214020F21C5B05134319701870276997
S1134F308F4204D12800FFF743FF0020FEBD012368
S1134F40237194235B05A16133431B780720002B55
S1134F50F4D0A368191E02D019780133A360B1718B
S1134F602369013B2361A3690133A3619C235B058E
S1134F701A4380231370E0E7FC020020446D000014
S1134F80F8B5134F134C85002C59ED590127069E93
S1134F902777A2602661E3606661FFF7AFFF002810
S1134FA014D1200007992030FEF740FA0328F8D0E6
S1134FB000280BD09C23002203355B052B43227170
S1134FC01A70942303205B051D432A70F8BDC04664
S1134FD0446D0000FC02002010B51E4B8200D35823
S1134FE01979002934D01C4951585A69002A11D022
S1134FF09C2252050A431278002A0BD08A79DC6875
S1135000D2B2002C03D02270DA680132DA605A6915
S1135010013A5A611A69002A12D0942252050A43AD
S11350201278002A0CD09A68141E02D01478013227
S11350309A608C711A69013A1A619A6901329A610B
S11350401A69002A04D15B69002B01D1FFF7B8FE6D
S113505010BDC046FC020020446D0000104A8000D0
S1135060815800220F4B10B5C3580331581CC27726
S11350709C2040050843DA621A701A835A629A62C5
S11350801A6302709420400501430A701A003832F2
S11350901278002A03D00121181DFEF796F910BDDD
S11350A0446D0000FC02002070B5254B8200D358EB
S11350B0591CC97F002942D022495258D96A002973
S11350C017DB9421490511430978002911D0D969C6
S11350D0CCB2596A002905D0DD6A002D02DD0C78B6
S11350E0013159629471D96A0139D962596B01311C
S11350F05963D96A002905DA9421D41C490521434E
S113510000240C70196B002911DD9C214905114301
S1135110097800290BD09279996AD2B2002903D078
S11351200A709A6A01329A621A6B013A1A63DA6A4D
S1135130002A04DC1B6B002B01DCFFF78FFF70BD22
S1135140FC020020446D0000012903D0032909D08A
S11351500020704794235B0518430078431E984150
S1135160C0B2F6E78423F6E7431C03484901184319
S1135170C9B201707047C04600008812831C942095
S1135180490140051843C9B201707047831C0348A4
S113519089011843C9B201707047C0460000081362
S11351A0831C8C20C90040051843C9B201707047A4
S11351B0F7B50400364EE31C1E43337808780D001F
S11351C0DBB2072860D8FBF7B1FC04192B0E192BAE
S11351D02B45304B01341C43002323703378012BBF
S11351E0FCD10020FEBD012BFCD12A4B01341C4311
S11351F0402323703378042BFCD1F2E700210128EB
S113520001D004200231337898423FD12000FFF7C7
S1135210ABFF0421204A13698B43136130BFE0E7DD
S11352200227B84207D100270B79BB4203D02000E4
S11352304979FFF7ABFF194B01341C4327703378CE
S1135240154ADBB20193019B0133019304231169D5
S11352500B43E2E70421114B621C1A4311706A7874
S1135260A11C0B431A70002A06D1AB78002B03D083
S11352702000E978FFF782FFAB79002BDFD0200014
S1135280E979FFF78DFFDAE70120ABE70320A9E70F
S1135290000030100000881200ED00E00000101043
S11352A0C31C024818430078C0B270470000301095
S11352B0012314308B40012A04D1802212051043AB
S11352C0036070478022D204DB431043F8E70123D4
S11352D08B40002A01D0436070478360FCE70023C1
S11352E0C222037043708370C37043718371C371AE
S11352F0037242728372C37270470000F0B50024D7
S113530087B00293FA230126270025009B0053430C
S113531003900491009301947642AB000593194BDA
S1135320AA009B1859880498A140FBF713FC009B22
S1135330009AC31A824200D9131AB3421FD2114AE7
S1135340A900525C27000192002B02D00135322DB6
S113535013D10134032C01D0002B0DD1029A002A61
S113536000D013603F220199BB0111400B43039A03
S1135370DBB2537007B0F0BD00251E00CDE733004B
S1135380E4E7C046626D0000942302305B050343EA
S11353901B78002B05D088235B0518430423037076
S11353A0704780231B0518433023F8E7942210B577
S11353B05205841C224311780300CAB20220012939
S11353C00DD18021C90421438024CD300870E4002C
S11353D003331978490908001040114200D110BD67
S11353E0013C002C01D0C046F3E70920F7E7042371
S11353F0C37000238370437003717047F0B5130BBF
S113540089B00126039308230124764202939B1951
S1135410079004910592019302270025631E0693C9
S1135420210005987943FBF795FB049B834207D33E
S11354301B1AB34204D21E00069B039002950193EB
S113544001357F00092D01D0002EE9D1082C02D0AE
S11354500134002EE0D1019B029A1B0103981343EF
S1135460079ADBB2537009B0F0BD842310B502244F
S1135470C21C5B0513434A0022401A709023001992
S11354805B0518431023C9001940017010BD10B505
S11354908C2403306405C9000443C9B221708821F7
S11354A0920049050143D2B20A708022520510438A
S11354B0037010BD8023012202305B0503430A40C0
S11354C01A708C235B051843082389001940017066
S11354D07047000004FEFF1F1B5B306D1B5B343BF9
S11354E034336D1B5B313B33376D0D53616E69741F
S11354F07920636865636B206661696C6564211B50
S11355005B306D0A001B5B306D1B5B343B34316DCB
S11355101B5B313B33376D0D496E76616C696420DA
S1135520737570706C7920766F6C74616765205B3D
S113553025645D206D56211B5B306D0A00204D4DA6
S1135540413834353120782C204D4D4138343531B3
S113555020792C204D4D4138343531207A2C0020CF
S11355605254432D3E5453522C205254432D3E54F6
S113557050522C202320436F6E6669672045727257
S11355806F72730025752C2025642C2025642C0053
S11355902025642C2025642C2025640A000D093064
S11355A07825303278202D2D3E205B30782530321E
S11355B07820307825303278203078253032785D84
S11355C00A000D09307825303278202D2D3E203008
S11355D078253032780A000D093078253032782069
S11355E02D2D3E202D2D2D2D0A000D0A0925642F69
S11355F02564207375636365737320726174652E0B
S11356000A000D0925642F2564207375636365738F
S1135610736573206D617463686564207265662EBA
S11356202076616C7565206F66203078253032787D
S11356302E0A000D0925642062616420636F6D6D7C
S1135640616E64732E0A0A000D0A4D4D41383435DB
S113565031513A0A0D000D0A494E413231393A0AA4
S11356600D000D0A0A424D453638302052656164FA
S11356702041626F727465642E20446576696365A7
S11356802044697361626C6564203A28000D0A093C
S1135690424D58303535616363656C2052656164F1
S11356A02041626F727465642E2044657669636577
S11356B02044697361626C6564203A2820000D0AF5
S11356C009424D583035356779726F2052656164EF
S11356D02041626F727465642E2044657669636547
S11356E02044697361626C6564203A2820000D0AC5
S11356F00920424D583035356D616720526561642B
S11357002041626F727465642E2044657669636516
S11357102044697361626C6564203A2820000D0A94
S1135720094D414733313130205265616420416273
S11357306F727465642E20446576696365204469DC
S11357407361626C6564203A2820000D0A094C33A9
S1135750474432304820526561642041626F72745C
S113576065642E20446576696365204469736162CB
S11357706C6564203A2820000D0A094C50533235D8
S11357804820526561642041626F727465642E2002
S11357904465766963652044697361626C6564205D
S11357A03A2820000D0A0954435333343732352044
S11357B0526561642041626F727465642E20446591
S11357C0766963652044697361626C6564203A2874
S11357D020000D0A0953493437303520526561647D
S11357E02041626F727465642E2044657669636536
S11357F02044697361626C6564203A2820000D0AB4
S1135800094844433130303020526561642041629C
S11358106F727465642E20446576696365204469FB
S11358207361626C6564203A2820000D0A095349AB
S11358303730323120526561642041626F72746581
S1135840642E204465766963652044697361626CE3
S11358506564203A2820000D0A0943435338313146
S113586020526561642041626F727465642E204425
S113587065766963652044697361626C6564203A86
S11358802820000D0A09414D473838333420526529
S113589061642041626F727465642E204465766988
S11358A063652044697361626C6564203A28200052
S11358B00D0A094153373236322052656164204162
S11358C0626F727465642E20446576696365204452
S11358D0697361626C6564203A2820000D0A0941ED
S11358E0533732363320526561642041626F7274DB
S11358F065642E204465766963652044697361623A
S11359006C6564203A2820000D09496E76616C6943
S113591064207761727053656E736F724465766943
S11359206365205B25645D20706173736564207416
S11359306F2072657065617452656769737465720E
S113594052656164466F72446576696365416E644D
S1135950416464726573732E0A000D0A0941445848
S11359604C33363220526561642041626F72746533
S1135970642E204465766963652044697361626CB2
S11359806564203A28000D09506F776572757020A0
S1135990636F6D6D616E64206661696C65642E2051
S11359A0424D583035352064697361626C656420FA
S11359B00A000D09506F776572646F776E20636F0C
S11359C06D6D616E64206162616E646F6E65642EDC
S11359D020424D583035352064697361626C6564CA
S11359E00A000D09506F776572646F776E20636FDC
S11359F06D6D616E64206162616E646F6E65642EAC
S1135A00204C3347443230482064697361626C65CA
S1135A10640A000D09506F776572646F776E2063B6
S1135A206F6D6D616E64206162616E646F6E65643A
S1135A302E20544353333437323520646973616202
S1135A406C65640A000A0A0A0D426F6F74696E6716
S1135A5020576172702C20696E20332E2E2E200068
S1135A60322E2E2E2000312E2E2E0A0D000D0A0A63
S1135A700A0A5B202A090909095709610972097090
S1135A8009287265762E2062290909092A205D0AEF
S1135A90000D5B2020090909092020202020204333
S1135AA0616D627269646765202F20506879736341
S1135AB06F6D706C61622020200909090920205D46
S1135AC00A0A000D09537570706C793D25646D5692
S1135AD02C0944656661756C742054617267657441
S1135AE020526561642052656769737465723D3044
S1135AF078253032780A000D094932433D25646B1C
S1135B00622F732C095350493D25646B622F732C0B
S1135B1009554152543D25646B622F732C09493257
S1135B20432050756C6C2D55703D25640A0A000D98
S1135B300953494D2D3E53434743363D3078253074
S1135B40327809095254432D3E53523D3078253062
S1135B50327809095254432D3E5453523D3078252E
S1135B603032780A000D094D43475F43313D3078A8
S1135B70253032780909094D43475F43323D307877
S1135B802530327809094D43475F533D307825303D
S1135B9032780A000D094D43475F53433D30782561
S1135BA03032780909094D43475F4D433D3078252C
S1135BB030327809094F53435F43523D30782530E2
S1135BC032780A000D09534D435F504D50524F54E3
S1135BD03D307825303278090909534D435F504DE3
S1135BE04354524C3D3078253032780909534342AE
S1135BF02D3E5343523D3078253032780A000D094A
S1135C00504D435F52454753433D307825303278F9
S1135C1009090953494D5F53434743343D307825BF
S1135C20303278095254432D3E5450523D30782539
S1135C303032780A0A000D0925647320696E2052F7
S1135C4054432048616E646C657220746F2D6461E6
S1135C5074652C09256420506D6772204572726F3B
S1135C6072730A000D53656C6563743A0A000D2D56
S1135C70202761273A207365742064656661756C1A
S1135C80742073656E736F722E0A000D2D202762C7
S1135C90273A207365742049324320626175642079
S1135CA0726174652E0A000D2D202763273A207334
S1135CB06574205350492062617564207261746573
S1135CC02E0A000D2D202764273A20736574205571
S1135CD0415254206261756420726174652E0A0019
S1135CE00D2D202765273A2073657420646566614D
S1135CF0756C74207265676973746572206164647D
S1135D00726573732E0A000D2D202766273A2077BB
S1135D1072697465206279746520746F2073656E8E
S1135D20736F722E0A000D2D202767273A207365A2
S1135D30742064656661756C7420535353555050D8
S1135D404C592E0A000D2D202768273A20706F77B2
S1135D506572646F776E20636F6D6D616E6420741D
S1135D606F20616C6C2073656E736F72732E0A0002
S1135D700D2D202769273A207365742070756C6C8B
S1135D802D757020656E61626C652076616C756539
S1135D902E0A000D2D20276A273A2072657065614E
S1135DA07420726561642072656720307825303212
S1135DB078206F6E2073656E736F72202325642EB6
S1135DC00A000D2D20276B273A20736C656570201F
S1135DD0756E74696C2072657365742E0A000D2DDE
S1135DE020276C273A2073656E64207265706561A4
S1135DF07465642062797465206F6E204932432E85
S1135E000A000D2D20276D273A2073656E642072D9
S1135E10657065617465642062797465206F6E20B5
S1135E205350492E0A000D2D20276E273A20656E07
S1135E3061626C65205353535550504C592E0A00DF
S1135E400D2D20276F273A2064697361626C6520E9
S1135E505353535550504C592E0A000D2D20277082
S1135E60273A2073776974636820746F20564C5006
S1135E7052206D6F64652E0A000D2D202772273A7B
S1135E802073776974636820746F2052554E206DB7
S1135E906F64652E0A000D2D202773273A20706F3A
S1135EA077657220757020616C6C2073656E736FFA
S1135EB072732E0A000D2D202774273A2064756D05
S1135EC0702070726F636573736F72207374617482
S1135ED0652E0A000D2D202775273A20736574203E
S1135EE049324320616464726573732E0A000D2D78
S1135EF0202778273A2064697361626C65205357C0
S1135F004420616E64207370696E20666F72203164
S1135F103020736563732E0A000D2D20277A273AEB
S1135F202064756D7020616C6C2073656E736F7284
S1135F307320646174612E0A000D2D20272F273AE7
S1135F40205072696E742031303030206375727263
S1135F50656E742073656E736F7220726561646917
S1135F606E67732E0A000D456E7465722073656C3E
S1135F70656374696F6E3E20000D0953656C65633B
S1135F80743A0A000D092D20273127204144584C2A
S1135F9033363209090928307830302D2D307832E3
S1135FA044293A20312E3656202D2D20332E3556B5
S1135FB02028636F6D70696C6564206F7574292087
S1135FC00A000D092D2027322720424D583035353F
S1135FD0616363656C20090928307830302D2D30D9
S1135FE0783346293A20322E3456202D2D20332E54
S1135FF036562028636F6D70696C6564206F757404
S113600029200A000D092D2027332720424D58301E
S113601035356779726F09090928307830302D2DAC
