S02B00002F73747564656E74732F6F6F6F33302F576172702D6669726D776172652F6275696C642F6B73646BDE
S1130000000600201D050000450500004505000010
S113001000000000000000000000000000000000DC
S11300200000000000000000000000004505000082
S11300300000000000000000450500004505000028
S11300404505000045050000450500004505000084
S11300504505000045050000450500004505000074
S1130060433A0000450500004D3A000045050000F4
S11300704505000045050000450500004505000054
S11300804505000045050000450500004505000044
S1130090BD160000D516000045050000450500000A
S11300A04505000045050000450500004505000024
S11300B04505000045050000450500004505000014
S1130400FFFFFFFFFFFFFFFFFFFFFFFFFE3DFFFFBB
S11304100448054B10B5834203D0044B002B00D095
S1130420984710BDA8FFFF1FA8FFFF1F0000000092
S113043006480749091A8B10C90FC91810B5491085
S113044003D0044B002B00D0984710BDA8FFFF1F1A
S1130450A8FFFF1F0000000010B5074C2378002BF5
S113046009D1FFF7D5FF054B002B02D0044800E06B
S113047000BF0123237010BDA8FFFF1F0000000070
S113048068740000054B10B5002B03D004490548DF
S113049000E000BFFFF7CCFF10BDC0460000000025
S11304A0ACFFFF1F68740000402292029A1A924621
S11304B07047C046154B002B00D1114B9D46FFF7EA
S11304C0F3FF00218B460F461148124A121A00F01E
S11304D0FFF80C4B002B00D098470B4B002B00D09F
S11304E098470020002104000D000B4800F02EF86E
S11304F000F064F82000290001F088FD00F034F8D1
S113050000000800000000000000000000060020B9
S1130510A8FFFF1F0C0300209505000072B60648D3
S11305200649074A02600A6003F096FA03F0D6FA15
S113053062B6FFF7BFFF000080E100E080E200E068
S1130540FFFFFFFF004800474505000010B501000C
S113055000230022002000F019FA10BD014B186896
S11305607047C04600FEFF1F084B10B50400002B67
S113057002D0002100F078FA054B1868836A002B3A
S113058000D09847200001F06BF8C046690A0000CB
S1130590C85C000070B5074D074C641BA41005D05F
S11305A0013CA300EB589847002CF9D106F062FFF8
S11305B070BDC0468C7400009074000070B50C4D82
S11305C00C4E761BB61005D0002408CD0134984794
S11305D0A642FAD106F048FF074D084E761BB61026
S11305E005D0002408CD01349847A642FAD170BD45
S11305F08874000088740000887400008C74000003
S113060010B5034B0100186800F00CF910BDC0468A
S113061000FEFF1F10B5034B0100186800F0ACF892
S113062010BDC04600FEFF1FF0B5C64600B50F2A38
S113063043D90B00032603431E400C000300002E85
S113064040D11500103D2D09AC462D01A84680442B
S113065000E03B00676825685F60E7681D60DF6055
S11306601F00A56810379D6010344345F1D16546DD
S11306700F230C2401352D01491913404519144247
S113068023D08C59AC5104369C1B032CF9D8032479
S1130690043B9B0801339B002240ED18C918561EE9
S11306A0002A07D0002300E02300CA5C5C1CEA5443
S11306B09E42F9D104BC9046F0BD0500561E002AA6
S11306C0F0D1F7E7561E0500ECE71A00F6E7C0463E
S11306D0F0B5050083074AD0541E002A44D0CEB298
S11306E00300032202E00135013C3DD301332E70A7
S11306F01342F8D1032C2FD9FF220A4015021543C7
S11307002A0415430F2C35D92700103F3F093E0119
S1130710B4461E001A001036664415605560956094
S1130720D5601032B242F8D10F260C2201373F01B6
S11307302640DB193700224217D03E1FB608B4000A
S1130740A4461A001C1D644420C2A242FCD1032406
S11307500136B6009B193C40002C05D0C9B21C19C7
S1130760197001339C42FBD1F0BD3400F4E714004E
S11307700300BFE72700E0E770B50500002915D0A6
S11307800C1F2368002B27DB280000F0CBF9244B37
S11307901A68002A05D0A2420CD921686018824246
S11307A024D0626028001C6000F0BEF970BDA34232
S11307B003D81A005368002BF9D111685018A042CD
S11307C01BD027D821686018834207D06360546027
S11307D0280000F0A9F9E9E7E418D5E718685B6890
S11307E084466144216063605460F1E71068526894
S11307F08446614421606260D4E720680918501877
S113080011608342E4D118685B68844661441160D6
S11308105360DDE70C2328002B6000F085F9C5E761
S1130820C4FFFF1FF8B50323CD1C9D430835060004
S11308300C2D2AD20C25A94229D8300000F072F9D7
S11308402A4F3A68002A0AD013685B1B04D441E09B
S113085023685B1B1FD522005468002CF8D17B68E9
S1130860002B3DD02900300000F042F8431C2AD070
S11308700323C41C9C43A04205D0211A300000F07D
S113088037F8431C1FD0256010E0002DD3DA0C2369
S113089000203360F8BD0B2B05D86368A2421DD03D
S11308A0536003E014002360E4182560300000F076
S11308B03BF9200007220B30231D9043C21AE9D0D4
S11308C01B1AA350E6E70C233000336000F02CF928
S11308D00020DFE70B2BE5D8140053683B60E5E705
S11308E00021300000F004F87860BBE7C4FFFF1F6C
S11308F0002370B5064C05000800236000F0B2FE2A
S1130900431C00D070BD2368002BFBD02B60F9E79B
S11309100803002003000A7801311A700133002A09
S1130920F9D1704710B5830727D00378002B26D060
S11309300300032102E01A78002A1CD001330B4281
S1130940F9D119680F4A104C8A188A4322420FD1F0
S1130950043319680B4A8A188A43224208D10433A3
S11309601968084A8A188A432242F1D000E0013308
S11309701A78002AFBD1181A10BD0300E1E7002001
S1130980FAE7C046FFFEFEFE80808080F0B5464652
S11309904F46D646C0B51F002F4B82B01C680500D9
S11309A00E009046002C2DD063681F2B50DC002DC8
S11309B01CD08822A0589146002834D0783282581E
S11309C094469A0091468144424649460A60012170
S11309D0624699400A43944680228A466146520000
S11309E081504946803A8F50022D16D000205A1C5F
S11309F002339B0062601E5102B01CBC90469946B3
S1130A00A246F0BD154C1C60154B002BCCD01B68C6
S1130A1001938823019AE250C6E7554684328158EF
S1130A200D438550E2E70F4B002B11D0842040008A
S1130A30FFF7E6FD00280BD08022002352008350EC
S1130A40043283504B460022E05094466368B8E772
S1130A5001204042D0E7C04658000020CCFFFF1FD1
S1130A600000000001060000F0B5DE464E46454693
S1130A7057462B4B88469B46E0B51E6883B00190D1
S1130A80002E45D088237568F7586C1E40D4013574
S1130A90AD00783375199A460AE0002F05D03B0063
S1130AA0A20080339B58434505D0043D013C2FD31D
S1130AB04346002BF1D173682A68013BA34222D03C
S1130AC000232B60002AF0D073689946002F18D0B9
S1130AD001235146A3407958194212D08220400084
S1130AE03858A1007958009018420ED101989047C7
S1130AF05B4672681B684A4501D1B342D5D01E00DB
S1130B00BEE79047F4E77460DCE708009047EFE73E
S1130B1003B03CBC90469946A246AB46F0BDC046E5
S1130B20580000207047C0467047C04602B4714662
S1130B3049084900095C49008E4402BC7047C0461C
S1130B4003B47146490840004900095E49008E44D7
S1130B5003BC7047002243088B4274D303098B42C1
S1130B605FD3030A8B4244D3030B8B4228D3030C79
S1130B708B420DD3FF22090212BA030C8B4202D31B
S1130B801212090265D0030B8B4219D300E0090A43
S1130B90C30B8B4201D3CB03C01A5241830B8B424C
S1130BA001D38B03C01A5241430B8B4201D34B0335
S1130BB0C01A5241030B8B4201D30B03C01A52419A
S1130BC0C30A8B4201D3CB02C01A5241830A8B421F
S1130BD001D38B02C01A5241430A8B4201D34B0208
S1130BE0C01A5241030A8B4201D30B02C01A52416C
S1130BF0CDD2C3098B4201D3CB01C01A5241830920
S1130C008B4201D38B01C01A524143098B4201D359
S1130C104B01C01A524103098B4201D30B01C01A84
S1130C205241C3088B4201D3CB00C01A52418308FE
S1130C308B4201D38B00C01A524143088B4201D32B
S1130C404B00C01A5241411A00D20146524110468B
S1130C507047FFE701B5002000F0F0F802BDC04680
S1130C600029F7D076E7704703460B437FD4002270
S1130C7043088B4274D303098B425FD3030A8B422C
S1130C8044D3030B8B4228D3030C8B420DD3FF2296
S1130C90090212BA030C8B4202D31212090265D064
S1130CA0030B8B4219D300E0090AC30B8B4201D317
S1130CB0CB03C01A5241830B8B4201D38B03C01A5E
S1130CC05241430B8B4201D34B03C01A5241030BD5
S1130CD08B4201D30B03C01A5241C30A8B4201D386
S1130CE0CB02C01A5241830A8B4201D38B02C01A31
S1130CF05241430A8B4201D34B02C01A5241030AA8
S1130D008B4201D30B02C01A5241CDD2C3098B428C
S1130D1001D3CB01C01A524183098B4201D38B0109
S1130D20C01A524143098B4201D34B01C01A5241AC
S1130D3003098B4201D30B01C01A5241C3088B42F1
S1130D4001D3CB00C01A524183088B4201D38B00DC
S1130D50C01A524143088B4201D34B00C01A52417E
S1130D60411A00D201465241104670475DE0CA0F55
S1130D7000D04942031000D34042534000229C4615
S1130D8003098B422DD3030A8B4212D3FC2289011F
S1130D9012BA030A8B420CD3890192118B4208D3F5
S1130DA0890192118B4204D389013AD0921100E057
S1130DB08909C3098B4201D3CB01C01A524183096B
S1130DC08B4201D38B01C01A524143098B4201D398
S1130DD04B01C01A524103098B4201D30B01C01AC3
S1130DE05241C3088B4201D3CB00C01A524183083D
S1130DF08B4201D38B00C01A5241D9D243088B4293
S1130E0001D34B00C01A5241411A00D20146634635
S1130E1052415B10104601D34042002B00D5494299
S1130E20704763465B1000D3404201B5002000F0D8
S1130E3005F802BD0029F8D016E770477047C04690
S1130E40002B11D1002A0FD1002900D1002802D093
S1130E500021C943081C07B4024802A140180290AB
S1130E6003BDC046D9FFFFFF03B4684601B502982D
S1130E7000F02EF8019B9E4602B00CBC7047C046A1
S1130E80F0B515042D0C0F0001002E00C646844653
S1130E900004140C000C090C46434D4360436143A9
S1130EA04019340C241800B5A54203D9802040020F
S1130EB080464144250C6D18614659437A433004F9
S1130EC049192404000C2018891804BC9046F0BD6C
S1130ED0F0B557464E464546DE46E0B504000D00E3
S1130EE09246994683B08B4230D82DD0494650461D
S1130EF000F0AAFB29000600200000F0A5FB331A2D
S1130F009846203B9B4633D45A4653469340424628
S1130F101F00534693401E00AF423AD8AF4200D15F
S1130F2078E05B46A41BBD41002B00DA75E000228B
S1130F3000230092019301235A4693400193012315
S1130F4042469340009328E08242CFD900220023F6
S1130F50009201930C9B002B01D01C605D600098F3
S1130F60019903B03CBC90469946A246AB46F0BDFD
S1130F70424620239B1A5246DA40414613004A4611
S1130F808A40170042461F43534693401E00AF4217
S1130F90C4D900220023009201934346002BD9D0E8
S1130FA0FB0772081A4346467B080EE0AB4201D1A8
S1130FB0A2420CD8A41A9D41012024196D4100219C
S1130FC0013E24184D41002E06D0AB42EED9013E1D
S1130FD024196D41002EF8D1009801995B4600193F
S1130FE06941002B24DB2B005A464446D3402A0097
S1130FF0E2401C005B461500002B2ADB26009E40C5
S1131000330026004746BE403200801A99410090C2
S113101001919FE7A342BCD883E7424620230021E5
S11310209B1A0022009101920122DA40019286E784
S1131030424620239B1A2A0046469A402300F34046
S1131040444613432A00E2401C005B461500002B73
S1131050D4DA42462F002023260097409B1ADE4014
S11310603B003343CDE7C046F0B557464E464546B0
S1131070DE46E0B598460C034B000600924687B066
S1131080240B5B0DCF0F002B6CD0DD4A934200D1B3
S113109086E0420FE4001443802212041443D94A28
S11310A0C500944663440093002399469B464346F7
S11310B042461E03D20F5B0050469046360B5B0D32
S11310C000D178E0CE4A93421DD0CE49420F8C46DF
S11310D000996344F6008C46164380229C44120413
S11310E063461643C2000020009300994346013131
S11310F08C4649467B4001930F2900D97EE0C24BC0
S1131100890059588F465246009B324300D056E11D
S1131110BB4900268C466344494600930223194385
S113112089460220E1E743460193340015008346D3
S11311305B46022B5ED0032B00D1F3E1012B00D0E0
S113114018E1002200240025019B12052243DB073D
S11311501A432800110007B03CBC90469946A246A9
S1131160AB46F0BD2500054300D141E1002C00D180
S1131170ADE1200000F04AFA010002000B391D2302
S113118010005B1A3100350008388440D94085408E
S11311900C439E48831A0093002399469B4686E796
S11311A00500254300D01CE10822009302230024FB
S11311B091469B467BE75246324300D10AE1002E1A
S11311C000D176E1300000F021FA02000B3A1D2331
S11311D001009B1A52460839DA408E4016435246A3
S11311E08A40009B8949181A03008C4663440020F6
S11311F000937AE700240025814AA5E72F0C2D04EB
S11312002D0C2B00110C1204120C5343984613009E
S113121028007B43994648434844834640460B0094
S1131220000C824658467B4350440293814506D9BC
S11312309A4680235B029946CA4453460293030CA0
S11312409B4643461B0400041B0C9846030043447E
S11312500493330C99462B003604360C734398469A
S113126033007B439A464B465D435F4343465544B4
S1131270180C4019824503D980235B029A465744CF
S1131280050CEB19059343461D042D0C000440196D
S1131290250C2404240C270057436A4390462A0053
S11312A03B0C9A464A436143414451448344884534
S11312B003D980235B02984642443F040B0C3F0C45
S11312C00904C919270098464B4677435C436E438B
S11312D05D433B0C9946A4194C4442440395A642F1
S11312E004D980235B02984645440395029B3F043E
S11312F05B441E008342804123049846059B3F0CB7
S11313004744984676188E428941474440423D18E6
S1131310A846934649428A46C3449F42BF418045FA
S11313208041039BDA449846534640427F42074338
S1131330240C934592418A4589413F19DC0D049B55
S113134075021D43681E85415346524249420A4371
S1131350BF184744F60D7F0235435A023C431543F8
S1131360FB0100D4C1E001216A080D401543E207E6
S11313701543640826496144002956DD6B0709D0EA
S11313800F222A40042A05D02A1DAA42AD416D42EB
S113139064191500E30104D580211E4AC9001440D4
S11313A061441D4A914200DD24E76207ED086402AE
S11313B049051543240B4A0DC6E60197B8E6104AC1
S11313C00320944663444A46009303231A439146F8
S11313D052468AE6494601231943894600260120DC
S11313E083E60C2200930323050091469B465EE6A8
S11313F00423994600230093013300249B4656E6B8
S1131400FF07000001FCFFFFCC5C00000DFCFFFFA8
S1131410FF030000FFFFFFFEFE07000000238024FF
S11314200025444A019324038EE60120401A3828FB
S113143000DD86E61F285BDD1F2223005242511A7D
S1131440CB401900202803D03B4A624494402543F2
S11314506A1E95412A000A4307210D000024154005
S113146011425BD00F2100241140042953D0111DD7
S1131470914292415242A4180A0023024BD5012200
S11314800024002560E680231B031C4209D01E4271
S113149007D133431C0343461500240B254A01930B
S11314A052E68022120314432403224A240B019798
S11314B04AE600F0ABF803001A00153220301C2A6B
S11314C000DC84E65646083B00229E4089E600F094
S11314D09DF801000200153120321C2900DC4EE683
S11314E0340008380025844053E6009B9C4641E7BD
S11314F01249220061442E008D408A40C640691E74
S11315008D4132432A43C4405307B6D00F211140C2
S11315100429ACD1B1E765076402240BD208154352
S1131520002211E68022120314432403014A240BEF
S11315300AE6C046FF0700003E0400001E04000047
S11315400A0030B5134C530009030500090B0020B1
S11315505B0DD20FA34204DD0F48834202DD0F4B23
S1131560D01830BD8020400301430D48C01A1F2805
S113157008DD0C48C31AD9400B005842002AF0D1A8
S11315801800EEE7084CC540A446634499400B009C
S11315902B43F2E7FE0300001D040000FFFFFF7F62
S11315A03304000013040000EDFBFFFF70B50028B6
S11315B016D0C317C5185D40C40F280000F026F8E4
S11315C0114A121A0A2816DC03002E0015339E4015
S11315D00B23181AC54053052D032D0B5B0D03E097
S11315E000240023002500261B052B43E407234386
S11315F03000190070BD0B38854053052D030026BB
S11316002D0B5B0DF0E7C0461E0400001C210123D6
S11316101B04984201D3000C10391B0A984201D3D1
S1131620000A08391B09984201D30009043902A2AF
S1131630105C40187047C046040302020101010116
S1131640000000000000000010B5002903D1FFF7DE
S1131650DDFF203002E0081CFFF7D8FF10BDC046B4
S1131660FEE7C0460A4A0300116810B5002901D1FB
S11316700849116010680849C3188B4206D9FEF75F
S11316806DFF0C2303600120404210BD1360FCE792
S11316905C00002010030020100300208378022047
S11316A09842804140427047437A0020013B012B1D
S11316B003D90B78013001330B70704710B500204B
S11316C003F048FF002803D00021080003F036FF90
S11316D010BD0000024A1368013313607047C0460E
S11316E08000002037B5002002F0CAFCC02300248B
S11316F00D4A9B0013600D4A0D4D13600D4A2000E6
S113170013600D4B2C716C71AC711A68FA239B0039
S113171053430A492B6003F06BFF2900200001AA00
S113172003F0CCFF37BDC046189014541C901454D9
S1131730D800002000A0145484FEFF1FA80000203D
S113174010B58024002003F095FF0A4B64001C6050
S1131750094B07201C60094B1C6003F06BF8062042
S113176003F068F8200003F065F8002002F08DFC17
S113177010BDC046189014541C90145400A0145466
S113178010B5002002F086FC8023054A9B001360FC
S1131790044A00200449136003F038F910BDC04620
S11317A00CA0145410A014548400002010B5002080
S11317B003F068F980238220074A5B001360074A1C
S11317C04000136003F036F80420FF3003F032F8D1
S11317D0002002F064FC10BD0CA0145410A014549A
S11317E00023364A70B51360354A01201360354A28
S11317F00133FF331360344A34491360344A1360AD
S1131800344A1360344A1360344A1360344A136010
S1131810344A14782500054004424DD00B60324907
S113182032480B60002101603148016031490B608E
S113183031490B6031490B6031490B6031490B6010
S113184031490B601378DB0703D50220FF3002F027
S1131850E3FF092002F0EEFF0C2002F0EBFF05206D
S113186002F0E8FF082002F0E5FF0620FF3002F056
S1131870E1FF0E20FF3002F0DDFF8320400002F084
S1131880D9FF0820FF3002F0D5FF0C20FF3002F012
S1131890C3FF8220400002F0CDFF0420FF3002F09D
S11318A0C9FF072002F0C6FF062002F0C3FF802014
S11318B0400002F0BFFF70BD0D60B0E70C901454FF
S11318C010901454149014541890145404A01454E4
S11318D01C90145420901454249014543090145494
S11318E000A0145480FEFF1F08A014540CA014542C
S11318F010A0145414A0145418A014541CA014546C
S113190028A014542CA0145434A0145410B5092045
S113191002F090FF10BD10B50C2002F08BFF10BD3B
S1131920384B10B598423DD027D8374B984253D006
S113193015D8C83B984244D009D8C83B984231D006
S1131940324B984206D1052002F066FF2DE0304B61
S113195098423DD02F49002002F067F82CE09623EE
S11319601B01984243D02C4B984247D02B4B9842B2
S1131970F0D1052002F050FF31E0294B98422BD0E2
S113198007D8C83B98421CD0264B984220D0264BFF
S1131990D7E7C8231B01984229D0244B98422DD065
S11319A0234BE4E7052002F045FF082002F042FF44
S11319B00620FF3002F03EFF1E4B186802F04DF97E
S11319C010BD052002F036FF082002F025FFEFE7E6
S11319D0052002F021FFF7E7052002F02BFF082085
S11319E002F028FF0620FF3002F016FFE4E705208E
S11319F002F020FF082002F00FFFF3E7052002F0B9
S1131A000BFFF7E7280A0000980800006C070000A5
S1131A10340800000C5D0000C4090000FC0800004C
S1131A20B80B0000540B00008C0A0000E40C00000A
S1131A301C0C000088FEFF1F10B5FFF771FF092082
S1131A4002F0EAFE0C2002F0F5FE8320400002F0D2
S1131A50F1FE10BD10B5FFF763FF092002F0EAFEA6
S1131A600C2002F0D9FE8320400002F0D5FE10BD08
S1131A70AF220C4B10B5C3189BB29200934202D80C
S1131A80FFF7DAFF10BD084BC3189BB2934202D88C
S1131A90FFF7E0FFF6E702000449002001F0C5FF6C
S1131AA0F0E7C046F8F8FFFFD8F5FFFF395D000006
S1131AB010B5FFF72BFFFFF72EFF8320400002F045
S1131AC0ABFE024B186802F0C8F810BD88FEFF1F79
S1131AD010B50400002901D0FFF782FE0021022086
S1131AE001F05EF82100042001F05AF810BD10B591
S1131AF0012420000021FFF7EBFF21003C20FFF729
S1131B00E7FFF6E7F0B59DB285B0039206002A0020
S1131B100C000020012101F090FB290007001F4860
S1131B2001F0E4F93F18002E18D01D4D286802F08A
S1131B3094F81C49002001F065FD286802F08DF836
S1131B401949002001F05EFD286802F086F80020A3
S1131B50164901F057FD286802F07FF80026144D5D
S1131B6014492B686A6800200092320001F05DFF7E
S1131B70200001F0A9FB200001F0EEF92A68002002
S1131B806B680D49009701F050FF039B002B02DDA9
S1131B90180002F062F80136E1E7C0469F39000000
S1131BA07CFEFF1F715D0000935D0000C36B0000AD
S1131BB000D00340B85D0000C45D0000F0B591B0F2
S1131BC0059218AA12780D910A921CAA12780EA9ED
S1131BD00E921DAA12881E00089221225218D27F4A
S1131BE016AB09921FAA12881F780F9217AB20AA6E
S1131BF012781B7804000B92BB4203D30A9A9742D3
S1131C0000D91F00059B002E06D1002B06D159498F
S1131C10002001F00AFF01E0002BF8D1002508980C
S1131C20FFF726FF2100002001F0ECFC089C04953E
S1131C300695039500230793079B199A934200DCAA
S1131C4095E00E9B002B04D001370A9BFFB2BB42E8
S1131C50F0D2039A069B944647496344002001F05E
S1131C60E4FE322001F0F9FF099B049A43490093F2
S1131C700020039B01F0D9FE322001F0EEFF2A0080
S1131C803F49002001F0D1FE322001F0E6FF11B0FF
S1131C90F0BD029B3022FB180C936B469B181878FE
S1131CA001210D9B9847002849D1039B01330393DD
S1131CB0089B9C4204D9643CA4B22000FFF7D8FEE0
S1131CC0002E26D0099AB37B9B1A5A425341049A98
S1131CD0D31804930B9B002B0BD0337B029A717B9C
S1131CE0B07B0091019027490020DBB2BA1801F0C3
S1131CF09CFE1B9B002B02DD180001F0AEFF029B33
S1131D0001330293029B1A9A9342C2DB079B01336D
S1131D1091E7059B099A1B7A9B1A5A425341049AEC
S1131D20D31804930B9B002BE3D0059B029A1B7AD8
S1131D3030001549DBB2BA1801F077FED9E7022862
S1131D4010D100200C9A114901F06FFE069B01335B
S1131D5006930F9B9C42CCD26434A4B22000FFF7BC
S1131D6087FEC6E70338434258412D18C1E70023D4
S1131D70C7E7C0460C5D00001E5E0000365E000032
S1131D80675E0000D15D0000F65D00000B5E0000A0
S1131D90F0B591B00D9316AB0400100004CB0C9178
S1131DA01F781AAB1B880E920F931BAB1E881CABBB
S1131DB01D78002C64D0FFF7E3FC601E132859D86B
S1131DC0FEF7B4FE0A3D58585858424446484A4C17
S1131DD04E525058545658260F9B0C9A07930D9BFD
S1131DE000920693189B294A05930E9B2849049355
S1131DF0199B284803933123029300230A970996D9
S1131E0008950193FFF7DAFEFFF7D0FC11B0F0BD9F
S1131E100F9B0C9A07930D9B00920693189B1E4AE6
S1131E2005930E9B1D490493199B1D480393052399
S1131E30029300230A97099608950193E2E719494A
S1131E40002001F0DFFBDFE71749F9E71749F7E75F
S1131E501749F5E71749F3E71749F1E71749EFE79A
S1131E601749EDE71749EBE71749E9E71749E7E7AA
S1131E701749E5E722001749002001F0D6FDC3E722
S1131E802000154901F0BEFBC0E7C04670000020E9
S1131E90593200007C5E000060000020FD2E00002E
S1131EA08A5E0000965E0000C15E0000EE5E0000E7
S1131EB01B5F0000475F0000755F0000A15F00002A
S1131EC0CE5F0000FA5F000026600000536000004F
S1131ED07F600000AB600000FD600000030030384C
S1131EE0092805D91A00613A052A02D8573B180077
S1131EF070471A00413A0020052AF9D8373BF6E723
S1131F0070B501F09AFB040001F097FBFF26050071
S1131F1020003040FFF7E2FF040028003040FFF7C4
S1131F20DDFF24012018C0B270BD70B501F085FB3F
S1131F30060001F082FB050001F07FFB040001F0C4
S1131F407CFBFF22FA23642116401540303E1440E6
S1131F509B00303D4D4373435A39303C4C435B192D
S1131F6010401B193038181870BD000070B50C00F3
S1131F70160088B00CAA157806A908800A4A05A894
S1131F8005700A4D12682D684A6004AA1670019300
S1131F90009023000020029502F09CFE002800D04F
S1131FA0022008B070BDC04674FEFF1F78FEFF1FFC
S1131FB0F7B56A46CB1DDB08DB00D31A02AF9D469A
S1131FC00C000500FFF78EFBFA2300219B0002AEF4
S1131FD00193009433002A00080003F0CBFB0400B3
S1131FE0FFF7AEFB002C00D00424BD462000F2BD58
S1131FF010B50449002001F005FB0020024901F05E
S113200001FB10BD296100005A610000F0B50027F2
S1132010B9B025AC072239002000FEF759FBFA4A73
S113202001252C92032215AB2F9317AB309319ABD8
S113203032931DAB34931FAB359321AB369323AB53
S11320401BAE11A9380037932CAB1A712E9114933F
S113205033962570319402F00BF8280002F008F84A
S11320608021EA4B0902196001F01CFE3B003A0092
S113207039003800009501F0E7FAE549380001F02D
S1132080C1FAC82001F0E9FDE249380001F0BAFACA
S1132090C82001F0E2FDE049380001F0B3FAC8209D
S11320A001F0DBFDDD4A2B000221DD4801F01EFEBC
S11320B02900280001F026FE380003F089F98C215C
S11320C0D84B3800299308AB5B181F80023108AB4A
S11320D05B1829A91F702A9503F0A6F92A00390074
S11320E011A8FEF7F5FA4820259B08A91993A288A0
S11320F009180A80A279023008A909180A70032273
S1132100063808A909180A701B93A28808A9B28086
S1132110A2790A38B271052232701593A288022678
S11321200A87A27909180A70342108AA521816706D
S11321301793A288063008A909180A80A279801981
S113214008A909180A700422063808A909180A708F
S11321501D93A2881C3008A909180A80A279801945
S113216008A909180A700822063808A909180A706B
S11321701F93A2880C3008A909180A80A279801933
S113218008A909180A700921063808AA121811703A
S11321902193A3880C3008AA12181380A3798019FC
S11321A008AA121813700A23063808AA1218137002
S11321B06C2208AB9B181F7014AA2B002FA802F0E6
S11321C0E7F83900300000F0EBFC9749974802F03B
S11321D0F9FAFFF705FB0820FF3002F01DFBC820C9
S11321E001F03BFD0820FF3002F024FBC82001F081
S11321F034FD0820FF3002F00FFBC82001F02DFD54
S11322000820FF3002F016FBC82001F026FD08204C
S1132210FF3002F001FBC82001F01FFD0820FF3051
S113222002F008FB1D20824901F002F84020814998
S113223000F05AFEFFF73CFC00F052FD80231B0225
S11322400A97099708930B977B49002001F0DAF964
S11322507A4C206801F001FD7949002001F0D2F99F
S1132260206801F0FAFC099B0A9A7649002001F0E3
S1132270DCFB206801F0F1FC734D744E74492A684C
S1132280089833680968019000910020714901F0B1
S1132290CCFB206801F0E1FC6F4B7049704A0020D0
S11322A0D2584B69096800916E4901F0BEFB206861
S11322B001F0D3FC6C4900200A784B788979D2B2BA
S11322C0DBB20091694901F0B0FB206801F0C5FC64
S11322D0654B67491A7A1B7E0978D2B2DBB200914A
S11322E00020644901F0A1FB206801F0B6FC624BB8
S11322F062491A785B780969D2B2DBB20091002096
S11323005F4901F092FB206801F0A7FC5D4B544843
S11323109A7852495C4BD2B2C35849680020009164
S11323205A4901F082FB206801F097FC584B594947
S11323301A6811AB1B78002001F077FB206801F0CC
S11323408CFC5549002001F05DF9206801F085FC02
S11323505249002001F056F9206801F07EFC5049F2
S1132360002001F04FF9206801F077FC4D4900206E
S113237001F048F9206801F070FC4B49002001F09D
S113238041F9206801F069FC4849002001F03AF95C
S1132390206801F062FC4649002001F033F920680E
S11323A001F05BFC4349002001F02CF9206801F0A6
S11323B054FC4149002001F025F9206801F04DFC4E
S11323C03E49002001F01EF9206801F046FC3B0064
S11323D0099A3B49002001F028FB206801F03DFCEC
S11323E03849002001F00EF9206801F036FC364926
S11323F0002001F007F9206801F02FFC3349002088
S113240001F000F9206863E0A9160000FC02002036
S11324108C610000A7610000AD61000064FEFF1F35
S113242090FFFF1FE0070100A0FEFF1F90FEFF1FAB
S11324307000002060000020B46100007CFEFF1FDB
S1132440D86100000A62000074FEFF1F84FEFF1FB3
S11324508CFEFF1F3E6200003C10000000D00340D1
S1132460007004407662000000400640AC62000048
S113247000500640DB62000000E0074000ED00E091
S11324800B63000000D007403410000045630000D7
S1132490800000207D630000AB630000B563000092
S11324A0D2630000EE6300000A64000027640000A9
S11324B04E6400006D6400008C640000B76400008A
S11324C0DA64000009650000256500004965000024
S11324D001F0C3FBD149002001F094F8206801F019
S11324E0BCFBCF49002001F08DF8206801F0B5FB5A
S11324F0CC49002001F086F8206801F0AEFBCA49FF
S1132500002001F07FF8206801F0A7FBC7490020F4
S113251001F078F8206801F0A0FBC549002001F023
S113252071F8206801F099FBC249002001F06AF8B3
S1132530206801F092FBC049002001F063F8206894
S113254001F08BFBBD49002001F05CF8206801F02C
S113255084FBBB49002001F055F8206801F07DFBA5
S1132560B849002001F04EF8206801F076FB01F034
S113257064F8FF2302000C901A407A2A07DC602AD0
S11325800BDC0A2A00D1B5E22F2A00D1AEE2AE4913
S1132590BBE0AE4B01270B9356E6100061381928B7
S11325A0F5D8FEF7CDFA1A00A300B600C600D10094
S11325B0DB001D0128013001A901030209020902FF
S11325C04A024F025302F4FF59025C0251FE6202B6
S11325D0F4FFF4FF7002F4FF79029D49002001F03A
S11325E011F89C49002001F00DF8206801F035FB3A
S11325F09949002001F006F8206801F02EFB974964
S1132600002000F0FFFF206801F027FB9449002020
S113261000F0F8FF206801F020FB9249002000F050
S1132620F1FF206801F019FB8F49002000F0EAFF58
S1132630206801F012FB8D49002000F0E3FF2068C0
S113264001F00BFB8A49002000F0DCFF206801F058
S113265004FB8849002000F0D5FF206801F0FDFA52
S11326608549002000F0CEFF206801F0F6FA834986
S1132670002000F0C7FF206801F0EFFA8049002035
S113268000F0C0FF206801F0E8FA7E49002000F065
S1132690B9FF206801F0E1FA7B49002000F0B2FFA5
S11326A0206801F0DAFA7949002000F0ABFF2068D5
S11326B001F0D3FA7649002000F0A4FF206801F06D
S11326C0CCFA7449002000F09DFF206801F0C5FA9F
S11326D000F0B3FFFF220240352A00D159E76C2AEB
S11326E000D054E76C4B14270B93ADE56B490020E5
S11326F000F088FFFFF719FC28602A68684B9A42AB
S113270001D1684B2B602A686749002001F08DF9DC
S11327109AE56649002000F075FFFFF706FC30607B
S113272032685F4B9A4201D15E4B33603268604934
S1132730EBE76049002000F065FFFFF7F6FB5E4B16
S11327405E4918601A68E0E75D49002000F05AFF0E
S1132750FFF7D6FB5B4902000990D6E75A490020EF
S113276000F050FFFFF7CCFB584D02002900040095
S1132770002001F05AF95649002000F043FFFFF70A
S1132780BFFB12AE020029003070002001F04DF9A9
S11327905049992C00D163E14F4B0A981B6827AD2F
S11327A028932C80FFF764F920226B469B18187835
S11327B0FEF7E6FF099B13AA1370484B29001B6818
S11327C00020029301230096019302F083FA021E73
S11327D003D00020424901F028F9FEF7E7FF33E572
S11327E04049002000F00EFFFFF79FFB83B21A0060
S11327F03D490A9389E73D49002000F003FF012089
S1132800FFF7F6FB20E53A49002000F0FBFEFFF756
S11328108CFB83B21A003749089376E76D65000094
S113282087650000A2650000C0650000DD6500004A
S1132830FC6500001B660000356600006066000051
S113284080660000AD6600007D6A00007000002014
S1132850C0660000CB66000009670000396700000D
S113286076670000B5670000F36700003068000079
S11328706E680000AB680000EA6800002769000089
S1132880506900008D690000C4690000016A0000FD
S11328903E6A0000696A000060000020996A000036
S11328A00F27000010270000C76A0000E76A000035
S11328B0156B00002F6B00008CFEFF1F5E6B000089
S11328C0796B0000AF6B0000C66B0000F96B000071
S11328D00F6C0000386C000074FEFF1F78FEFF1FB1
S11328E05E6C00007F6C0000AB6C0000CD6C0000DF
S11328F0FB6C0000376D0000099A7F49002001F04D
S113290094F800F09AFE7D490C90002000F07AFEC5
S113291000F093FE7A490D90002000F073FE00F061
S11329208CFE78490E90002000F06CFEFFF7FDFA53
S113293075490500002000F065FEFFF7F6FA7349BB
S11329400600002000F05EFEFFF7EFFA7049040075
S1132950002000F057FEFFF7D3FA089B3A000F90CF
S113296001936C49099B02950096002001F05DF8E3
S11329706A4620210C9B5218303B0F99581E834104
S11329800E98127806910A9930380491411E8841B4
S113299001900D98A4B23038009009993800DBB248
S11329A0059403960295FFF7F3F94DE45A49002084
S11329B000F028FEFFF79BF85849002000F022FEA3
S11329C05749002000F01EFEFFF79AFA27AE55493A
S11329D03070002000F016FEFFF7A7FA30226B4695
S11329E09B181D78040033780A9A6C2D15D1019236
S11329F0089A4D4900920200002001F016F80025C3
S1132A00A54200DB20E427AB1A7800230121FF2034
S1132A100093FFF7ABFA0135F2E700924349020055
S1132A20002001F002F80025A54200DB0CE401219E
S1132A3027A8FFF7BDFA0135F6E70A98FFF718F85B
S1132A40FFF702FCFFF734F8FFF7FEFB002102203A
S1132A5000F0A6F8FFF7F8FB00210820F8E72F495B
S1132A60002000F0CFFDFFF7EFFB0B9B3049002B5C
S1132A70F6D03049002000F0C5FDFFF741FA0B9B6A
S1132A801870FFF7E1FB2C49002000F0BBFD2B4838
S1132A9001F0E3F82A49E3E72A49002000F0B2FDF7
S1132AA020226B469B181878FEF76AFE2649002000
S1132AB000F0A8FD00F0C1FD24490500002000F04D
S1132AC0A1FDFFF732FA86B232002149002000F05E
S1132AD0ACFF206801F0C1F8E9B268394D426941A0
S1132AE032000120089BC9B2FFF70CF800F0B4FAD9
S1132AF0FFF7AAFB1749B3E7546D00008E6D000081
S1132B00B76D0000D06D00000F6E00003B6E00003A
S1132B10736E0000A46E0000E16E0000CD6C000036
S1132B20046F0000236F0000436F0000956F0000E6
S1132B30D36F0000117000004970000010270000DE
S1132B4068700000727000008B700000B4700000A8
S1132B50FC700000347100001FB5040001A90020BE
S1132B6002F08AFC694601A802F0C4FB009B684697
S1132B701C1901A9009402F045FB012201A90020BF
S1132B8002F0A6FC1FBD00000022034B1A60802245
S1132B90024B1206DA67704700A01C5804E100E0FB
S1132BA070B50D000A2408281CD8FDF7BFFF051DC9
S1132BB02A3F54676C6F5C0001F080FD05240128F6
S1132BC010D0FFF7E1FF2800FFF7C6FF002108003F
S1132BD001F000FC01210400002001F093F8002C16
S1132BE022D10024200070BD01F068FD06240128D4
S1132BF0F8D0FFF7C9FF2800FFF7AEFF002101203E
S1132C00E6E701F05BFD08240128EBD001F0F8F8B9
S1132C10002803D00121002001F074F800210220D3
S1132C2001F0D8FB0028DCD00924DBE701F046FDE5
S1132C3007240028D6D0FFF7A7FF2800FFF78CFF52
S1132C400021032001F0C6FB040001F037FD01213F
S1132C500028C4D1C1E7FFF797FF2800FFF77CFFE6
S1132C6000210420EEE70021082001F0B3FB041E3C
S1132C70DAD10121080001F045F8B3E7002105206D
S1132C8001F0A8FBD0E700210620F9E70021072086
S1132C90F6E7000037B50E25FF350400280001F0E3
S1132CA0BBFD0A2000F0D9FF280001F0C3FD0C2071
S1132CB001F0C0FDFA23084A9B001470002101931F
S1132CC0012308000093054B02F054FD0400280082
S1132CD001F0A2FD20003EBDE1000020E000002044
S1132CE0C02310B58024694A9B001360684A6400BD
S1132CF01360FEF7F7FC674B20001C60664B1C60FA
S1132D00664B1C6001F088FD642000F0A6FF2000E3
S1132D1001F090FD642000F0A0FF200001F07CFD94
S1132D20642000F09AFFAE20FFF7B4FFA020FFF765
S1132D30B1FF7220FFF7AEFFA120FFF7ABFF002029
S1132D40FFF7A8FFA220FFF7A5FF0020FFF7A2FFCF
S1132D50A420FFF79FFFA820FFF79CFF3F20FFF769
S1132D6099FFAD20FFF796FF8E20FFF793FFB02069
S1132D70FFF790FF0B20FFF78DFFB120FFF78AFFCD
S1132D803120FFF787FFB320FFF784FFF020FFF720
S1132D9081FF8A20FFF77EFF6420FFF77BFF8B20F3
S1132DA0FFF778FF7820FFF775FF8A20FFF772FF9F
S1132DB06420FFF76FFFBB20FFF76CFF3A20FFF79B
S1132DC069FFBE20FFF766FF3E20FFF763FF872001
S1132DD0FFF760FF0620FFF75DFF8120FFF75AFF32
S1132DE09120FFF757FF8220FFF754FF5020FFF791
S1132DF051FF8320FFF74EFF7D20FFF74BFFAF20ED
S1132E00FFF748FF2620FFF745FF0120FFF742FFA9
S1132E102520FFF73FFF0020FFF73CFF0020FFF7CE
S1132E2039FF5F20FFF736FF3F20FFF733FF87208E
S1132E30FFF730FF0F20FFF72DFF8220FFF72AFF57
S1132E40FF20FFF727FF2220FFF724FF0020FFF7D2
S1132E5021FF0020FFF71EFF5F20FFF71BFF3F202D
S1132E60FFF718FFFF20FFF715FFFF20FFF712FF02
S1132E70FF20FFF70FFF0020FFF70CFF0020FFF7F4
S1132E8009FF0020FFF706FF002010BD2090145416
S1132E902490145434A014543090145400A01454A6
S1132EA030B502250D4B89B01B7806AC23800C4B42
S1132EB049BA1B6804AA079305AB19800949107025
S1132EC0096800200291009321000123019501F07B
S1132ED001FF002800D0280009B030BD60000020A8
S1132EE074FEFF1F78FEFF1F08707047A02110B505
S1132EF00020FF31FFF7D4FF10BD000000B589B0FA
S1132F00030068460A000F49097801750320052B60
S1132F1016D80D49087806A908800C48006848604E
S1132F20684603750A4B00201B6801920293094B03
S1132F3005AA0093012301F0DAFE002800D0022044
S1132F4009B000BD667100006000002074FEFF1F20
S1132F5078FEFF1F68000020A02170B5FF3100201B
S1132F60FFF79EFF9A210520FF31FFF799FF002804
S1132F7003D00020154900F058FD02210800FFF796
S1132F80BDFF134D022101202B7A6B7AFFF7B6FFA8
S1132F90022104202B7A6B7AFFF7B0FF0221032071
S1132FA02C7A6E7AFFF7AAFFE4B22B7AF6B26B7A28
S1132FB0002804D00020074900F024FB70BD24023F
S1132FC03443054922B200F030FDF7E76871000090
S1132FD06000002075710000CD5D000010B515493A
S1132FE0002000F022FD144C200001F0E7F8032239
S1132FF0124B4343D341124A934203D80020114950
S113300000F013FD200001F0D9F806220E4B4343D3
S1133010D3410E4A93420CD8200001F0C0F8002896
S113302003D000200A4900F000FD0020094900F007
S1133030FCFC10BD64710000E8000020CDCCCCCCB9
S1133040666666067C710000D578E926263108009C
S11330508F710000A8710000F0B5544985B00020BC
S113306000F0E3FC85200021400001F0C5FB0C20AA
S113307000240121FF3001F0BFFB4D4D0523012247
S113308028004C49009401F02DF801280CD94A4934
S1133090022806D04949032803D04949042800D00E
S11330A04849200000F0C1FC4749002000F0BDFC65
S11330B064220D21280001F031F800280ED0434984
S11330C0012808D03C49022805D0032806D03C49F1
S11330D0042800D03B49002000F0A7FC002228006F
S11330E03B4901F070F8002803D00020394900F072
S11330F09CFC002385270A2603937F000C20FF30C5
S113310001F098FB052000F0A8FD0C20FF3001F031
S113311083FB0A2000F0A1FD0C20FF3001F08AFBA4
S1133120380001F095FB041EFAD0280001F02AF8BB
S113313000230293012C2DD0274C029A2100002059
S113314000F073FC029A039B9446280063440393A3
S113315001F025F8002803D00020204900F065FC88
S1133160013E002ECAD103980A21FDF77DFD1C4BB8
S1133170C018FEF71BFA1B4B1B4AFDF775FFFEF741
S1133180DFF9050002002100300000F04EFC2800A9
S113319005B0F0BD380001F05BFB029B0400013375
S11331A02800029301F00AF8C4E7C046AE7100009B
S11331B0E800002024730000BC710000EF710000DF
S11331C020720000547200008572000092720000A8
S11331D0DD2F0000C3720000CD5D00008F71000080
S11331E060FDFFFF0AD7F3BFD7A3703D0B0000B506
S11331F00C4A89B0127806A90A800B4A12684A6000
S113320005AA107004A80370084B1B680090029371
S113321001230020019301F05DFD002800D002206D
S113322009B000BD7000002074FEFF1F78FEFF1F70
S1133230C223FF3308704B60704770B50D00010066
S11332400920FFF7D3FF290004002A20FFF7CEFF4F
S11332502043C0B270BD000000B589B003006846C9
S11332600A00144909780175182B1BD8D91F0320AB
S113327001291CD91049087806A908800F4800685C
S11332804860684603750E4B00201B680192029348
S11332900C4B05AA0093012301F029FD002806D058
S11332A0022004E019001D3903201429E2D909B0D1
S11332B000BDC046667100007000002074FEFF1F50
S11332C078FEFF1F7800002070B502210400012061
S11332D0FFF7C2FF304D2A7A6B7AD2B2DBB20028F4
S11332E020D000202D4900F08DF902210320FFF7A2
S11332F0B3FF2A7A6B7AD2B2DBB2002825D0002041
S1133300264900F07FF902210520FFF7A5FF2A7A5C
S11333106B7AD2B2DBB200282AD000201F4900F019
S113332071F970BD002C03D01D4900F07EFBDCE771
S11333309B0892011A4380239B015A40194B200099
S11333401949D21800F071FBCFE7002C03D01449BF
S113335000F06BFBD7E79B0892011A4380239B0183
S11333605A40104B20001049D21800F05EFBCAE707
S1133370002C03D00A4900F058FBD2E79B089201C5
S11333801A4380239B015A40064B20000649D21859
S113339000F04BFBC5E7C0467000002075710000CB
S11333A0ED72000000E0FFFFBF5D00000369C2682A
S11333B0934201D880681B18013B981A7047F7B5EF
S11333C08368C46801931F1B436805000E00181925
S11333D0A418974207D83A00FDF726F9019B6868BC
S11333E0E41A2200F119FDF71FF9EC60F7BD002380
S11333F0F7B506001700C568019100933369B468F6
S11334009D421FD2013B5B1B641BBC4200D93C00A4
S11334109C4200D91C007368220058190199FDF7D9
S113342003F9009B2D191B190093019B3F1B1B19CA
S11334300193B368AB4200D10025F560002FDDD1C4
S11334400098FEBD1B19DDE7022310B50F4C104A8E
S1133450236163610F4BA261E361C823A2640E4A36
S11334602362E26400230422A3626362E362A3652D
S11334706365E36522650949E01DFDF74BFA200009
S11334800749FDF747FA2023A37110BD2801002046
S1133490FD720000A4010020A001002006730000BA
S11334A00A730000F0B5274B85B01B780E0002901C
S11334B00192002B01D1FFF7C7FF1823029A0025C0
S11334C05343204AD3185A6D9C6D0392944219D9E0
S11334D01B6D019D1B1B9D4200D91D001827029BDB
S11334E030005F43174B2A00DF19FB6C761919195A
S11334F0FDF79AF8019B64195B1B01933B6DA34292
S113350000D10024039B019F1B1B9F4200D91F0075
S1133510002F0CD01823029A30005343094AED19A6
S1133520D318D96C3A000919FDF77EF8E419002D77
S113353005D01823029A03485343C0188465280011
S113354005B0F0BD2801002010B50B00EFF3108486
S1133550012181F310881900FFF7A4FF84F3108878
S113356010BD0000F8B516001822451C554342430F
S1133570164B0F005D199B18DC6A012C10D0022C2D
S11335801BD0002C1FD12800FFF710FF864205D85E
S1133590320039002800FFF712FF34002000F8BD84
S11335A02800FFF703FF3400864200D904002200FC
S11335B039002800FFF703FFF0E732002800FFF787
S11335C016FF0400EAE70024E8E7C04628010020CB
S11335D0F8B50B4B04001B780E001700002B01D12B
S11335E0FFF732FFEFF31085012181F310883A00D1
S11335F031002000FFF7B6FF85F31088F8BDC04600
S11336002801002070B5050008000C00FDF78AF9B8
S1133610210002002800FFF7DBFF70BD13B56B46E5
S1133620DC1D012221000020FFF78EFF012801D1BB
S1133630207816BD01204042FBE710B5FFF7EEFFEE
S11336400028FBDB10BD0000F7B5164C019323786E
S113365005000F001600002B01D1FFF7F5FE2369CA
S1133660AB421CD9EFF31082012181F31088002DA5
S11336700CD01823691C59436B43675061184E6082
S11336800199E3181962002199625962182045438F
S1133690089B6419E36282F310880020FEBD0120B8
S11336A04042FBE728010020826810B5040040680E
S11336B0531C834205D820688154A360E368013316
S11336C0E360A26863689A4209D121682069FFF720
S11336D07FFFA368984203D001235B42E36010BDDF
S11336E00023A360FBE70000F0B505001700080005
S11336F0012685B00A9C02910093B84219D2009A1F
S11337000196964200D2019201230B9A1A40039229
S11337100B9A1A4202D1002C10D10024EB68012626
S1133720002B4BDB009B012B1FD9013B00937E43F5
S1133730F8E73900FDF70EFA0136DEE70B9B202689
S11337409B0704D5009B1036002B00D0103E019B34
S1133750A342E3D231002800FFF7A6FFEB68013C47
S1133760002BDBDB002CF2D1D7E731000298FDF708
S1133770F1F98742DBD902983100FDF771FA114B58
S11337800291195C2800FFF78FFFEB68002B05DB23
S113379039003000FDF7DEF9BE4211D2039B002B45
S11337A00CD0002C0AD0019BA34207D22021280070
S11337B0FFF77AFFEB68013C002BF2DA05B0F0BDAD
S11337C00600D8E711730000F0B59FB00EAB099363
S11337D040230A9300230E00150007900B930D90CD
S11337E00C9331780136002907D10C9B0393002BED
S11337F000DD09E10C981FB0F0BD252900D0B3E02D
S113380000270822042006E0302B0DD1022300E01B
S113381001231F430E003378711C2D2BF8D0F3D8ED
S1133820232B10D02B2B0CD000240A213378721CAC
S113383018003038092808D84C43303C16001C19AD
S1133840F4E70743E6E71743E4E7002103912E2B4F
S11338500ED116000A203278711C1300303B092B5C
S113386006D8039B0E004343303BD3180393F2E77F
S1133870042331780A0001369A43682A01D1317849
S1133880F8E7782909D86F290BD8632967D017D8A6
S1133890252969D0582900D195E00C9B002BA0DA8A
S11338A0A3E7703908000829F7D8FDF749F9A500FE
S11338B0F6FFF6FF9400F6FF8300F6FFF6FF8C0098
S11338C06429EAD12B681A1D1B682A60DA17981834
S11338D00493012350400593092849DC039B059A6E
S11338E00693934200D20692002C05D0049B002B31
S11338F001DB7B0700D5013C02231F4202D0039B5E
S1133900002B05D001231F4202D1002C36D1002404
S11339100C9B0593002BC0DB049B002B3ADA2D2172
S11339205B42049309A8FFF7BFFE0C9B002BB4DB9A
S113393003233B40022B05D1039B002B02D1002C17
S11339402CD100240C9B0593002BA6DB0A22039B9D
S113395004990197009409A8FFF7C6FE9DE72B6818
S113396019681A1D2A60C9B209A8FFF79DFE94E7D9
S11339700A21FDF779F9059B0133ACE7069BA342C5
S1133980C6D2202109A8FFF78FFE0C9B013C002B17
S1133990BBDABDE77B07C8D52B21C3E7069BA3424F
S11339A0D0D2302109A8FFF77FFE0C9B013C002BED
S11339B0C5DAC7E70A22296801970B1D2B60039B10
S11339C000940968C7E7296801970B1D2B60039BC6
S11339D000941022F5E72B681A1D2A601C682178D0
S11339E00134002900D158E709A8FFF75DFE0C9BBC
S11339F00393002BF3DA50E729680B1D2B60002397
S1133A00019308330093E4E70B9A002A03D0079844
S1133A100EA9FFF7DDFD0C9B03930B9B0493049A03
S1133A20039B944663440C93E4E60EB403B503ABE2
S1133A3002CB01AA0193FFF7C7FE02B008BC03B092
S1133A40184710B5002000F013FF10BD10B500207A
S1133A5001F09CFD10BD0000082310B5164A9178B2
S1133A60194202D091780B439370882100222220BE
S1133A70124B49015A501249124C087080201249C5
S1133A8040025850196811480140196019591048EA
S1133A900840C02189040143195180210D4B1A7239
S1133AA019767F391A7059700B490A700C3299795A
S1133AB01142FCD110BDC04600D007400070044044
S1133AC000E007400410000044100000FFFFF3FF73
S1133AD0FFFFFFF000400640005006401249134823
S1133AE010B5814205D00022114B9B089B009A42DD
S1133AF00FD1104B104A9960002310491048521AF4
S1133B009A420AD100210F4B0F4AD21A013A08D225
S1133B1010BD84588C500432E9E7CC5CC4540133A2
S1133B20EEE719700133F1E7000000000000000027
S1133B300000000000ED00E0387600009074000002
S1133B4000FEFF1FA8FFFF1F0C03002003004170AD
S1133B500020187058609860704710B543780400CE
S1133B600120FF2B08D000F0B5FA63780133DBB2F3
S1133B70637000F0A3FA002010BD0020704770B5F8
S1133B8004000D0000F0A6FAE1682943E16000F0AA
S1133B9095FA002070BD000000220A4B9A641A00B6
S1133BA040329A631A0030329A621A0020329A61C3
S1133BB01A0010329A60044A1360044B9B60DB6065
S1133BC07047C046700200206C020020C002002032
S1133BD00022024B1A60186880B270470C007C50B7
S1133BE070B5437804000D00002B0BD0002500F0C5
S1133BF071FA6378013BDBB26370257000F05EFA02
S1133C00280070BD02200029FBD02378002B17D098
S1133C10FFF7DEFF6368A268834204D8C01A8242B9
S1133C2006D30320EDE7C01A80235B02C018F6E731
S1133C3000F050FA0023237000F040FA0220E0E77D
S1133C404B1CEED000F046FA0123237000F036FA44
S1133C50FFF7BEFFA5606060E3E770B50500FFF7FE
S1133C60B7FF802604007602FFF7B2FF0300844208
S1133C7003D8031B9D42F7D270BD301BC318F9E76C
S1133C8010B540B200F010FA002010BD10B50128A4
S1133C9001D100F01FFA10BD10B5012801D100F0C8
S1133CA00DFA10BD10B5FFF777FF01230020084A75
S1133CB008491360084A094C106008600421216017
S1133CC0074C216007490B6007490860136010BD69
S1133CD03880045000008450000004500000045157
S1133CE00400045104000C500000045310B5044CAB
S1133CF0206021710020A2602373637310BDC0464D
S1133D00D00200200422F0B587B005AC3B4E0190F0
S1133D1002912070617033790092834226D9002287
S1133D20337B1500737301230092A3700393334F05
S1133D303B7BAB421DD8009B002B02D0029B012B86
S1133D4048D10120FFF7A2FF0C20019B0025584316
S1133D503368181800F0C2F8019B01207371022621
S1133D60FFF79AFFA6703B7BAB421AD8009807B0C6
S1133D70F0BDBA68AB009B58002B0FD01A79039999
S1133D800A420BD020001A6899689047002805D091
S1133D90029B7D73002B1BD0052300930135EDB2EC
S1133DA0C5E7BA68AB009B58002B0ED01A79324293
S1133DB00BD020001A6899689047002805D0029B10
S1133DC07D73002B17D0062300930135EDB2CAE7AB
S1133DD0052300930023A370013DEDB2FF2DC5D050
S1133DE0064BAA009B68D358002BF5D020001A6814
S1133DF099689047F0E706230093B7E7D0020020C4
S1133E00014B58797047C046D002002013B5040016
S1133E10002021780190022920D0032922D00129F1
S1133E2025D1227901AB144801F078F9002814D186
S1133E30A3795A1E9341114ADB01137063785A1E09
S1133E4093410F4A5B001370A2780E4B1A70E2780C
S1133E500D4B1A7062790D4B1A7016BD0100227950
S1133E6001ABE0E701A9044801F09AF9DEE701A9F2
S1133E70014801F037F9D9E700400640184086535D
S1133E80004086500040065001400650184016502D
S1133E90074A43099B009B18F822C00512051040ED
S1133EA0184380235B051843002303607047C04612
S1133EB028800440F821084A43099B009B180905FF
S1133EC0C2050A4013438022520513431F221040A7
S1133ED01E3A82401A60704728800440072373B555
S1133EE0009300230400104D1A000121280001F062
S1133EF03FFB2000FFF78AFF637A2800009300232A
S1133F00217A1A0001F034FBE379084A9B04136018
S1133F10074BA17A1D68280001F05EF92800E17AB8
S1133F2001F069F9002076BD0070044000700C595E
S1133F308873000010B5054801F094F8044B196823
S1133F40C9B20131FCF706FE10BDC0460040064070
S1133F5044801C5E10B5FFF7EDFF10BD10B5054899
S1133F6001F080F8044B1968C9B20131FCF7F2FD85
S1133F7010BDC046004006404480145810B5FFF7F9
S1133F80EDFF10BD0B4B1B68DBB2022B0CD0032BD7
S1133F900DD00020834206D1074A10688022120205
S1133FA0904200D018007047044B1868FBE7FA20D1
S1133FB08000F8E700700C59FC0200200003002088
S1133FC010B5FFF7DFFF10BD054B10B5186801F001
S1133FD00AF90023984201D0024B1B68180010BD57
S1133FE088730000FC020020044B01201B6810B5FC
S1133FF0DBB2002B01D0FFF7E7FF10BD04800452B1
S113400010B50C0012282AD8FCF790FD0A0A0A0FF2
S1134010290F12152929181B292929291E222600AE
S1134020FFF788FF2060002010BDFFF797FFF9E736
S1134030FFF7A8FFF6E7FFF7C7FFF3E70A4B236094
S1134040F1E7FFF7D1FFEDE7084801F00BF8E9E7E6
S1134050064800F0F1FFE5E7FA239B00EFE70023B1
S113406002202360E0E7C046006CDC02004006400A
S113407010B5024B185CFFF71DFF10BD2173000043
S113408010B57620FFF716FF10BD10B57620FFF7A8
S1134090FFFE10BD10B56620FFF70CFF10BD10B574
S11340A06620FFF7F5FE10BD0300034A10339B00A2
S11340B09858D1507047C04600000000044A136865
S11340C0002B04D0013B1360002B00D162B6704773
S11340D0E002002072B6024A13680133136070478D
S11340E0E0020020F8B50D00012411001A00002898
S11340F011D0002D0FD00024002600278460066113
S11341004761C4608461C46104624462069B2C6894
S11341100560A04704002000F8BD000037B50B007F
S113412004001500002801D101203EBD002AFBD067
S113413022680220002AF8D02171180001A9FFF793
S11341405FFF010003200029EFD12A000B00019832
S1134150FCF796FE002902D1084B98420CD90023A3
S1134160074AFCF76DFE0B000100002BDCD123682D
S113417020009B689847D8E70121F8E73F420F00E9
S113418040420F00030010B50120002B06D01A682E
S11341900018002A02D01800D268904710BD10B54C
S11341A004000120002C08D023680018002B04D040
S11341B01B69200098470023236210BD002801D00A
S11341C041690069704703000120002B04D00020DE
S11341D098611862DA619961704700000E4B70B5FE
S11341E01B689B0713D50D4B1B68002B0FD0186958
S11341F0596901240025001969419A6918615961B6
S1134200002A04D0596A002902D001221A6270BD22
S1134210D8699047FBE7C04610E000E0E4020020C4
S113422000200722014B98601A60704710E000E0FC
S11342300020014B1860704710E000E0012010B529
S113424000214042FFF71CFD002806D1044B1860F2
S113425058609860034B186010BD0420FCE7C0460A
S113426010E000E0E40200204A1E0300120E0120C8
S1134270002A08D1814200D10221034A481E50601D
S113428000209960D960704710E000E0F8B507009D
S113429001200D00FFF7FAFC0120104C2368834332
S11342A023603A697B692A606B600D4BA6685B6882
S11342B05B0109D5236803432360FFF7EDFCFB682A
S11342C0013B0020AB60F8BD236803432360FFF784
S11342D0E3FC636801339B1BF3E7C04610E000E096
S11342E000ED00E0030070B501201400002913D193
S11342F004250B4A0238156051609160094A0A4945
S11343001360FFF7BDFC002807D1084BA4071A6A05
S11343101202120A22431A6270BD2800FCE7C0464A
S113432010E000E0E4020020DD41000000ED00E0C8
S113433010B5064C064801F0ADFB042801D100205D
S113434010BD013C002CF5D10320F9E7EA0300007D
S113435000E0074010B50B4B0B490A78002A07D040
S1134360084C0A4801F096FB012806D1002003E01E
S1134370013B002BF1D1032010BD013C002CF0D1F6
S1134380F9E7C046EA03000002D0075100E0074005
S1134390F7B507000E00150001200193002F15D07A
S11343A0002913D0FFF772FC094C102200212000D1
S11343B0FCF78EF927602671002D03D0019BA560C0
S11343C0237363730120FFF767FC0020FEBDC04622
S11343D0E8020020F0B5B14C8DB002900391237B2C
S11343E001206373FFF752FC2379029A934206D8A3
S11343F00120FFF751FC022738000DB0F0BD029AEE
S113440023689200D35809AC1D780193039B2A00BA
S11344102372029B2370019B636002239A430492DC
S1134420012A01D0052D0AD101219D4801F086FA07
S1134430002807D10120FFF72FFC0127DCE7032127
S1134440072DF2D80123002763723C000593934E95
S1134450337BA3422AD80120FFF71EFC914800F0C9
S113446025FE049B012B4AD10138022835D9039B30
S1134470012B00D00DE106270120FFF707FC0023E4
S1134480012609AD6B72013CE4B2FF2C00D1AFE010
S1134490824BA2009B68D358002BF4D01A79324285
S11344A0F1D028001A6899689047ECE7B268A30035
S11344B09B58002B0ED01A7905990A420AD01A6823
S11344C0996809A89047002804D0039B04277473B3
S11344D0012BC0D10134E4B2B9E7FFF74FFD724BB1
S11344E09842C4D8FFF726FD704EB042BFD8FFF7FC
S11344F035FDB042BBD8FFF72DFDB042B7D8039BC2
S1134500012B00D0C1E00A2D00D9BCE02800FCF743
S11345100DFB060A0D1E879A7B822F7378000022FA
S113452007AB1A702DE0032207ABFAE75C4801F0F1
S1134530B1FA012808D00021594801F00FFAFFF719
S113454009FF071E00D057E7012207ABE9E75448EB
S113455001F0A0FA042808D00221514801F0FEF924
S1134560FFF7E6FE071E00D046E7042207ABD8E7B4
S1134570072207AB1A80019AD2789A70019A1279AD
S1134580DA702B00083B022B06D8019B06AA5B7944
S11345909372019B9B79D372019B5B78002B0AD0A9
S11345A0012D08D9019B02229978414B00294DD055
S11345B019690A431A613A4807A901F0F3F9002876
S11345C000D00327002D45D1FFF7C4FE071E00D0FD
S11345D012E700270120FFF759FB029B2F4D00240F
S11345E0AB73022309AE737201932B7BA34236D8BB
S11345F00120FFF751FBFFE6082207ABFF321A80C8
S1134600BFE72C4A07ABFAE7022207AB1A70022273
S1134610FF329A80B5E7022207AB1A70264AF8E700
S1134620022207AB1A70013A1D489A8001F032FA4F
S11346300128A6D000211A4801F090F9FFF78AFE5C
S1134640071E9ED0D8E6052207AB6AE71969914395
S11346501961B0E7012DBDD1FFF76AFEB6E7AA687C
S1134660A3009B58002B0BD01A7901990A4207D05A
S113467030001A6899689047002801D005276C73A8
S11346800134E4B2B1E70327B6E6002F00D13AE7DC
S1134690F2E6002F00D0EFE6EDE6C046E802002087
S11346A000E007400040064040420F0080841E00A6
S11346B000ED00E0070300000102000010B5064809
S11346C001F0E8F903000020012B03D00B30042B88
S11346D000D10A3810BDC04600E00740F7B5FF24FA
S11346E003681D4A1E0A26401C40B3009F581B4AFB
S11346F005009B5830000193FFF7BAFC002221000B
S1134700380001F0CFF9019BA400E41884232A792E
S11347105B05234352001A6080236A795B052343B7
S11347201A609023AA795B05234312011A600C4B8B
S11347301C43EB791B042360EB79002B0AD0094B53
S11347409B57002B06D01F2213401E3A9A40130099
S1134750054A1360F7BDC0468C73000094730000D3
S1134760000018189C73000000E100E0F8B5FF2475
S113477005000368114A180A20401C4083009F5812
S11347800F4A9E58FFF774FC38002100012201F003
S113479089F96A682100380001F093F988232A7A9C
S11347A0A400A4195B05234392001A6098235B05B7
S11347B01C436B7A9B012360F8BDC0468C730000D8
S11347C09473000070B50C00002807D1002C0FD1A1
S11347D070BD05000835FFF781FF28000368013329
S11347E0F7D1F3E7250020000C35FFF7BFFF2C00BD
S11347F023680133F6D1EBE7FF230A00010010B56B
S1134800000A19401840034B8000C05801F04AF9CF
S113481010BDC0468C730000FF22030A04491340F4
S11348209B0059580123104083404B607047C04699
S11348308C730000FF22030A044913409B0059585B
S11348400123104083408B607047C0468C73000086
S1134850FF22030A054913409B005B5810401B6963
S1134860C3401800012318407047C0468C730000F1
S1134870084B8200D258942310B502325B051343CF
S11348801B78002B02D000F03FFA10BD00F092FA22
S1134890FBE7C0463C730000020080230C325B053A
S11348A013431A78002AFCD00171704770B50D00CB
S11348B0084B8000C458200029001830FFF790F9F5
S11348C00328F8D0002801D004232374207CC0B22C
S11348D070BDC046F802002010B5104B8000C458CB
S11348E0E37C002B05D0237C052B02D0237C042BF6
S11348F00BD10B4B18589823821C5B0513430022E1
S11349001A7001F04DF901236374A37C002B03D0CA
S113491020001830FFF721F910BDC046F80200202E
S11349203C730000F0B51700002289B005930EAB6C
S11349301B7805000393830032481E5832481C58E4
S113494007AB1A80A37C880A04930223FF33638293
S11349508B0A0193CBB21E2801D11A000B0A5B000B
S1134960D8B2019B00211E2B05D08F4203D1012315
S113497003995B1A59B20143CBB20293029901988D
S113498007AB197001211E2801D15A704918A36080
S11349903000E1600299FFF77FFF28000F99FFF7CD
S11349A085FF237C002B0CD1002F0AD0059BA76028
S11349B0E36030003978FFF76FFF28000F99FFF7A5
S11349C075FF237C039A1A4314D1019B1E2B01D03B
S11349D0002F0FD0002301273000A360E76001F00F
S11349E0CDF8029930003943FFF756FF28000F999C
S11349F0FFF75CFF0023207CE374049BC0B2A37424
S1134A0009B0F0BD3C730000F8020020F7B5830044
S1134A100193184B8200D75805000C000126002F83
S1134A2026D1154B3900D358200024220193FBF7DB
S1134A304FFE200039001830FFF788F82800FFF7F0
S1134A4029FB019801F045F80A4BAA00D4501F2213
S1134A500A4B5B5D134032009A40094B1A609C225A
S1134A60019B520502331343802266743E001A7080
S1134A703000FEBDF80200203C73000040730000CB
S1134A8000E100E0F7B50E4E8500AB590027019315
S1134A900C4B0400EA589C2302325B0513431F703D
S1134AA0FFF7FDFA084B01981A5D1F231A401E3BBD
S1134AB09340064A1830D367FFF75FF8AF51F7BD4C
S1134AC0F80200203C7300004073000004E100E0A1
S1134AD00A4B800070B5C5584B686A690C00934254
S1134AE00BD0074BC658FFF739FA00230100626860
S1134AF0300000F0FDFF63686B6170BDF8020020B8
S1134B003C730000F0B587B004920593334A0FABB1
S1134B101E7883009C580391627C0700002A03D10D
S1134B200320207407B0F0BD002E01D11E220E9286
S1134B302B4A3800D55800230399E360A3602374FB
S1134B4023606374A674FFF7C3FF90231021AA1C8B
S1134B505B05134319708423E91C5B050B43022195
S1134B60197098235B05134302934023029A28008B
S1134B70137001F003F8039B380019880E9B049A04
S1134B80019301230093059BFFF7CCFE0D9B002BA3
S1134B9017D0237C002B11D10C9B2800A3600D9B04
S1134BA0E3600C9B1978FFF777FE002E03D03800E2
S1134BB00E99FFF77BFE207CC0B2B3E7237C042B65
S1134BC0F9D100230126029A1370EB785B09334272
S1134BD002D0280000F0E4FF6674ECE7F80200203D
S1134BE03C730000F0B589B0079311AB1B780692B3
S1134BF0364A029383009C580591627C0600002A81
S1134C0003D10320207409B0F0BD029A002A01D117
S1134C101E32109200272E4A0599D5580E9B30005B
S1134C2023600F9BA7606360029BE760A3742774F3
S1134C306774FFF74DFF9023AA1C5B051A431023EA
S1134C401370842304925B05EA1C134302221A7036
S1134C509823AA185B051A43402328001370039273
S1134C6000F08CFF059B069A1988109B3000019375
S1134C700097079BFFF756FE237CDAB2BB4215D19F
S1134C80049BA91C1A708C235B050B430F99012903
S1134C9000D108221A702B79029B002B03D030001C
S1134CA01099FFF703FE207CC0B2ACE7237C042BF1
S1134CB0F9D10126039B1F70EB785B09334202D0C4
S1134CC0280000F06DFF6674EDE7C046F80200208E
S1134CD03C7300001FB501240394089C0294079CB4
S1134CE00194069C0094FFF70DFF04B010BD1FB59E
S1134CF001240394089C0294079C0194069C00944C
S1134D00FFF770FF04B010BD244B70B58400E55864
S1134D108423EA1C5B05134302221A709023A9180A
S1134D205B050B431B78EA78DBB292061DD594220F
S1134D3052050A431278002A17D0194AA458012BA5
S1134D4014D1EA781A4204D004332374FFF7C4FD63
S1134D500BE0E368013BE360002BF7D0A368280075
S1134D605A1CA2605978FFF797FD70BD6268013A3A
S1134D706260002A06D08C235B05012A0AD0002237
S1134D800B4309E0FFF7A8FD23685A1C22602A7927
S1134D901A70EAE708220B431A70F5E73C73000027
S1134DA0F8020020C31C842040051843022303702A
S1134DB0704700000122F0B5904B8100CD5889B0B6
S1134DC0EB1C0193EB7890261B091A4005920122F3
S1134DD0EB7876059B091A4002923200AB1D1A4308
S1134DE0944612780090D2B20792942252051A4344
S1134DF01278AF1CD0B20390982040050343187872
S1134E00C0B206907E480C583100394301910978AC
S1134E10C9B20491002A35D0079A002A0ED0102373
S1134E20624628001370FFF7BDFF236B002B52D09E
S1134E306A4601211078626B98474CE0069A002A72
S1134E4020D0402228001A70FFF7ACFF23002C3337
S1134E501B78002B03D19822520517433B70236B18
S1134E60002B04D06A4680211078626B9847E37D5A
S1134E70002B04D0200080211830FEF780FE0A2386
S1134E80237028E02800FFF78DFF059B002B24D01A
S1134E90EB1C1E4310233370029B002B10D0EB78C5
S1134EA05B07DA0F002B48DB019B1A70236B002B86
S1134EB004D06A4604211078626B98472B790AE083
S1134EC0082323702C342378002B04D198235B050A
S1134ED01F43029B3B7009B0F0BD029B002BDED147
S1134EE0049B012B54D1EB78049A134230D0019BDC
S1134EF0029A1A702B7923002C331B78002B07D1CC
S1134F00039B002B04D198235B051F43039B3B7039
S1134F10236B002B04D06A4608211078626B9847F3
S1134F20A37D002B04D0200008211830FEF727FEB3
S1134F3000236360E3602375CDE71023019A1370A7
S1134F40236B002B04D06A4602211078626B9847C9
S1134F506368002B50D028008022E3680C3052058F
S1134F601978024310780028FCD029710133E360DA
S1134F706368013B63606368002BACD1E360237515
S1134F80236B002BA7D06A4610211078626B53E77D
S1134F902B79A268DBB2002A2CD022691370236912
S1134FA001332361A368013BA360A368002B00D0F5
S1134FB091E7039B002B11D123002C331B78002B8A
S1134FC004D198235B051F43039B3B70E37D002BB7
S1134FD004D0200020211830FEF7D1FD0023637592
S1134FE02361236B002B00D175E76A4620211078DA
S1134FF0626B21E7072343E7062341E73C73000084
S1135000F802002084225205024312780300D0B231
S1135010002A0CD08020013340050343187801385E
S113502043425841024B40421840024BC01870475B
S1135030808D5B0080841E00020070B5074B08322F
S113504013431C78064B103213431D78FFF7DAFF25
S1135050EDB2E4B26419E04070BDC04600009010A7
S11350600000101010B50D4B821D13431A78040074
S1135070D3B2002A0FD0012B07D1FFF7C3FF084B8F
S113508008341C432378D84010BD0020022BFBD1E8
S1135090044B1868F8E70448F6E7C0460000081116
S11350A000009010FC020020006CDC020C4A811D00
S11350B00A4312780300D0B2012A04D002280BD08C
S11350C000280BD1704780220133520513431B780B
S11350D0002BF7D10220F5E70320F3E70520F1E7E1
S11350E00000081102009C2318325B051343802240
S11350F01A700022064B03431A70064B06301843FD
S11351000378DAB2002BFBD1034B10000B6070471D
S11351100000081300000811006CDC02F8B504005C
S11351200D0016001F00FFF7C1FF012823D1002D39
S113513025D08023621C5B0513431D708423022247
S11351405B0523431A702200104B0832134372008C
S1135150D2B21A7040220E4B0E48234306341A7002
S113516004432378012BFCD1002D0DD10A4B33418C
S113517000203B60F8BD0228DBD1012DD9D13900D4
S11351802000FFF7AFFFD4E7044BF0E700009010D6
S1135190000008130000081180841E0000127A0029
S11351A010B50A4C030022680120002A0CD0084ADA
S11351B07F301A4310700748063303431A78022AD3
S11351C0FCD1002023680B6010BDC046FC02002007
S11351D000000813000008119C23C9015B05034368
S11351E0C9B2197070479C235B0503431878431EAA
S11351F09841C0B27047942349015B050343C9B287
S11352001970704770B506680C0030002049FBF730
S1135210A1FC1F4905003000FBF722FD0E00E1212F
S113522030000901FBF796FCE121E0800901300020
S1135230FBF716FD0E003C213000FBF78BFC3C21F4
S113524020813000FBF70CFD6E22A1720321114B6B
S1135250FF322380238895420AD80F499B0700D147
S11352600E490123CA5CAA420CD36380A58070BD99
S113527001339BB223800B40AD1A5A425A416E321D
S1135280FF32E7E70133AD1A0D2BEBD1EEE7C04651
S113529080510100B20700006873000041730000F0
S11352A00188114A03008A18002030B5812A17D8D2
S11352B05A88541E0B2C13D89C88651E1E2D0FD89B
S11352C0DD88172D0CD81D893B2D09D89B7A3B2BE3
S11352D006D88B0705D0054B9B5CA3424041C0B266
S11352E030BD034BF8E7C0464EF8FFFF687300007B
S11352F04173000070B5134D838802885B196E25D5
S1135300FF35554344885B1995085B190E4D6600BB
S1135310755B5B19920710D00B600A680B4BC4884D
S11353205343827A00899B18E122120162439B183D
S11353303C2242439B180B6070BD022CECD8013B0D
S1135340EAE7C0464A05F5FF4E73000080510100AC
S11353508023084A1B0212689A4209D1A023103004
S11353605B0518430368002B02D10133FF3303604C
S11353707047C046FC0200200100802210B50023C3
S113538001245205103111430C600B6090214360DD
S1135390490504601C3001430B6088214905014321
S11353A00B6084214905014310430B60036010BD69
S11353B00200902314325B05134300221A604260FA
S11353C0103201601A60704703680B607047000078
S11353D0104B820070B5D558802204000E4B920504
S11353E01A602800FFF7C8FF2800FFF7B1FF0B4B36
S11353F01F261A5D0123180009493240095DC025A2
S1135400314090408B40074A6D0050515351106019
S1135410136070BD787300003C80845E7C73000070
S11354207D73000000E100E0F7B50027114B800018
S1135430C55808000E000197FFF732FF0400B84278
S113544016D001A93000FFF755FF3800FEF7B8FD6C
S1135450010080200002814206D0FBF77BFB0100A3
S11354600198FBF777FB019028000199FFF7A0FF53
S11354702000FEBD78730000F7B50025124B8000B4
S1135480C4580E00200001A90195FFF79DFF2800D4
S1135490FEF796FD05008020000285420ED00B4BDE
S11354A0290004341C43FBF755FB2768019C2900A1
S11354B04443B8B2FBF74EFB24180194310001A811
S11354C0FFF7A0FEF7BDC046787300000000781017
S11354D0F0B50027184B800085B0C55808000E00B1
S11354E001920397FFF7DCFE0400B84203D10024C5
S11354F0200005B0F0BD300003A9FFF7FBFE380023
S11355002E68FEF75DFD010080200002814206D076
S1135510FBF720FB01000398FBF71CFB0390039BA4
S1135520B342E4D3AB6088231C355B051D43019B68
S11355309A002A60DCE7C04678730000044B8000C0
S1135540C25888231C325B051343890019607047D5
S113555078730000054B8000C258882314325B0521
S113556013431868431E9841C0B270477873000013
S11355706B46E0221B78D2021B041340024A09073F
S11355800B4380180360704744100000084B8200EE
S1135590D258902310B503325B0513431B78002BBC
S11355A002D000F013F910BD00F078F9FBE7C04613
S11355B0807300009C210C4B0C4A8000C358825815
S11355C0002003324905114310B518710870942165
S11355D049050A4310701A7F824203D02033180011
S11355E0FEF7BBFA10BDC046040300208073000020
S11355F0F7B50C0005001B4B30220021870020006A
S1135600FE58FBF765F82800FEF73AFDFEF7A6FC06
S11356102060300000F0E5FA200000212030FEF781
S113562095FAF31C01939023F21C5B05134310229B
S113563030001A70032100F012FB3000002100F04A
S113564033FB094BFC50094B5A5D1F231A401E3B88
S11356509340074A13609823019A5B051343402241
S11356601A70F7BD807300000403002084730000E7
S113567000E100E0F8B50D4E85000D4BAF59040074
S1135680E85800F0AEFA38002030FEF776FA094BFD
S113569020001A5D1F231A401E3B9340064AD3671D
S11356A0FEF7F3FC0023AB51F8BDC0460403002011
S11356B0807300008473000004E100E00A4B800062
S11356C070B5C658094B0C00C358150030001A6851
S11356D0096800F08DFA2860A37930006279217995
S11356E000F0CFFA70BDC0468073000004030020B0
S11356F0F7B51E4A83009C58050022790420002A2D
S113570016D11B4A9E58002903D0280001AAFFF78E
S1135710D5FF982300214020F21C5B051343197028
S1135720187027698F4204D12800FFF743FF002037
S1135730FEBD0123237194235B05A16133431B78D0
S11357400720002BF4D0A368191E02D01978013366
S1135750A360B1712369013B2361A3690133A36190
S11357609C235B051A4380231370E0E704030020A5
S113577080730000F8B5134F134C85002C59ED5974
S11357800127069E2777A2602661E3606661FFF722
S1135790AFFF002814D1200007992030FEF720FA2B
S11357A00328F8D000280BD09C23002203355B0586
S11357B02B4322711A70942303205B051D432A7026
S11357C0F8BDC046807300000403002010B51E4BD2
S11357D08200D3581979002934D01C4951585A6988
S11357E0002A11D09C2252050A431278002A0BD0B9
S11357F08A79DC68D2B2002C03D02270DA680132D4
S1135800DA605A69013A5A611A69002A12D094225C
S113581052050A431278002A0CD09A68141E02D04A
S1135820147801329A608C711A69013A1A619A6982
S113583001329A611A69002A04D15B69002B01D1F3
S1135840FFF7B8FE10BDC0460403002080730000BB
S1135850104A8000815800220F4B10B5C358033101
S1135860581CC2779C2040050843DA621A701A83D8
S11358705A629A621A6302709420400501430A70C6
S11358801A0038321278002A03D00121181DFEF7BD
S113589076F910BD807300000403002070B5254B19
S11358A08200D358591CC97F002942D0224952583A
S11358B0D96A002917DB9421490511430978002985
S11358C011D0D969CCB2596A002905D0DD6A002DFE
S11358D002DD0C78013159629471D96A0139D962B7
S11358E0596B01315963D96A002905DA9421D41C12
S11358F04905214300240C70196B002911DD9C21FA
S113590049051143097800290BD09279996AD2B2DA
S1135910002903D00A709A6A01329A621A6B013A1A
S11359201A63DA6A002A04DC1B6B002B01DCFFF724
S11359308FFF70BD0403002080730000012903D091
S1135940032909D00020704794235B05184300788D
S1135950431E9841C0B2F6E78423F6E7431C03488C
S113596049011843C9B201707047C046000088124B
S1135970831C9420490140051843C9B20170704743
S1135980831C034889011843C9B201707047C0469B
S113599000000813831C8C20C90040051843C9B2B9
S11359A001707047F7B50400364EE31C1E4333788C
S11359B008780D00DBB2072860D8FBF7B7F80419A4
S11359C02B0E192B2B45304B01341C430023237021
S11359D03378012BFCD10020FEBD012BFCD12A4BD6
S11359E001341C43402323703378042BFCD1F2E7A9
S11359F00021012801D004200231337898423FD19C
S1135A002000FFF7ABFF0421204A13698B43136185
S1135A1030BFE0E70227B84207D100270B79BB4229
S1135A2003D020004979FFF7ABFF194B01341C4325
S1135A3027703378154ADBB20193019B013301933C
S1135A40042311690B43E2E70421114B621C1A433E
S1135A5011706A78A11C0B431A70002A06D1AB7826
S1135A60002B03D02000E978FFF782FFAB79002BED
S1135A70DFD02000E979FFF78DFFDAE70120ABE7FB
S1135A800320A9E7000030100000881200ED00E0B8
S1135A9000001010C31C024818430078C0B27047BD
S1135AA000003010012314308B40012A04D18022DD
S1135AB012051043036070478022D204DB43104375
S1135AC0F8E701238B40002A01D0436070478360CC
S1135AD0FCE70023C222037043708370C3704371D8
S1135AE08371C371037242728372C3727047000080
S1135AF0F0B5002487B00293FA230126270025007D
S1135B009B00534303900491009301947642AB00AD
S1135B100593194BAA009B1859880498A140FBF7D8
S1135B2019F8009B009AC31A824200D9131AB3428F
S1135B301FD2114AA900525C27000192002B02D007
S1135B400135322D13D10134032C01D0002B0DD19A
S1135B50029A002A00D013603F220199BB01114030
S1135B600B43039ADBB2537007B0F0BD00251E004F
S1135B70CDE73300E4E7C0469E730000942302306F
S1135B805B0503431B78002B05D088235B05184372
S1135B9004230370704780231B0518433023F8E760
S1135BA0942210B55205841C224311780300CAB212
S1135BB0022001290DD18021C90421438024CD3044
S1135BC00870E400033319784909080010401142B1
S1135BD000D110BD013C002C01D0C046F3E70920E0
S1135BE0F7E70423C3700023837043700371704785
S1135BF0F0B5130B89B001260393082301247642E0
S1135C0002939B19079004910592019302270025A2
S1135C10631E0693210005987943FAF79BFF049BC2
S1135C20834207D31B1AB34204D21E00069B03907F
S1135C300295019301357F00092D01D0002EE9D191
S1135C40082C02D00134002EE0D1019B029A1B01E2
S1135C5003981343079ADBB2537009B0F0BD842351
S1135C6010B50224C21C5B0513434A0022401A707B
S1135C70902300195B0518431023C90019400170D3
S1135C8010BD10B58C2403306405C9000443C9B2A7
S1135C9021708821920049050143D2B20A70802202
S1135CA052051043037010BD8023012202305B05AE
S1135CB003430A401A708C235B05184308238900A8
S1135CC0194001707047000004FEFF1FFC11000022
S1135CD02A1100002A1100002611000030110000D2
S1135CE0301100001C1400002611000030110000C7
S1135CF01C1400003011000026110000BA1300002B
S1135D00BA130000BA130000861400001B5B306D48
S1135D101B5B343B34336D1B5B313B33376D0D53AD
S1135D20616E69747920636865636B206661696C70
S1135D306564211B5B306D0A001B5B306D1B5B349B
S1135D403B34316D1B5B313B33376D0D496E7661EE
S1135D506C696420737570706C7920766F6C7461F3
S1135D606765205B25645D206D56211B5B306D0AE1
S1135D7000204D4D413834353120782C204D4D4193
S1135D803834353120792C204D4D4138343531208B
S1135D907A2C00205254432D3E5453522C205254FA
S1135DA0432D3E5450522C202320436F6E66696766
S1135DB0204572726F72730025752C2025642C2087
S1135DC025642C002025642C2025642C2025640ABD
S1135DD0000D09307825303278202D2D3E205B309F
S1135DE07825303278203078253032782030782584
S1135DF03032785D0A000D09307825303278202D54
S1135E002D3E203078253032780A000D093078256F
S1135E10303278202D2D3E202D2D2D2D0A000D0AF7
S1135E200925642F25642073756363657373207279
S1135E306174652E0A000D0925642F25642073758D
S1135E4063636573736573206D617463686564204F
S1135E507265662E2076616C7565206F66203078D9
S1135E60253032782E0A000D0925642062616420F1
S1135E70636F6D6D616E64732E0A0A000D0A4D4DD9
S1135E804138343531513A0A0D000D0A494E413238
S1135E9031393A0A0D000D0A0A424D453638302090
S1135EA0526561642041626F727465642E2044659A
S1135EB0766963652044697361626C6564203A287D
S1135EC0000D0A094D414733313130205265616478
S1135ED02041626F727465642E204465766963653F
S1135EE02044697361626C6564203A2820000D0ABD
S1135EF0094C334744323048205265616420416282
S1135F006F727465642E2044657669636520446904
S1135F107361626C6564203A2820000D0A094C50B4
S1135F205332354820526561642041626F72746552
S1135F30642E204465766963652044697361626CEC
S1135F406564203A2820000D0A095443533334373A
S1135F50323520526561642041626F727465642E2B
S1135F60204465766963652044697361626C656485
S1135F70203A2820000D0A0953493437303520527D
S1135F806561642041626F727465642E2044657695
S1135F906963652044697361626C6564203A2820F2
S1135FA0000D0A09484443313030302052656164A1
S1135FB02041626F727465642E204465766963655E
S1135FC02044697361626C6564203A2820000D0ADC
S1135FD00953493730323120526561642041626F80
S1135FE0727465642E204465766963652044697320
S1135FF061626C6564203A2820000D0A094343530A
S113600038313120526561642041626F7274656475
S11360102E204465766963652044697361626C650A
